{
  "contractName": "WVWDistribution",
  "abi": [
    {
      "inputs": [
        {
          "internalType": "address",
          "name": "_owner",
          "type": "address"
        },
        {
          "internalType": "address",
          "name": "_walletTeam",
          "type": "address"
        },
        {
          "internalType": "address",
          "name": "_walletPartners",
          "type": "address"
        },
        {
          "internalType": "address",
          "name": "_walletGiveways",
          "type": "address"
        },
        {
          "internalType": "address",
          "name": "_walletLiquidityExchange",
          "type": "address"
        },
        {
          "internalType": "address",
          "name": "_walletLaunch",
          "type": "address"
        },
        {
          "internalType": "address",
          "name": "_walletStake",
          "type": "address"
        },
        {
          "internalType": "address",
          "name": "_walletFounder",
          "type": "address"
        }
      ],
      "stateMutability": "nonpayable",
      "type": "constructor"
    },
    {
      "anonymous": false,
      "inputs": [
        {
          "indexed": true,
          "internalType": "address",
          "name": "previousOwner",
          "type": "address"
        },
        {
          "indexed": true,
          "internalType": "address",
          "name": "newOwner",
          "type": "address"
        }
      ],
      "name": "OwnershipTransferred",
      "type": "event"
    },
    {
      "inputs": [],
      "name": "owner",
      "outputs": [
        {
          "internalType": "address",
          "name": "",
          "type": "address"
        }
      ],
      "stateMutability": "view",
      "type": "function",
      "constant": true
    },
    {
      "inputs": [],
      "name": "renounceOwnership",
      "outputs": [],
      "stateMutability": "nonpayable",
      "type": "function"
    },
    {
      "inputs": [
        {
          "internalType": "address",
          "name": "newOwner",
          "type": "address"
        }
      ],
      "name": "transferOwnership",
      "outputs": [],
      "stateMutability": "nonpayable",
      "type": "function"
    },
    {
      "inputs": [
        {
          "internalType": "address",
          "name": "_token",
          "type": "address"
        }
      ],
      "name": "configureTokenAddress",
      "outputs": [],
      "stateMutability": "nonpayable",
      "type": "function"
    },
    {
      "inputs": [],
      "name": "verifyTimeLock",
      "outputs": [
        {
          "internalType": "bool",
          "name": "availableClaim",
          "type": "bool"
        }
      ],
      "stateMutability": "view",
      "type": "function",
      "constant": true
    },
    {
      "inputs": [],
      "name": "claim",
      "outputs": [],
      "stateMutability": "nonpayable",
      "type": "function"
    },
    {
      "inputs": [],
      "name": "getTimelocks",
      "outputs": [
        {
          "components": [
            {
              "internalType": "address",
              "name": "wallet",
              "type": "address"
            },
            {
              "internalType": "uint256",
              "name": "lastClaim",
              "type": "uint256"
            },
            {
              "internalType": "uint256",
              "name": "totalAmount",
              "type": "uint256"
            },
            {
              "internalType": "uint256",
              "name": "timeLock",
              "type": "uint256"
            },
            {
              "internalType": "uint256",
              "name": "amountPerClaim",
              "type": "uint256"
            },
            {
              "internalType": "uint256",
              "name": "claimed",
              "type": "uint256"
            }
          ],
          "internalType": "struct WVWDistribution.DistributionItem[]",
          "name": "_timelocks",
          "type": "tuple[]"
        }
      ],
      "stateMutability": "view",
      "type": "function",
      "constant": true
    }
  ],
  "bytecode": "0x60806040523480156200001157600080fd5b5060405162001dd438038062001dd4833981810160405281019062000037919062000c12565b620000576200004b620002a460201b60201c565b620002ac60201b60201c565b426002819055506000600360006101000a81548160ff02191690831515021790555086600360016101000a81548173ffffffffffffffffffffffffffffffffffffffff021916908373ffffffffffffffffffffffffffffffffffffffff16021790555085600460006101000a81548173ffffffffffffffffffffffffffffffffffffffff021916908373ffffffffffffffffffffffffffffffffffffffff16021790555084600560006101000a81548173ffffffffffffffffffffffffffffffffffffffff021916908373ffffffffffffffffffffffffffffffffffffffff16021790555083600660006101000a81548173ffffffffffffffffffffffffffffffffffffffff021916908373ffffffffffffffffffffffffffffffffffffffff16021790555082600760006101000a81548173ffffffffffffffffffffffffffffffffffffffff021916908373ffffffffffffffffffffffffffffffffffffffff16021790555081600860006101000a81548173ffffffffffffffffffffffffffffffffffffffff021916908373ffffffffffffffffffffffffffffffffffffffff16021790555080600960006101000a81548173ffffffffffffffffffffffffffffffffffffffff021916908373ffffffffffffffffffffffffffffffffffffffff160217905550620002506200037060201b60201c565b8773ffffffffffffffffffffffffffffffffffffffff163373ffffffffffffffffffffffffffffffffffffffff16146200029657620002958862000a5860201b60201c565b5b505050505050505062000df6565b600033905090565b60008060009054906101000a900473ffffffffffffffffffffffffffffffffffffffff169050816000806101000a81548173ffffffffffffffffffffffffffffffffffffffff021916908373ffffffffffffffffffffffffffffffffffffffff1602179055508173ffffffffffffffffffffffffffffffffffffffff168173ffffffffffffffffffffffffffffffffffffffff167f8be0079c531659141344cd1fd0a4f28419497f9722a3daafe3b4186f6b6457e060405160405180910390a35050565b600a6040518060c00160405280600960009054906101000a900473ffffffffffffffffffffffffffffffffffffffff1673ffffffffffffffffffffffffffffffffffffffff16815260200160025481526020016a084595161401484a00000081526020016201518081526020016a084595161401484a00000081526020016000815250908060018154018082558091505060019003906000526020600020906006020160009091909190915060008201518160000160006101000a81548173ffffffffffffffffffffffffffffffffffffffff021916908373ffffffffffffffffffffffffffffffffffffffff1602179055506020820151816001015560408201518160020155606082015181600301556080820151816004015560a082015181600501555050600a6040518060c00160405280600360019054906101000a900473ffffffffffffffffffffffffffffffffffffffff1673ffffffffffffffffffffffffffffffffffffffff16815260200160025481526020016a084595161401484a000000815260200162278d0081526020016969e10de76676d080000081526020016000815250908060018154018082558091505060019003906000526020600020906006020160009091909190915060008201518160000160006101000a81548173ffffffffffffffffffffffffffffffffffffffff021916908373ffffffffffffffffffffffffffffffffffffffff1602179055506020820151816001015560408201518160020155606082015181600301556080820151816004015560a082015181600501555050600a6040518060c00160405280600460009054906101000a900473ffffffffffffffffffffffffffffffffffffffff1673ffffffffffffffffffffffffffffffffffffffff16815260200160025481526020016a084595161401484a000000815260200162278d0081526020016969e10de76676d080000081526020016000815250908060018154018082558091505060019003906000526020600020906006020160009091909190915060008201518160000160006101000a81548173ffffffffffffffffffffffffffffffffffffffff021916908373ffffffffffffffffffffffffffffffffffffffff1602179055506020820151816001015560408201518160020155606082015181600301556080820151816004015560a082015181600501555050600a6040518060c00160405280600560009054906101000a900473ffffffffffffffffffffffffffffffffffffffff1673ffffffffffffffffffffffffffffffffffffffff16815260200160025481526020016a084595161401484a000000815260200162278d0081526020016969e10de76676d080000081526020016000815250908060018154018082558091505060019003906000526020600020906006020160009091909190915060008201518160000160006101000a81548173ffffffffffffffffffffffffffffffffffffffff021916908373ffffffffffffffffffffffffffffffffffffffff1602179055506020820151816001015560408201518160020155606082015181600301556080820151816004015560a082015181600501555050600a6040518060c00160405280600860009054906101000a900473ffffffffffffffffffffffffffffffffffffffff1673ffffffffffffffffffffffffffffffffffffffff16815260200160025481526020016a084595161401484a000000815260200162278d0081526020016969e10de76676d080000081526020016000815250908060018154018082558091505060019003906000526020600020906006020160009091909190915060008201518160000160006101000a81548173ffffffffffffffffffffffffffffffffffffffff021916908373ffffffffffffffffffffffffffffffffffffffff1602179055506020820151816001015560408201518160020155606082015181600301556080820151816004015560a082015181600501555050600a6040518060c00160405280600660009054906101000a900473ffffffffffffffffffffffffffffffffffffffff1673ffffffffffffffffffffffffffffffffffffffff16815260200160025481526020016a108b2a2c28029094000000815260200162ed4e0081526020016a0422ca8b0a00a42500000081526020016000815250908060018154018082558091505060019003906000526020600020906006020160009091909190915060008201518160000160006101000a81548173ffffffffffffffffffffffffffffffffffffffff021916908373ffffffffffffffffffffffffffffffffffffffff1602179055506020820151816001015560408201518160020155606082015181600301556080820151816004015560a082015181600501555050565b62000a6862000aee60201b60201c565b600073ffffffffffffffffffffffffffffffffffffffff168173ffffffffffffffffffffffffffffffffffffffff160362000ada576040517f08c379a000000000000000000000000000000000000000000000000000000000815260040162000ad19062000d62565b60405180910390fd5b62000aeb81620002ac60201b60201c565b50565b62000afe620002a460201b60201c565b73ffffffffffffffffffffffffffffffffffffffff1662000b2462000b7f60201b60201c565b73ffffffffffffffffffffffffffffffffffffffff161462000b7d576040517f08c379a000000000000000000000000000000000000000000000000000000000815260040162000b749062000dd4565b60405180910390fd5b565b60008060009054906101000a900473ffffffffffffffffffffffffffffffffffffffff16905090565b600080fd5b600073ffffffffffffffffffffffffffffffffffffffff82169050919050565b600062000bda8262000bad565b9050919050565b62000bec8162000bcd565b811462000bf857600080fd5b50565b60008151905062000c0c8162000be1565b92915050565b600080600080600080600080610100898b03121562000c365762000c3562000ba8565b5b600062000c468b828c0162000bfb565b985050602062000c598b828c0162000bfb565b975050604062000c6c8b828c0162000bfb565b965050606062000c7f8b828c0162000bfb565b955050608062000c928b828c0162000bfb565b94505060a062000ca58b828c0162000bfb565b93505060c062000cb88b828c0162000bfb565b92505060e062000ccb8b828c0162000bfb565b9150509295985092959890939650565b600082825260208201905092915050565b7f4f776e61626c653a206e6577206f776e657220697320746865207a65726f206160008201527f6464726573730000000000000000000000000000000000000000000000000000602082015250565b600062000d4a60268362000cdb565b915062000d578262000cec565b604082019050919050565b6000602082019050818103600083015262000d7d8162000d3b565b9050919050565b7f4f776e61626c653a2063616c6c6572206973206e6f7420746865206f776e6572600082015250565b600062000dbc60208362000cdb565b915062000dc98262000d84565b602082019050919050565b6000602082019050818103600083015262000def8162000dad565b9050919050565b610fce8062000e066000396000f3fe608060405234801561001057600080fd5b506004361061007d5760003560e01c806390380dcf1161005b57806390380dcf146100b4578063c4ee7c65146100d2578063f2fde38b146100ee578063fc1f66a71461010a5761007d565b80634e71d92d14610082578063715018a61461008c5780638da5cb5b14610096575b600080fd5b61008a610128565b005b6100946103da565b005b61009e6103ee565b6040516100ab919061098f565b60405180910390f35b6100bc610417565b6040516100c99190610afc565b60405180910390f35b6100ec60048036038101906100e79190610b4f565b6104fe565b005b61010860048036038101906101039190610b4f565b6105aa565b005b61011261062d565b60405161011f9190610b97565b60405180910390f35b610130610717565b60005b600a805490508110156103d757600a818154811061015457610153610bb2565b5b906000526020600020906006020160030154600a828154811061017a57610179610bb2565b5b9060005260206000209060060201600101546101969190610c10565b42106103c457600a81815481106101b0576101af610bb2565b5b906000526020600020906006020160020154600a82815481106101d6576101d5610bb2565b5b90600052602060002090600602016005015410156103c357600a818154811061020257610201610bb2565b5b906000526020600020906006020160040154600a828154811061022857610227610bb2565b5b906000526020600020906006020160050160008282546102489190610c10565b9250508190555042600a828154811061026457610263610bb2565b5b906000526020600020906006020160010181905550600160009054906101000a900473ffffffffffffffffffffffffffffffffffffffff1673ffffffffffffffffffffffffffffffffffffffff1663a9059cbb600a83815481106102cb576102ca610bb2565b5b906000526020600020906006020160000160009054906101000a900473ffffffffffffffffffffffffffffffffffffffff16600a848154811061031157610310610bb2565b5b9060005260206000209060060201600401546040518363ffffffff1660e01b8152600401610340929190610c53565b6020604051808303816000875af115801561035f573d6000803e3d6000fd5b505050506040513d601f19601f820116820180604052508101906103839190610ca8565b6103c2576040517f08c379a00000000000000000000000000000000000000000000000000000000081526004016103b990610d32565b60405180910390fd5b5b5b80806103cf90610d52565b915050610133565b50565b6103e2610717565b6103ec6000610795565b565b60008060009054906101000a900473ffffffffffffffffffffffffffffffffffffffff16905090565b6060600a805480602002602001604051908101604052809291908181526020016000905b828210156104f557838290600052602060002090600602016040518060c00160405290816000820160009054906101000a900473ffffffffffffffffffffffffffffffffffffffff1673ffffffffffffffffffffffffffffffffffffffff1673ffffffffffffffffffffffffffffffffffffffff168152602001600182015481526020016002820154815260200160038201548152602001600482015481526020016005820154815250508152602001906001019061043b565b50505050905090565b610506610717565b600360009054906101000a900460ff161561052057600080fd5b80600160006101000a81548173ffffffffffffffffffffffffffffffffffffffff021916908373ffffffffffffffffffffffffffffffffffffffff1602179055506001600360006101000a81548160ff0219169083151502179055506105a7600760009054906101000a900473ffffffffffffffffffffffffffffffffffffffff16610859565b50565b6105b2610717565b600073ffffffffffffffffffffffffffffffffffffffff168173ffffffffffffffffffffffffffffffffffffffff1603610621576040517f08c379a000000000000000000000000000000000000000000000000000000000815260040161061890610e0c565b60405180910390fd5b61062a81610795565b50565b600080600090505b600a8054905081101561071257600a818154811061065657610655610bb2565b5b906000526020600020906006020160020154600a828154811061067c5761067b610bb2565b5b9060005260206000209060060201600501541080156106f05750600a81815481106106aa576106a9610bb2565b5b906000526020600020906006020160030154600a82815481106106d0576106cf610bb2565b5b9060005260206000209060060201600101546106ec9190610c10565b4210155b156106ff576001915050610714565b808061070a90610d52565b915050610635565b505b90565b61071f610946565b73ffffffffffffffffffffffffffffffffffffffff1661073d6103ee565b73ffffffffffffffffffffffffffffffffffffffff1614610793576040517f08c379a000000000000000000000000000000000000000000000000000000000815260040161078a90610e78565b60405180910390fd5b565b60008060009054906101000a900473ffffffffffffffffffffffffffffffffffffffff169050816000806101000a81548173ffffffffffffffffffffffffffffffffffffffff021916908373ffffffffffffffffffffffffffffffffffffffff1602179055508173ffffffffffffffffffffffffffffffffffffffff168173ffffffffffffffffffffffffffffffffffffffff167f8be0079c531659141344cd1fd0a4f28419497f9722a3daafe3b4186f6b6457e060405160405180910390a35050565b600160009054906101000a900473ffffffffffffffffffffffffffffffffffffffff1673ffffffffffffffffffffffffffffffffffffffff1663a9059cbb826a18d0bf423c03d8de0000006040518363ffffffff1660e01b81526004016108c1929190610edd565b6020604051808303816000875af11580156108e0573d6000803e3d6000fd5b505050506040513d601f19601f820116820180604052508101906109049190610ca8565b610943576040517f08c379a000000000000000000000000000000000000000000000000000000000815260040161093a90610f78565b60405180910390fd5b50565b600033905090565b600073ffffffffffffffffffffffffffffffffffffffff82169050919050565b60006109798261094e565b9050919050565b6109898161096e565b82525050565b60006020820190506109a46000830184610980565b92915050565b600081519050919050565b600082825260208201905092915050565b6000819050602082019050919050565b6109df8161096e565b82525050565b6000819050919050565b6109f8816109e5565b82525050565b60c082016000820151610a1460008501826109d6565b506020820151610a2760208501826109ef565b506040820151610a3a60408501826109ef565b506060820151610a4d60608501826109ef565b506080820151610a6060808501826109ef565b5060a0820151610a7360a08501826109ef565b50505050565b6000610a8583836109fe565b60c08301905092915050565b6000602082019050919050565b6000610aa9826109aa565b610ab381856109b5565b9350610abe836109c6565b8060005b83811015610aef578151610ad68882610a79565b9750610ae183610a91565b925050600181019050610ac2565b5085935050505092915050565b60006020820190508181036000830152610b168184610a9e565b905092915050565b600080fd5b610b2c8161096e565b8114610b3757600080fd5b50565b600081359050610b4981610b23565b92915050565b600060208284031215610b6557610b64610b1e565b5b6000610b7384828501610b3a565b91505092915050565b60008115159050919050565b610b9181610b7c565b82525050565b6000602082019050610bac6000830184610b88565b92915050565b7f4e487b7100000000000000000000000000000000000000000000000000000000600052603260045260246000fd5b7f4e487b7100000000000000000000000000000000000000000000000000000000600052601160045260246000fd5b6000610c1b826109e5565b9150610c26836109e5565b9250828201905080821115610c3e57610c3d610be1565b5b92915050565b610c4d816109e5565b82525050565b6000604082019050610c686000830185610980565b610c756020830184610c44565b9392505050565b610c8581610b7c565b8114610c9057600080fd5b50565b600081519050610ca281610c7c565b92915050565b600060208284031215610cbe57610cbd610b1e565b5b6000610ccc84828501610c93565b91505092915050565b600082825260208201905092915050565b7f6572726f7220746f2073656e6420746f6b656e7320746f2057616c6c65740000600082015250565b6000610d1c601e83610cd5565b9150610d2782610ce6565b602082019050919050565b60006020820190508181036000830152610d4b81610d0f565b9050919050565b6000610d5d826109e5565b91507fffffffffffffffffffffffffffffffffffffffffffffffffffffffffffffffff8203610d8f57610d8e610be1565b5b600182019050919050565b7f4f776e61626c653a206e6577206f776e657220697320746865207a65726f206160008201527f6464726573730000000000000000000000000000000000000000000000000000602082015250565b6000610df6602683610cd5565b9150610e0182610d9a565b604082019050919050565b60006020820190508181036000830152610e2581610de9565b9050919050565b7f4f776e61626c653a2063616c6c6572206973206e6f7420746865206f776e6572600082015250565b6000610e62602083610cd5565b9150610e6d82610e2c565b602082019050919050565b60006020820190508181036000830152610e9181610e55565b9050919050565b6000819050919050565b6000819050919050565b6000610ec7610ec2610ebd84610e98565b610ea2565b6109e5565b9050919050565b610ed781610eac565b82525050565b6000604082019050610ef26000830185610980565b610eff6020830184610ece565b9392505050565b7f4572726f7220746f2073656e6420696e697469616c20746f6b656e7320746f2060008201527f57616c6c65744c61756e63680000000000000000000000000000000000000000602082015250565b6000610f62602c83610cd5565b9150610f6d82610f06565b604082019050919050565b60006020820190508181036000830152610f9181610f55565b905091905056fea264697066735822122024796162db29b5ee98cbe0c17b8ba0a9f6a56a40ec14049766893378c4be615064736f6c63430008110033",
  "immutableReferences": {},
  "source": "// SPDX-License-Identifier: MIT\r\npragma solidity ^0.8.9;\r\n\r\nimport \"@openzeppelin/contracts/token/ERC20/IERC20.sol\";\r\nimport \"@openzeppelin/contracts/access/Ownable.sol\";\r\n\r\n/**\r\n    This contracts will gona control all token supply of WVW, and it guarantees that anything will going to be different from WVW Tokenomics.\r\n    Onwer can't even change wallets if he wants to.\r\n    Claims are gonna be locked until it gets the timeslock from each tokenomic rules.\r\n */\r\ncontract WVWDistribution is Ownable {\r\n    IERC20 private token;\r\n    uint256 private startDateDistribution;\r\n    bool private tokenConfigured;\r\n\r\n    uint256 private constant oneDay = 1 days;\r\n    uint256 private constant oneMonth = 30 days;\r\n    uint256 private constant sixMonths = 180 days;\r\n\r\n    address private walletTeam;\r\n    address private walletPartners;\r\n    address private walletGiveways;\r\n    address private walletLiquidityExchange;\r\n    address private walletLaunch;\r\n    address private walletStake;\r\n    address private walletFounder;\r\n\r\n    struct DistributionItem {\r\n        address wallet;\r\n        uint256 lastClaim;\r\n        uint256 totalAmount;\r\n        uint256 timeLock;\r\n        uint256 amountPerClaim;\r\n        uint256 claimed;\r\n    }\r\n\r\n    DistributionItem[] distributions;\r\n\r\n    constructor(\r\n        address _owner,\r\n        address _walletTeam,\r\n        address _walletPartners,\r\n        address _walletGiveways,\r\n        address _walletLiquidityExchange,\r\n        address _walletLaunch,\r\n        address _walletStake,\r\n        address _walletFounder\r\n    ) {\r\n        startDateDistribution = block.timestamp;\r\n        tokenConfigured = false;\r\n\r\n        walletTeam = _walletTeam;\r\n        walletPartners = _walletPartners;\r\n        walletGiveways = _walletGiveways;\r\n        walletLiquidityExchange = _walletLiquidityExchange;\r\n        walletLaunch = _walletLaunch;\r\n        walletStake = _walletStake;\r\n        walletFounder = _walletFounder;\r\n\r\n        configureTimeLocks();\r\n\r\n        // Transfer ownership if sender is not the _owner\r\n        if (msg.sender != _owner) {\r\n            transferOwnership(_owner);\r\n        }\r\n    }\r\n\r\n    function configureTokenAddress(address _token) public onlyOwner {\r\n        // We need to configure token after token was created, but token needs Distribution contract.\r\n        require(!tokenConfigured);\r\n        token = IERC20(_token);\r\n        tokenConfigured = true;\r\n\r\n        sendPredefinedTokens(walletLaunch);\r\n    }\r\n\r\n    function configureTimeLocks() private {\r\n        \r\n        // Wallet Founder will get all tokens after 24 hours\r\n        distributions.push(\r\n            DistributionItem(\r\n                walletFounder,\r\n                startDateDistribution,\r\n                10000000 * 10**18,\r\n                oneDay,\r\n                10000000 * 10**18,\r\n                0\r\n            )\r\n        );\r\n        // Wallet Team will gonna claim each month 500000 tokens until it gets 10000000\r\n        distributions.push(\r\n            DistributionItem(\r\n                walletTeam,\r\n                startDateDistribution,\r\n                10000000 * 10**18,\r\n                oneMonth,\r\n                500000 * 10**18,\r\n                0\r\n            )\r\n        );\r\n        // Wallet Partners will gonna claim each month 500000 tokens until it gets 10000000\r\n        distributions.push(\r\n            DistributionItem(\r\n                walletPartners,\r\n                startDateDistribution,\r\n                10000000 * 10**18,\r\n                oneMonth,\r\n                500000 * 10**18,\r\n                0\r\n            )\r\n        );\r\n        // Wallet Giveways will gonna claim each month 500000 tokens until it gets 10000000\r\n        distributions.push(\r\n            DistributionItem(\r\n                walletGiveways,\r\n                startDateDistribution,\r\n                10000000 * 10**18,\r\n                oneMonth,\r\n                500000 * 10**18,\r\n                0\r\n            )\r\n        );\r\n\r\n        // Wallet Stake will gonna claim each month 500000 tokens until it gets 10000000\r\n        distributions.push(\r\n            DistributionItem(\r\n                walletStake,\r\n                startDateDistribution,\r\n                10000000 * 10**18,\r\n                oneMonth,\r\n                500000 * 10**18,\r\n                0\r\n            )\r\n        );\r\n\r\n        // Wallet Liquidity Exchange will gonna claim each six month 5000000 tokens until it gets 20000000\r\n        distributions.push(\r\n            DistributionItem(\r\n                walletLiquidityExchange,\r\n                startDateDistribution,\r\n                20000000 * 10**18,\r\n                sixMonths,\r\n                5000000 * 10**18,\r\n                0\r\n            )\r\n        );\r\n    }\r\n\r\n    function sendPredefinedTokens(\r\n        address _walletLaunch\r\n    ) private {\r\n        require(\r\n            token.transfer(_walletLaunch, 30000000 * 10**18),\r\n            \"Error to send initial tokens to WalletLaunch\"\r\n        );\r\n    }\r\n\r\n    function verifyTimeLock() external view returns (bool availableClaim) {\r\n        for (uint256 i = 0; i < distributions.length; i++) {\r\n            if (\r\n                (distributions[i].claimed < distributions[i].totalAmount) &&\r\n                (block.timestamp >=\r\n                    distributions[i].lastClaim + distributions[i].timeLock)\r\n            ) {\r\n                return true;\r\n            }\r\n        }\r\n    }\r\n\r\n    function claim() external onlyOwner {\r\n        for (uint256 i = 0; i < distributions.length; i++) {\r\n            if (\r\n                block.timestamp >=\r\n                distributions[i].lastClaim + distributions[i].timeLock\r\n            ) {\r\n                if (distributions[i].claimed < distributions[i].totalAmount) {\r\n                    distributions[i].claimed += distributions[i].amountPerClaim;\r\n                    distributions[i].lastClaim = block.timestamp;\r\n                    require(\r\n                        token.transfer(\r\n                            distributions[i].wallet,\r\n                            distributions[i].amountPerClaim\r\n                        ),\r\n                        \"error to send tokens to Wallet\"\r\n                    );\r\n                }\r\n            }\r\n        }\r\n    }\r\n\r\n    function getTimelocks()\r\n        external\r\n        view\r\n        returns (DistributionItem[] memory _timelocks)\r\n    {\r\n        return distributions;\r\n    }\r\n}\r\n",
  "sourcePath": "C:\\lucas_blockchain\\freela\\YF_CONSULTORIA\\wvw\\Truffle\\contracts\\WVWDistribution.sol",
  "compiler": {
    "name": "solc",
    "version": "0.8.17+commit.8df45f5f.Emscripten.clang"
  },
  "schemaVersion": "3.4.11",
  "updatedAt": "2023-03-01T17:38:01.538Z",
  "networkType": "ethereum",
  "devdoc": {
    "kind": "dev",
    "methods": {
      "owner()": {
        "details": "Returns the address of the current owner."
      },
      "renounceOwnership()": {
        "details": "Leaves the contract without owner. It will not be possible to call `onlyOwner` functions anymore. Can only be called by the current owner. NOTE: Renouncing ownership will leave the contract without an owner, thereby removing any functionality that is only available to the owner."
      },
      "transferOwnership(address)": {
        "details": "Transfers ownership of the contract to a new account (`newOwner`). Can only be called by the current owner."
      }
    },
    "version": 1
  },
  "userdoc": {
    "kind": "user",
    "methods": {},
    "notice": "This contracts will gona control all token supply of WVW, and it guarantees that anything will going to be different from WVW Tokenomics. Onwer can't even change wallets if he wants to. Claims are gonna be locked until it gets the timeslock from each tokenomic rules.",
    "version": 1
  }
}