{
  "contractName": "WVWPreSale",
  "abi": [
    {
      "inputs": [
        {
          "internalType": "address",
          "name": "_token",
          "type": "address"
        },
        {
          "internalType": "address",
          "name": "_owner",
          "type": "address"
        },
        {
          "internalType": "uint256",
          "name": "_tokenPrice",
          "type": "uint256"
        },
        {
          "internalType": "address",
          "name": "_walletPreSale",
          "type": "address"
        },
        {
          "internalType": "address",
          "name": "_walletTeam",
          "type": "address"
        },
        {
          "internalType": "address",
          "name": "_walletLiquidityExchange",
          "type": "address"
        },
        {
          "internalType": "uint256",
          "name": "_maxSpend",
          "type": "uint256"
        },
        {
          "internalType": "uint256",
          "name": "_minSpend",
          "type": "uint256"
        }
      ],
      "stateMutability": "nonpayable",
      "type": "constructor"
    },
    {
      "anonymous": false,
      "inputs": [
        {
          "indexed": false,
          "internalType": "address",
          "name": "account",
          "type": "address"
        }
      ],
      "name": "Paused",
      "type": "event"
    },
    {
      "anonymous": false,
      "inputs": [
        {
          "indexed": true,
          "internalType": "bytes32",
          "name": "role",
          "type": "bytes32"
        },
        {
          "indexed": true,
          "internalType": "bytes32",
          "name": "previousAdminRole",
          "type": "bytes32"
        },
        {
          "indexed": true,
          "internalType": "bytes32",
          "name": "newAdminRole",
          "type": "bytes32"
        }
      ],
      "name": "RoleAdminChanged",
      "type": "event"
    },
    {
      "anonymous": false,
      "inputs": [
        {
          "indexed": true,
          "internalType": "bytes32",
          "name": "role",
          "type": "bytes32"
        },
        {
          "indexed": true,
          "internalType": "address",
          "name": "account",
          "type": "address"
        },
        {
          "indexed": true,
          "internalType": "address",
          "name": "sender",
          "type": "address"
        }
      ],
      "name": "RoleGranted",
      "type": "event"
    },
    {
      "anonymous": false,
      "inputs": [
        {
          "indexed": true,
          "internalType": "bytes32",
          "name": "role",
          "type": "bytes32"
        },
        {
          "indexed": true,
          "internalType": "address",
          "name": "account",
          "type": "address"
        },
        {
          "indexed": true,
          "internalType": "address",
          "name": "sender",
          "type": "address"
        }
      ],
      "name": "RoleRevoked",
      "type": "event"
    },
    {
      "anonymous": false,
      "inputs": [
        {
          "indexed": false,
          "internalType": "address",
          "name": "account",
          "type": "address"
        }
      ],
      "name": "Unpaused",
      "type": "event"
    },
    {
      "inputs": [],
      "name": "DEFAULT_ADMIN_ROLE",
      "outputs": [
        {
          "internalType": "bytes32",
          "name": "",
          "type": "bytes32"
        }
      ],
      "stateMutability": "view",
      "type": "function",
      "constant": true
    },
    {
      "inputs": [
        {
          "internalType": "bytes32",
          "name": "role",
          "type": "bytes32"
        }
      ],
      "name": "getRoleAdmin",
      "outputs": [
        {
          "internalType": "bytes32",
          "name": "",
          "type": "bytes32"
        }
      ],
      "stateMutability": "view",
      "type": "function",
      "constant": true
    },
    {
      "inputs": [
        {
          "internalType": "bytes32",
          "name": "role",
          "type": "bytes32"
        },
        {
          "internalType": "address",
          "name": "account",
          "type": "address"
        }
      ],
      "name": "grantRole",
      "outputs": [],
      "stateMutability": "nonpayable",
      "type": "function"
    },
    {
      "inputs": [
        {
          "internalType": "bytes32",
          "name": "role",
          "type": "bytes32"
        },
        {
          "internalType": "address",
          "name": "account",
          "type": "address"
        }
      ],
      "name": "hasRole",
      "outputs": [
        {
          "internalType": "bool",
          "name": "",
          "type": "bool"
        }
      ],
      "stateMutability": "view",
      "type": "function",
      "constant": true
    },
    {
      "inputs": [],
      "name": "paused",
      "outputs": [
        {
          "internalType": "bool",
          "name": "",
          "type": "bool"
        }
      ],
      "stateMutability": "view",
      "type": "function",
      "constant": true
    },
    {
      "inputs": [
        {
          "internalType": "bytes32",
          "name": "role",
          "type": "bytes32"
        },
        {
          "internalType": "address",
          "name": "account",
          "type": "address"
        }
      ],
      "name": "renounceRole",
      "outputs": [],
      "stateMutability": "nonpayable",
      "type": "function"
    },
    {
      "inputs": [
        {
          "internalType": "bytes32",
          "name": "role",
          "type": "bytes32"
        },
        {
          "internalType": "address",
          "name": "account",
          "type": "address"
        }
      ],
      "name": "revokeRole",
      "outputs": [],
      "stateMutability": "nonpayable",
      "type": "function"
    },
    {
      "inputs": [
        {
          "internalType": "bytes4",
          "name": "interfaceId",
          "type": "bytes4"
        }
      ],
      "name": "supportsInterface",
      "outputs": [
        {
          "internalType": "bool",
          "name": "",
          "type": "bool"
        }
      ],
      "stateMutability": "view",
      "type": "function",
      "constant": true
    },
    {
      "inputs": [],
      "name": "pause",
      "outputs": [],
      "stateMutability": "nonpayable",
      "type": "function"
    },
    {
      "inputs": [],
      "name": "unpause",
      "outputs": [],
      "stateMutability": "nonpayable",
      "type": "function"
    },
    {
      "inputs": [
        {
          "internalType": "uint256",
          "name": "_newPrice",
          "type": "uint256"
        }
      ],
      "name": "setTokenPrice",
      "outputs": [],
      "stateMutability": "nonpayable",
      "type": "function"
    },
    {
      "inputs": [
        {
          "internalType": "uint256",
          "name": "_tokenAmount",
          "type": "uint256"
        }
      ],
      "name": "buyTokens",
      "outputs": [],
      "stateMutability": "payable",
      "type": "function",
      "payable": true
    },
    {
      "inputs": [],
      "name": "getTokenPrice",
      "outputs": [
        {
          "internalType": "uint256",
          "name": "_tokenPrice",
          "type": "uint256"
        }
      ],
      "stateMutability": "view",
      "type": "function",
      "constant": true
    },
    {
      "inputs": [
        {
          "internalType": "address",
          "name": "_address",
          "type": "address"
        }
      ],
      "name": "getSpentValue",
      "outputs": [
        {
          "internalType": "uint256",
          "name": "_spentValue",
          "type": "uint256"
        }
      ],
      "stateMutability": "view",
      "type": "function",
      "constant": true
    },
    {
      "inputs": [],
      "name": "getMinWei",
      "outputs": [
        {
          "internalType": "uint256",
          "name": "_minValue",
          "type": "uint256"
        }
      ],
      "stateMutability": "view",
      "type": "function",
      "constant": true
    },
    {
      "inputs": [],
      "name": "getMaxWei",
      "outputs": [
        {
          "internalType": "uint256",
          "name": "_maxValue",
          "type": "uint256"
        }
      ],
      "stateMutability": "view",
      "type": "function",
      "constant": true
    }
  ],
  "bytecode": "0x60806040523480156200001157600080fd5b50604051620027763803806200277683398181016040528101906200003791906200039e565b6000600160006101000a81548160ff02191690831515021790555060016002819055506200006f6000801b886200019660201b60201c565b87600360006101000a81548173ffffffffffffffffffffffffffffffffffffffff021916908373ffffffffffffffffffffffffffffffffffffffff16021790555084600560006101000a81548173ffffffffffffffffffffffffffffffffffffffff021916908373ffffffffffffffffffffffffffffffffffffffff1602179055508560048190555083600660006101000a81548173ffffffffffffffffffffffffffffffffffffffff021916908373ffffffffffffffffffffffffffffffffffffffff16021790555082600760006101000a81548173ffffffffffffffffffffffffffffffffffffffff021916908373ffffffffffffffffffffffffffffffffffffffff1602179055508160088190555080600981905550505050505050505062000467565b620001a882826200028760201b60201c565b6200028357600160008084815260200190815260200160002060000160008373ffffffffffffffffffffffffffffffffffffffff1673ffffffffffffffffffffffffffffffffffffffff16815260200190815260200160002060006101000a81548160ff02191690831515021790555062000228620002f160201b60201c565b73ffffffffffffffffffffffffffffffffffffffff168173ffffffffffffffffffffffffffffffffffffffff16837f2f8788117e7eff1d82e926ec794901d17c78024a50270940304540a733656f0d60405160405180910390a45b5050565b600080600084815260200190815260200160002060000160008373ffffffffffffffffffffffffffffffffffffffff1673ffffffffffffffffffffffffffffffffffffffff16815260200190815260200160002060009054906101000a900460ff16905092915050565b600033905090565b600080fd5b600073ffffffffffffffffffffffffffffffffffffffff82169050919050565b60006200032b82620002fe565b9050919050565b6200033d816200031e565b81146200034957600080fd5b50565b6000815190506200035d8162000332565b92915050565b6000819050919050565b620003788162000363565b81146200038457600080fd5b50565b60008151905062000398816200036d565b92915050565b600080600080600080600080610100898b031215620003c257620003c1620002f9565b5b6000620003d28b828c016200034c565b9850506020620003e58b828c016200034c565b9750506040620003f88b828c0162000387565b96505060606200040b8b828c016200034c565b95505060806200041e8b828c016200034c565b94505060a0620004318b828c016200034c565b93505060c0620004448b828c0162000387565b92505060e0620004578b828c0162000387565b9150509295985092959890939650565b6122ff80620004776000396000f3fe6080604052600436106100f35760003560e01c80635c975abb1161008a578063a217fddf11610059578063a217fddf146102f5578063c15b210114610320578063d341fd5d1461034b578063d547741f14610388576100f3565b80635c975abb1461024d5780636a61e5fc146102785780638456cb59146102a157806391d14854146102b8576100f3565b806336568abe116100c657806336568abe146101b75780633f4ba83a146101e05780634b94f50e146101f75780635a50c04114610222576100f3565b806301ffc9a7146100f8578063248a9ca3146101355780632f2ff15d146101725780633610724e1461019b575b600080fd5b34801561010457600080fd5b5061011f600480360381019061011a919061154a565b6103b1565b60405161012c9190611592565b60405180910390f35b34801561014157600080fd5b5061015c600480360381019061015791906115e3565b61042b565b604051610169919061161f565b60405180910390f35b34801561017e57600080fd5b5061019960048036038101906101949190611698565b61044a565b005b6101b560048036038101906101b0919061170e565b61046b565b005b3480156101c357600080fd5b506101de60048036038101906101d99190611698565b610940565b005b3480156101ec57600080fd5b506101f56109c3565b005b34801561020357600080fd5b5061020c6109db565b604051610219919061174a565b60405180910390f35b34801561022e57600080fd5b506102376109e5565b604051610244919061174a565b60405180910390f35b34801561025957600080fd5b506102626109ef565b60405161026f9190611592565b60405180910390f35b34801561028457600080fd5b5061029f600480360381019061029a919061170e565b610a06565b005b3480156102ad57600080fd5b506102b6610a1e565b005b3480156102c457600080fd5b506102df60048036038101906102da9190611698565b610a36565b6040516102ec9190611592565b60405180910390f35b34801561030157600080fd5b5061030a610aa0565b604051610317919061161f565b60405180910390f35b34801561032c57600080fd5b50610335610aa7565b604051610342919061174a565b60405180910390f35b34801561035757600080fd5b50610372600480360381019061036d9190611765565b610ab1565b60405161037f919061174a565b60405180910390f35b34801561039457600080fd5b506103af60048036038101906103aa9190611698565b610afa565b005b60007f7965db0b000000000000000000000000000000000000000000000000000000007bffffffffffffffffffffffffffffffffffffffffffffffffffffffff1916827bffffffffffffffffffffffffffffffffffffffffffffffffffffffff19161480610424575061042382610b1b565b5b9050919050565b6000806000838152602001908152602001600020600101549050919050565b6104538261042b565b61045c81610b85565b6104668383610b99565b505050565b610473610c79565b61047b610cc3565b6009543410156104c0576040517f08c379a00000000000000000000000000000000000000000000000000000000081526004016104b790611815565b60405180910390fd5b60085434600a60003373ffffffffffffffffffffffffffffffffffffffff1673ffffffffffffffffffffffffffffffffffffffff1681526020019081526020016000205461050e9190611864565b111561054f576040517f08c379a00000000000000000000000000000000000000000000000000000000081526004016105469061190a565b60405180910390fd5b6000600360009054906101000a900473ffffffffffffffffffffffffffffffffffffffff1673ffffffffffffffffffffffffffffffffffffffff1663313ce5676040518163ffffffff1660e01b8152600401602060405180830381865afa1580156105be573d6000803e3d6000fd5b505050506040513d601f19601f820116820180604052508101906105e29190611963565b600a6105ee9190611ac3565b826105f99190611b0e565b905080600360009054906101000a900473ffffffffffffffffffffffffffffffffffffffff1673ffffffffffffffffffffffffffffffffffffffff166370a08231600560009054906101000a900473ffffffffffffffffffffffffffffffffffffffff166040518263ffffffff1660e01b81526004016106799190611b5f565b602060405180830381865afa158015610696573d6000803e3d6000fd5b505050506040513d601f19601f820116820180604052508101906106ba9190611b8f565b116106fa576040517f08c379a00000000000000000000000000000000000000000000000000000000081526004016106f190611c08565b60405180910390fd5b60008061071260045485610d1090919063ffffffff16565b9150915081610756576040517f08c379a000000000000000000000000000000000000000000000000000000000815260040161074d90611c74565b60405180910390fd5b348114610798576040517f08c379a000000000000000000000000000000000000000000000000000000000815260040161078f90611d06565b60405180910390fd5b34600a60003373ffffffffffffffffffffffffffffffffffffffff1673ffffffffffffffffffffffffffffffffffffffff168152602001908152602001600020546107e39190611864565b600a60003373ffffffffffffffffffffffffffffffffffffffff1673ffffffffffffffffffffffffffffffffffffffff1681526020019081526020016000208190555061082f34610d63565b600360009054906101000a900473ffffffffffffffffffffffffffffffffffffffff1673ffffffffffffffffffffffffffffffffffffffff166323b872dd600560009054906101000a900473ffffffffffffffffffffffffffffffffffffffff1633866040518463ffffffff1660e01b81526004016108b093929190611d26565b6020604051808303816000875af11580156108cf573d6000803e3d6000fd5b505050506040513d601f19601f820116820180604052508101906108f39190611d89565b610932576040517f08c379a000000000000000000000000000000000000000000000000000000000815260040161092990611e02565b60405180910390fd5b50505061093d610d78565b50565b610948610d82565b73ffffffffffffffffffffffffffffffffffffffff168173ffffffffffffffffffffffffffffffffffffffff16146109b5576040517f08c379a00000000000000000000000000000000000000000000000000000000081526004016109ac90611e94565b60405180910390fd5b6109bf8282610d8a565b5050565b6000801b6109d081610b85565b6109d8610e6b565b50565b6000600454905090565b6000600954905090565b6000600160009054906101000a900460ff16905090565b6000801b610a1381610b85565b816004819055505050565b6000801b610a2b81610b85565b610a33610ece565b50565b600080600084815260200190815260200160002060000160008373ffffffffffffffffffffffffffffffffffffffff1673ffffffffffffffffffffffffffffffffffffffff16815260200190815260200160002060009054906101000a900460ff16905092915050565b6000801b81565b6000600854905090565b6000600a60008373ffffffffffffffffffffffffffffffffffffffff1673ffffffffffffffffffffffffffffffffffffffff168152602001908152602001600020549050919050565b610b038261042b565b610b0c81610b85565b610b168383610d8a565b505050565b60007f01ffc9a7000000000000000000000000000000000000000000000000000000007bffffffffffffffffffffffffffffffffffffffffffffffffffffffff1916827bffffffffffffffffffffffffffffffffffffffffffffffffffffffff1916149050919050565b610b9681610b91610d82565b610f30565b50565b610ba38282610a36565b610c7557600160008084815260200190815260200160002060000160008373ffffffffffffffffffffffffffffffffffffffff1673ffffffffffffffffffffffffffffffffffffffff16815260200190815260200160002060006101000a81548160ff021916908315150217905550610c1a610d82565b73ffffffffffffffffffffffffffffffffffffffff168173ffffffffffffffffffffffffffffffffffffffff16837f2f8788117e7eff1d82e926ec794901d17c78024a50270940304540a733656f0d60405160405180910390a45b5050565b610c816109ef565b15610cc1576040517f08c379a0000000000000000000000000000000000000000000000000000000008152600401610cb890611f00565b60405180910390fd5b565b6002805403610d07576040517f08c379a0000000000000000000000000000000000000000000000000000000008152600401610cfe90611f6c565b60405180910390fd5b60028081905550565b60008060008403610d28576001600091509150610d5c565b6000838502905083858281610d4057610d3f611f8c565b5b0414610d53576000809250925050610d5c565b60018192509250505b9250929050565b610d6c81610fb5565b610d75816110dd565b50565b6001600281905550565b600033905090565b610d948282610a36565b15610e6757600080600084815260200190815260200160002060000160008373ffffffffffffffffffffffffffffffffffffffff1673ffffffffffffffffffffffffffffffffffffffff16815260200190815260200160002060006101000a81548160ff021916908315150217905550610e0c610d82565b73ffffffffffffffffffffffffffffffffffffffff168173ffffffffffffffffffffffffffffffffffffffff16837ff6391f5c32d9c69d2a47ea670b442974b53935d1edc7fd64eb21e047a839171b60405160405180910390a45b5050565b610e73611205565b6000600160006101000a81548160ff0219169083151502179055507f5db9ee0a495bf2e6ff9c91a7834c1ba4fdd244a5e8aa4e537bd38aeae4b073aa610eb7610d82565b604051610ec49190611b5f565b60405180910390a1565b610ed6610c79565b60018060006101000a81548160ff0219169083151502179055507f62e78cea01bee320cd4e420270b5ea74000d11b0c9f74754ebdbfc544b05a258610f19610d82565b604051610f269190611b5f565b60405180910390a1565b610f3a8282610a36565b610fb157610f478161124e565b610f558360001c602061127b565b604051602001610f669291906120c4565b6040516020818303038152906040526040517f08c379a0000000000000000000000000000000000000000000000000000000008152600401610fa89190612148565b60405180910390fd5b5050565b600080610fcd610bb884610d1090919063ffffffff16565b9150915081611011576040517f08c379a000000000000000000000000000000000000000000000000000000000815260040161100890611c74565b60405180910390fd5b600080611029612710846114b790919063ffffffff16565b915091508161106d576040517f08c379a000000000000000000000000000000000000000000000000000000000815260040161106490611c74565b60405180910390fd5b600660009054906101000a900473ffffffffffffffffffffffffffffffffffffffff1673ffffffffffffffffffffffffffffffffffffffff166108fc829081150290604051600060405180830381858888f193505050501580156110d5573d6000803e3d6000fd5b505050505050565b6000806110f5611b5884610d1090919063ffffffff16565b9150915081611139576040517f08c379a000000000000000000000000000000000000000000000000000000000815260040161113090611c74565b60405180910390fd5b600080611151612710846114b790919063ffffffff16565b9150915081611195576040517f08c379a000000000000000000000000000000000000000000000000000000000815260040161118c90611c74565b60405180910390fd5b600760009054906101000a900473ffffffffffffffffffffffffffffffffffffffff1673ffffffffffffffffffffffffffffffffffffffff166108fc829081150290604051600060405180830381858888f193505050501580156111fd573d6000803e3d6000fd5b505050505050565b61120d6109ef565b61124c576040517f08c379a0000000000000000000000000000000000000000000000000000000008152600401611243906121b6565b60405180910390fd5b565b60606112748273ffffffffffffffffffffffffffffffffffffffff16601460ff1661127b565b9050919050565b60606000600283600261128e9190611b0e565b6112989190611864565b67ffffffffffffffff8111156112b1576112b06121d6565b5b6040519080825280601f01601f1916602001820160405280156112e35781602001600182028036833780820191505090505b5090507f30000000000000000000000000000000000000000000000000000000000000008160008151811061131b5761131a612205565b5b60200101907effffffffffffffffffffffffffffffffffffffffffffffffffffffffffffff1916908160001a9053507f78000000000000000000000000000000000000000000000000000000000000008160018151811061137f5761137e612205565b5b60200101907effffffffffffffffffffffffffffffffffffffffffffffffffffffffffffff1916908160001a905350600060018460026113bf9190611b0e565b6113c99190611864565b90505b6001811115611469577f3031323334353637383961626364656600000000000000000000000000000000600f86166010811061140b5761140a612205565b5b1a60f81b82828151811061142257611421612205565b5b60200101907effffffffffffffffffffffffffffffffffffffffffffffffffffffffffffff1916908160001a905350600485901c94508061146290612234565b90506113cc565b50600084146114ad576040517f08c379a00000000000000000000000000000000000000000000000000000000081526004016114a4906122a9565b60405180910390fd5b8091505092915050565b600080600083036114ce57600080915091506114e6565b60018385816114e0576114df611f8c565b5b04915091505b9250929050565b600080fd5b60007fffffffff0000000000000000000000000000000000000000000000000000000082169050919050565b611527816114f2565b811461153257600080fd5b50565b6000813590506115448161151e565b92915050565b6000602082840312156115605761155f6114ed565b5b600061156e84828501611535565b91505092915050565b60008115159050919050565b61158c81611577565b82525050565b60006020820190506115a76000830184611583565b92915050565b6000819050919050565b6115c0816115ad565b81146115cb57600080fd5b50565b6000813590506115dd816115b7565b92915050565b6000602082840312156115f9576115f86114ed565b5b6000611607848285016115ce565b91505092915050565b611619816115ad565b82525050565b60006020820190506116346000830184611610565b92915050565b600073ffffffffffffffffffffffffffffffffffffffff82169050919050565b60006116658261163a565b9050919050565b6116758161165a565b811461168057600080fd5b50565b6000813590506116928161166c565b92915050565b600080604083850312156116af576116ae6114ed565b5b60006116bd858286016115ce565b92505060206116ce85828601611683565b9150509250929050565b6000819050919050565b6116eb816116d8565b81146116f657600080fd5b50565b600081359050611708816116e2565b92915050565b600060208284031215611724576117236114ed565b5b6000611732848285016116f9565b91505092915050565b611744816116d8565b82525050565b600060208201905061175f600083018461173b565b92915050565b60006020828403121561177b5761177a6114ed565b5b600061178984828501611683565b91505092915050565b600082825260208201905092915050565b7f54686572652069732061206d696e696d756d20726571756972656420746f206260008201527f757920746f6b656e732e00000000000000000000000000000000000000000000602082015250565b60006117ff602a83611792565b915061180a826117a3565b604082019050919050565b6000602082019050818103600083015261182e816117f2565b9050919050565b7f4e487b7100000000000000000000000000000000000000000000000000000000600052601160045260246000fd5b600061186f826116d8565b915061187a836116d8565b925082820190508082111561189257611891611835565b5b92915050565b7f546869732077616c6c657420616c726561647920626f7567687420746865206d60008201527f6178696d756d20746f6b656e7320616c6c6f7765642e00000000000000000000602082015250565b60006118f4603683611792565b91506118ff82611898565b604082019050919050565b60006020820190508181036000830152611923816118e7565b9050919050565b600060ff82169050919050565b6119408161192a565b811461194b57600080fd5b50565b60008151905061195d81611937565b92915050565b600060208284031215611979576119786114ed565b5b60006119878482850161194e565b91505092915050565b60008160011c9050919050565b6000808291508390505b60018511156119e7578086048111156119c3576119c2611835565b5b60018516156119d25780820291505b80810290506119e085611990565b94506119a7565b94509492505050565b600082611a005760019050611abc565b81611a0e5760009050611abc565b8160018114611a245760028114611a2e57611a5d565b6001915050611abc565b60ff841115611a4057611a3f611835565b5b8360020a915084821115611a5757611a56611835565b5b50611abc565b5060208310610133831016604e8410600b8410161715611a925782820a905083811115611a8d57611a8c611835565b5b611abc565b611a9f848484600161199d565b92509050818404811115611ab657611ab5611835565b5b81810290505b9392505050565b6000611ace826116d8565b9150611ad98361192a565b9250611b067fffffffffffffffffffffffffffffffffffffffffffffffffffffffffffffffff84846119f0565b905092915050565b6000611b19826116d8565b9150611b24836116d8565b9250828202611b32816116d8565b91508282048414831517611b4957611b48611835565b5b5092915050565b611b598161165a565b82525050565b6000602082019050611b746000830184611b50565b92915050565b600081519050611b89816116e2565b92915050565b600060208284031215611ba557611ba46114ed565b5b6000611bb384828501611b7a565b91505092915050565b7f4f7574206f662073746f636b2e00000000000000000000000000000000000000600082015250565b6000611bf2600d83611792565b9150611bfd82611bbc565b602082019050919050565b60006020820190508181036000830152611c2181611be5565b9050919050565b7f50726f626c656d20776974682073616665206d6174682e000000000000000000600082015250565b6000611c5e601783611792565b9150611c6982611c28565b602082019050919050565b60006020820190508181036000830152611c8d81611c51565b9050919050565b7f596f75206861766520746f2073656e642065786163746c79207468652070726960008201527f636520746f206275792074686520746f6b656e732e0000000000000000000000602082015250565b6000611cf0603583611792565b9150611cfb82611c94565b604082019050919050565b60006020820190508181036000830152611d1f81611ce3565b9050919050565b6000606082019050611d3b6000830186611b50565b611d486020830185611b50565b611d55604083018461173b565b949350505050565b611d6681611577565b8114611d7157600080fd5b50565b600081519050611d8381611d5d565b92915050565b600060208284031215611d9f57611d9e6114ed565b5b6000611dad84828501611d74565b91505092915050565b7f4572726f7220746f2073656e6420746f6b656e73000000000000000000000000600082015250565b6000611dec601483611792565b9150611df782611db6565b602082019050919050565b60006020820190508181036000830152611e1b81611ddf565b9050919050565b7f416363657373436f6e74726f6c3a2063616e206f6e6c792072656e6f756e636560008201527f20726f6c657320666f722073656c660000000000000000000000000000000000602082015250565b6000611e7e602f83611792565b9150611e8982611e22565b604082019050919050565b60006020820190508181036000830152611ead81611e71565b9050919050565b7f5061757361626c653a2070617573656400000000000000000000000000000000600082015250565b6000611eea601083611792565b9150611ef582611eb4565b602082019050919050565b60006020820190508181036000830152611f1981611edd565b9050919050565b7f5265656e7472616e637947756172643a207265656e7472616e742063616c6c00600082015250565b6000611f56601f83611792565b9150611f6182611f20565b602082019050919050565b60006020820190508181036000830152611f8581611f49565b9050919050565b7f4e487b7100000000000000000000000000000000000000000000000000000000600052601260045260246000fd5b600081905092915050565b7f416363657373436f6e74726f6c3a206163636f756e7420000000000000000000600082015250565b6000611ffc601783611fbb565b915061200782611fc6565b601782019050919050565b600081519050919050565b60005b8381101561203b578082015181840152602081019050612020565b60008484015250505050565b600061205282612012565b61205c8185611fbb565b935061206c81856020860161201d565b80840191505092915050565b7f206973206d697373696e6720726f6c6520000000000000000000000000000000600082015250565b60006120ae601183611fbb565b91506120b982612078565b601182019050919050565b60006120cf82611fef565b91506120db8285612047565b91506120e6826120a1565b91506120f28284612047565b91508190509392505050565b6000601f19601f8301169050919050565b600061211a82612012565b6121248185611792565b935061213481856020860161201d565b61213d816120fe565b840191505092915050565b60006020820190508181036000830152612162818461210f565b905092915050565b7f5061757361626c653a206e6f7420706175736564000000000000000000000000600082015250565b60006121a0601483611792565b91506121ab8261216a565b602082019050919050565b600060208201905081810360008301526121cf81612193565b9050919050565b7f4e487b7100000000000000000000000000000000000000000000000000000000600052604160045260246000fd5b7f4e487b7100000000000000000000000000000000000000000000000000000000600052603260045260246000fd5b600061223f826116d8565b91506000820361225257612251611835565b5b600182039050919050565b7f537472696e67733a20686578206c656e67746820696e73756666696369656e74600082015250565b6000612293602083611792565b915061229e8261225d565b602082019050919050565b600060208201905081810360008301526122c281612286565b905091905056fea2646970667358221220b7e582cac605415c6469e370758ed066351c3621e54c939dbfeb4d8ce02aa54e64736f6c63430008110033",
  "immutableReferences": {},
  "source": "// SPDX-License-Identifier: MIT\r\npragma solidity ^0.8.9;\r\n\r\nimport \"@openzeppelin/contracts/access/AccessControl.sol\";\r\nimport \"@openzeppelin/contracts/token/ERC20/IERC20.sol\";\r\nimport \"@openzeppelin/contracts/utils/math/SafeMath.sol\";\r\nimport \"@openzeppelin/contracts/security/Pausable.sol\";\r\nimport \"@openzeppelin/contracts/security/ReentrancyGuard.sol\";\r\n\r\nimport \"./interfaces/IERC20WVW.sol\";\r\n\r\ncontract WVWPreSale is AccessControl, Pausable, ReentrancyGuard {\r\n    using SafeMath for uint256;\r\n    IERC20WVW private token;\r\n    \r\n    uint256 private tokenPrice;\r\n    address private walletPreSale;\r\n    address private walletTeam;\r\n    address private walletLiquidityExchange;\r\n    uint256 private maxSpend;\r\n    uint256 private minSpend;\r\n\r\n    mapping(address => uint256) usersMaxSpend;\r\n\r\n\r\n    constructor(\r\n        address _token,\r\n        address _owner,\r\n        uint256 _tokenPrice,\r\n        address _walletPreSale,\r\n        address _walletTeam,\r\n        address _walletLiquidityExchange,\r\n        uint256 _maxSpend,\r\n        uint256 _minSpend\r\n    ) {\r\n        _grantRole(DEFAULT_ADMIN_ROLE, _owner);\r\n        token = IERC20WVW(_token);\r\n        walletPreSale = _walletPreSale;\r\n        tokenPrice = _tokenPrice;\r\n        walletTeam = _walletTeam;\r\n        walletLiquidityExchange = _walletLiquidityExchange;\r\n        maxSpend = _maxSpend;\r\n        minSpend = _minSpend;\r\n    }\r\n\r\n    function pause() public onlyRole(DEFAULT_ADMIN_ROLE) {\r\n        _pause();\r\n    }\r\n\r\n    function unpause() public onlyRole(DEFAULT_ADMIN_ROLE) {\r\n        _unpause();\r\n    }\r\n\r\n    function setTokenPrice(uint256 _newPrice)\r\n        public\r\n        onlyRole(DEFAULT_ADMIN_ROLE)\r\n    {\r\n        tokenPrice = _newPrice;\r\n    }\r\n\r\n    function buyTokens(uint256 _tokenAmount)\r\n        public\r\n        payable\r\n        whenNotPaused\r\n        nonReentrant\r\n    {\r\n        require(\r\n            msg.value >= minSpend,\r\n            \"There is a minimum required to buy tokens.\"\r\n        );\r\n        require(\r\n            (usersMaxSpend[msg.sender] + msg.value) <= maxSpend,\r\n            \"This wallet already bought the maximum tokens allowed.\"\r\n        );\r\n        uint256 formatToken = _tokenAmount * 10**token.decimals();\r\n        require(token.balanceOf(walletPreSale) > formatToken, \"Out of stock.\");\r\n        (bool safeMath, uint256 result) = _tokenAmount.tryMul(tokenPrice);\r\n        require(safeMath, \"Problem with safe math.\");\r\n        require(\r\n            result == msg.value,\r\n            \"You have to send exactly the price to buy the tokens.\"\r\n        );\r\n        usersMaxSpend[msg.sender] = usersMaxSpend[msg.sender] + msg.value;\r\n        paymentRulesWallets(msg.value);\r\n        require(token.transferFrom(walletPreSale, msg.sender, formatToken), \"Error to send tokens\");\r\n    }\r\n\r\n    function paymentRulesWallets(uint256 _value) private {\r\n        sendMoneyToWalletTeam(_value);\r\n        sendMoneyToWalletLiquidityExchange(_value);\r\n    }   \r\n\r\n    function sendMoneyToWalletTeam(uint256 value) private {\r\n        // Send 30% to Team Wallet\r\n        (bool multSuccess, uint256 multResult) = value.tryMul(3000);\r\n        require(multSuccess, \"Problem with safe math.\");\r\n        (bool divSuccess, uint256 divResult) = multResult.tryDiv(10_000);\r\n        require(divSuccess, \"Problem with safe math.\");\r\n\r\n        payable(walletTeam).transfer(divResult);\r\n    }\r\n\r\n    function sendMoneyToWalletLiquidityExchange(uint256 value) private {\r\n        // Send 70% to Liquidity Wallet\r\n        (bool multSuccess, uint256 multResult) = value.tryMul(7000);\r\n        require(multSuccess, \"Problem with safe math.\");\r\n        (bool divSuccess, uint256 divResult) = multResult.tryDiv(10_000);\r\n        require(divSuccess, \"Problem with safe math.\");\r\n\r\n        payable(walletLiquidityExchange).transfer(divResult);\r\n    }\r\n\r\n    function getTokenPrice() public view returns (uint256 _tokenPrice) {\r\n        return tokenPrice;\r\n    }\r\n\r\n    function getSpentValue(address _address)\r\n        public\r\n        view\r\n        returns (uint256 _spentValue)\r\n    {\r\n        return usersMaxSpend[_address];\r\n    }\r\n\r\n    function getMinWei()\r\n        public\r\n        view\r\n        returns (uint256 _minValue)\r\n    {\r\n        return minSpend;\r\n    }\r\n\r\n    function getMaxWei()\r\n        public\r\n        view\r\n        returns (uint256 _maxValue)\r\n    {\r\n        return maxSpend;\r\n    }\r\n    \r\n}\r\n",
  "sourcePath": "C:\\lucas_blockchain\\freela\\YF_CONSULTORIA\\wvw\\Truffle\\contracts\\WVWPreSale.sol",
  "compiler": {
    "name": "solc",
    "version": "0.8.17+commit.8df45f5f.Emscripten.clang"
  },
  "schemaVersion": "3.4.11",
  "updatedAt": "2023-03-01T17:39:39.982Z",
  "networkType": "ethereum",
  "devdoc": {
    "kind": "dev",
    "methods": {
      "getRoleAdmin(bytes32)": {
        "details": "Returns the admin role that controls `role`. See {grantRole} and {revokeRole}. To change a role's admin, use {_setRoleAdmin}."
      },
      "grantRole(bytes32,address)": {
        "details": "Grants `role` to `account`. If `account` had not been already granted `role`, emits a {RoleGranted} event. Requirements: - the caller must have ``role``'s admin role. May emit a {RoleGranted} event."
      },
      "hasRole(bytes32,address)": {
        "details": "Returns `true` if `account` has been granted `role`."
      },
      "paused()": {
        "details": "Returns true if the contract is paused, and false otherwise."
      },
      "renounceRole(bytes32,address)": {
        "details": "Revokes `role` from the calling account. Roles are often managed via {grantRole} and {revokeRole}: this function's purpose is to provide a mechanism for accounts to lose their privileges if they are compromised (such as when a trusted device is misplaced). If the calling account had been revoked `role`, emits a {RoleRevoked} event. Requirements: - the caller must be `account`. May emit a {RoleRevoked} event."
      },
      "revokeRole(bytes32,address)": {
        "details": "Revokes `role` from `account`. If `account` had been granted `role`, emits a {RoleRevoked} event. Requirements: - the caller must have ``role``'s admin role. May emit a {RoleRevoked} event."
      },
      "supportsInterface(bytes4)": {
        "details": "See {IERC165-supportsInterface}."
      }
    },
    "version": 1
  },
  "userdoc": {
    "kind": "user",
    "methods": {},
    "version": 1
  }
}