{
  "contractName": "WVWTicket",
  "abi": [
    {
      "inputs": [
        {
          "internalType": "address",
          "name": "_owner",
          "type": "address"
        }
      ],
      "stateMutability": "nonpayable",
      "type": "constructor"
    },
    {
      "anonymous": false,
      "inputs": [
        {
          "indexed": true,
          "internalType": "address",
          "name": "owner",
          "type": "address"
        },
        {
          "indexed": true,
          "internalType": "address",
          "name": "approved",
          "type": "address"
        },
        {
          "indexed": true,
          "internalType": "uint256",
          "name": "tokenId",
          "type": "uint256"
        }
      ],
      "name": "Approval",
      "type": "event"
    },
    {
      "anonymous": false,
      "inputs": [
        {
          "indexed": true,
          "internalType": "address",
          "name": "owner",
          "type": "address"
        },
        {
          "indexed": true,
          "internalType": "address",
          "name": "operator",
          "type": "address"
        },
        {
          "indexed": false,
          "internalType": "bool",
          "name": "approved",
          "type": "bool"
        }
      ],
      "name": "ApprovalForAll",
      "type": "event"
    },
    {
      "anonymous": false,
      "inputs": [
        {
          "indexed": false,
          "internalType": "address",
          "name": "_owner",
          "type": "address"
        },
        {
          "indexed": false,
          "internalType": "uint256",
          "name": "_tokenId",
          "type": "uint256"
        }
      ],
      "name": "BurnToken",
      "type": "event"
    },
    {
      "anonymous": false,
      "inputs": [
        {
          "indexed": false,
          "internalType": "address",
          "name": "account",
          "type": "address"
        }
      ],
      "name": "Paused",
      "type": "event"
    },
    {
      "anonymous": false,
      "inputs": [
        {
          "indexed": true,
          "internalType": "bytes32",
          "name": "role",
          "type": "bytes32"
        },
        {
          "indexed": true,
          "internalType": "bytes32",
          "name": "previousAdminRole",
          "type": "bytes32"
        },
        {
          "indexed": true,
          "internalType": "bytes32",
          "name": "newAdminRole",
          "type": "bytes32"
        }
      ],
      "name": "RoleAdminChanged",
      "type": "event"
    },
    {
      "anonymous": false,
      "inputs": [
        {
          "indexed": true,
          "internalType": "bytes32",
          "name": "role",
          "type": "bytes32"
        },
        {
          "indexed": true,
          "internalType": "address",
          "name": "account",
          "type": "address"
        },
        {
          "indexed": true,
          "internalType": "address",
          "name": "sender",
          "type": "address"
        }
      ],
      "name": "RoleGranted",
      "type": "event"
    },
    {
      "anonymous": false,
      "inputs": [
        {
          "indexed": true,
          "internalType": "bytes32",
          "name": "role",
          "type": "bytes32"
        },
        {
          "indexed": true,
          "internalType": "address",
          "name": "account",
          "type": "address"
        },
        {
          "indexed": true,
          "internalType": "address",
          "name": "sender",
          "type": "address"
        }
      ],
      "name": "RoleRevoked",
      "type": "event"
    },
    {
      "anonymous": false,
      "inputs": [
        {
          "indexed": true,
          "internalType": "address",
          "name": "from",
          "type": "address"
        },
        {
          "indexed": true,
          "internalType": "address",
          "name": "to",
          "type": "address"
        },
        {
          "indexed": true,
          "internalType": "uint256",
          "name": "tokenId",
          "type": "uint256"
        }
      ],
      "name": "Transfer",
      "type": "event"
    },
    {
      "anonymous": false,
      "inputs": [
        {
          "indexed": false,
          "internalType": "address",
          "name": "account",
          "type": "address"
        }
      ],
      "name": "Unpaused",
      "type": "event"
    },
    {
      "inputs": [],
      "name": "DEFAULT_ADMIN_ROLE",
      "outputs": [
        {
          "internalType": "bytes32",
          "name": "",
          "type": "bytes32"
        }
      ],
      "stateMutability": "view",
      "type": "function",
      "constant": true
    },
    {
      "inputs": [],
      "name": "MINTER_ROLE",
      "outputs": [
        {
          "internalType": "bytes32",
          "name": "",
          "type": "bytes32"
        }
      ],
      "stateMutability": "view",
      "type": "function",
      "constant": true
    },
    {
      "inputs": [],
      "name": "PAUSER_ROLE",
      "outputs": [
        {
          "internalType": "bytes32",
          "name": "",
          "type": "bytes32"
        }
      ],
      "stateMutability": "view",
      "type": "function",
      "constant": true
    },
    {
      "inputs": [],
      "name": "WITHDRAW_ROLE",
      "outputs": [
        {
          "internalType": "bytes32",
          "name": "",
          "type": "bytes32"
        }
      ],
      "stateMutability": "view",
      "type": "function",
      "constant": true
    },
    {
      "inputs": [
        {
          "internalType": "address",
          "name": "to",
          "type": "address"
        },
        {
          "internalType": "uint256",
          "name": "tokenId",
          "type": "uint256"
        }
      ],
      "name": "approve",
      "outputs": [],
      "stateMutability": "nonpayable",
      "type": "function"
    },
    {
      "inputs": [
        {
          "internalType": "address",
          "name": "owner",
          "type": "address"
        }
      ],
      "name": "balanceOf",
      "outputs": [
        {
          "internalType": "uint256",
          "name": "",
          "type": "uint256"
        }
      ],
      "stateMutability": "view",
      "type": "function",
      "constant": true
    },
    {
      "inputs": [
        {
          "internalType": "uint256",
          "name": "tokenId",
          "type": "uint256"
        }
      ],
      "name": "getApproved",
      "outputs": [
        {
          "internalType": "address",
          "name": "",
          "type": "address"
        }
      ],
      "stateMutability": "view",
      "type": "function",
      "constant": true
    },
    {
      "inputs": [
        {
          "internalType": "bytes32",
          "name": "role",
          "type": "bytes32"
        }
      ],
      "name": "getRoleAdmin",
      "outputs": [
        {
          "internalType": "bytes32",
          "name": "",
          "type": "bytes32"
        }
      ],
      "stateMutability": "view",
      "type": "function",
      "constant": true
    },
    {
      "inputs": [
        {
          "internalType": "bytes32",
          "name": "role",
          "type": "bytes32"
        },
        {
          "internalType": "address",
          "name": "account",
          "type": "address"
        }
      ],
      "name": "grantRole",
      "outputs": [],
      "stateMutability": "nonpayable",
      "type": "function"
    },
    {
      "inputs": [
        {
          "internalType": "bytes32",
          "name": "role",
          "type": "bytes32"
        },
        {
          "internalType": "address",
          "name": "account",
          "type": "address"
        }
      ],
      "name": "hasRole",
      "outputs": [
        {
          "internalType": "bool",
          "name": "",
          "type": "bool"
        }
      ],
      "stateMutability": "view",
      "type": "function",
      "constant": true
    },
    {
      "inputs": [
        {
          "internalType": "address",
          "name": "owner",
          "type": "address"
        },
        {
          "internalType": "address",
          "name": "operator",
          "type": "address"
        }
      ],
      "name": "isApprovedForAll",
      "outputs": [
        {
          "internalType": "bool",
          "name": "",
          "type": "bool"
        }
      ],
      "stateMutability": "view",
      "type": "function",
      "constant": true
    },
    {
      "inputs": [],
      "name": "name",
      "outputs": [
        {
          "internalType": "string",
          "name": "",
          "type": "string"
        }
      ],
      "stateMutability": "view",
      "type": "function",
      "constant": true
    },
    {
      "inputs": [
        {
          "internalType": "uint256",
          "name": "tokenId",
          "type": "uint256"
        }
      ],
      "name": "ownerOf",
      "outputs": [
        {
          "internalType": "address",
          "name": "",
          "type": "address"
        }
      ],
      "stateMutability": "view",
      "type": "function",
      "constant": true
    },
    {
      "inputs": [],
      "name": "paused",
      "outputs": [
        {
          "internalType": "bool",
          "name": "",
          "type": "bool"
        }
      ],
      "stateMutability": "view",
      "type": "function",
      "constant": true
    },
    {
      "inputs": [
        {
          "internalType": "bytes32",
          "name": "role",
          "type": "bytes32"
        },
        {
          "internalType": "address",
          "name": "account",
          "type": "address"
        }
      ],
      "name": "renounceRole",
      "outputs": [],
      "stateMutability": "nonpayable",
      "type": "function"
    },
    {
      "inputs": [
        {
          "internalType": "bytes32",
          "name": "role",
          "type": "bytes32"
        },
        {
          "internalType": "address",
          "name": "account",
          "type": "address"
        }
      ],
      "name": "revokeRole",
      "outputs": [],
      "stateMutability": "nonpayable",
      "type": "function"
    },
    {
      "inputs": [
        {
          "internalType": "address",
          "name": "from",
          "type": "address"
        },
        {
          "internalType": "address",
          "name": "to",
          "type": "address"
        },
        {
          "internalType": "uint256",
          "name": "tokenId",
          "type": "uint256"
        }
      ],
      "name": "safeTransferFrom",
      "outputs": [],
      "stateMutability": "nonpayable",
      "type": "function"
    },
    {
      "inputs": [
        {
          "internalType": "address",
          "name": "from",
          "type": "address"
        },
        {
          "internalType": "address",
          "name": "to",
          "type": "address"
        },
        {
          "internalType": "uint256",
          "name": "tokenId",
          "type": "uint256"
        },
        {
          "internalType": "bytes",
          "name": "data",
          "type": "bytes"
        }
      ],
      "name": "safeTransferFrom",
      "outputs": [],
      "stateMutability": "nonpayable",
      "type": "function"
    },
    {
      "inputs": [
        {
          "internalType": "address",
          "name": "operator",
          "type": "address"
        },
        {
          "internalType": "bool",
          "name": "approved",
          "type": "bool"
        }
      ],
      "name": "setApprovalForAll",
      "outputs": [],
      "stateMutability": "nonpayable",
      "type": "function"
    },
    {
      "inputs": [],
      "name": "symbol",
      "outputs": [
        {
          "internalType": "string",
          "name": "",
          "type": "string"
        }
      ],
      "stateMutability": "view",
      "type": "function",
      "constant": true
    },
    {
      "inputs": [
        {
          "internalType": "address",
          "name": "from",
          "type": "address"
        },
        {
          "internalType": "address",
          "name": "to",
          "type": "address"
        },
        {
          "internalType": "uint256",
          "name": "tokenId",
          "type": "uint256"
        }
      ],
      "name": "transferFrom",
      "outputs": [],
      "stateMutability": "nonpayable",
      "type": "function"
    },
    {
      "inputs": [],
      "name": "pause",
      "outputs": [],
      "stateMutability": "nonpayable",
      "type": "function"
    },
    {
      "inputs": [],
      "name": "unpause",
      "outputs": [],
      "stateMutability": "nonpayable",
      "type": "function"
    },
    {
      "inputs": [
        {
          "internalType": "address",
          "name": "_to",
          "type": "address"
        },
        {
          "internalType": "uint8",
          "name": "_planType",
          "type": "uint8"
        }
      ],
      "name": "safeMint",
      "outputs": [],
      "stateMutability": "nonpayable",
      "type": "function"
    },
    {
      "inputs": [
        {
          "internalType": "uint256",
          "name": "_tokenId",
          "type": "uint256"
        }
      ],
      "name": "tokenURI",
      "outputs": [
        {
          "internalType": "string",
          "name": "",
          "type": "string"
        }
      ],
      "stateMutability": "view",
      "type": "function",
      "constant": true
    },
    {
      "inputs": [
        {
          "internalType": "uint256",
          "name": "_tokenId",
          "type": "uint256"
        }
      ],
      "name": "getNFTAttributes",
      "outputs": [
        {
          "components": [
            {
              "internalType": "enum WVWTicket.TicketType",
              "name": "ticketType",
              "type": "uint8"
            },
            {
              "internalType": "uint256",
              "name": "creationTime",
              "type": "uint256"
            },
            {
              "internalType": "uint256",
              "name": "withdrawTimes",
              "type": "uint256"
            }
          ],
          "internalType": "struct WVWTicket.TicketAttributes",
          "name": "_attributes",
          "type": "tuple"
        }
      ],
      "stateMutability": "view",
      "type": "function",
      "constant": true
    },
    {
      "inputs": [
        {
          "internalType": "address",
          "name": "_address",
          "type": "address"
        }
      ],
      "name": "getNFTByAddress",
      "outputs": [
        {
          "internalType": "uint256",
          "name": "_tokenId",
          "type": "uint256"
        }
      ],
      "stateMutability": "view",
      "type": "function",
      "constant": true
    },
    {
      "inputs": [
        {
          "internalType": "address",
          "name": "_address",
          "type": "address"
        }
      ],
      "name": "setWithdrawCount",
      "outputs": [],
      "stateMutability": "nonpayable",
      "type": "function"
    },
    {
      "inputs": [
        {
          "internalType": "uint256",
          "name": "_tokenId",
          "type": "uint256"
        }
      ],
      "name": "burn",
      "outputs": [],
      "stateMutability": "nonpayable",
      "type": "function"
    },
    {
      "inputs": [
        {
          "internalType": "bytes4",
          "name": "interfaceId",
          "type": "bytes4"
        }
      ],
      "name": "supportsInterface",
      "outputs": [
        {
          "internalType": "bool",
          "name": "",
          "type": "bool"
        }
      ],
      "stateMutability": "view",
      "type": "function",
      "constant": true
    }
  ],
  "bytecode": "0x60806040523480156200001157600080fd5b50604051620044b3380380620044b3833981810160405281019062000037919062000392565b6040518060400160405280600981526020017f5756575469636b657400000000000000000000000000000000000000000000008152506040518060400160405280600381526020017f57565700000000000000000000000000000000000000000000000000000000008152508160009081620000b491906200063e565b508060019081620000c691906200063e565b5050506000600660006101000a81548160ff021916908315150217905550620000f96000801b82620001ad60201b60201c565b6200012b7f65d7a28e3265b37a6474929f336521b332c1681b933f6cb9f3376673440d862a82620001ad60201b60201c565b6200015d7f9f2df0fed2c77648de5860a4cc508cd0818c85b8b8a1ab4ceeef8d981c8956a682620001ad60201b60201c565b6200018f7f5d8e12c39142ff96d79d04d15d1ba1269e4fe57bb9d26f43523628b34ba108ec82620001ad60201b60201c565b620001a660086200029f60201b620012cd1760201c565b5062000725565b620001bf8282620002b560201b60201c565b6200029b5760016007600084815260200190815260200160002060000160008373ffffffffffffffffffffffffffffffffffffffff1673ffffffffffffffffffffffffffffffffffffffff16815260200190815260200160002060006101000a81548160ff021916908315150217905550620002406200032060201b60201c565b73ffffffffffffffffffffffffffffffffffffffff168173ffffffffffffffffffffffffffffffffffffffff16837f2f8788117e7eff1d82e926ec794901d17c78024a50270940304540a733656f0d60405160405180910390a45b5050565b6001816000016000828254019250508190555050565b60006007600084815260200190815260200160002060000160008373ffffffffffffffffffffffffffffffffffffffff1673ffffffffffffffffffffffffffffffffffffffff16815260200190815260200160002060009054906101000a900460ff16905092915050565b600033905090565b600080fd5b600073ffffffffffffffffffffffffffffffffffffffff82169050919050565b60006200035a826200032d565b9050919050565b6200036c816200034d565b81146200037857600080fd5b50565b6000815190506200038c8162000361565b92915050565b600060208284031215620003ab57620003aa62000328565b5b6000620003bb848285016200037b565b91505092915050565b600081519050919050565b7f4e487b7100000000000000000000000000000000000000000000000000000000600052604160045260246000fd5b7f4e487b7100000000000000000000000000000000000000000000000000000000600052602260045260246000fd5b600060028204905060018216806200044657607f821691505b6020821081036200045c576200045b620003fe565b5b50919050565b60008190508160005260206000209050919050565b60006020601f8301049050919050565b600082821b905092915050565b600060088302620004c67fffffffffffffffffffffffffffffffffffffffffffffffffffffffffffffffff8262000487565b620004d2868362000487565b95508019841693508086168417925050509392505050565b6000819050919050565b6000819050919050565b60006200051f620005196200051384620004ea565b620004f4565b620004ea565b9050919050565b6000819050919050565b6200053b83620004fe565b620005536200054a8262000526565b84845462000494565b825550505050565b600090565b6200056a6200055b565b6200057781848462000530565b505050565b5b818110156200059f576200059360008262000560565b6001810190506200057d565b5050565b601f821115620005ee57620005b88162000462565b620005c38462000477565b81016020851015620005d3578190505b620005eb620005e28562000477565b8301826200057c565b50505b505050565b600082821c905092915050565b60006200061360001984600802620005f3565b1980831691505092915050565b60006200062e838362000600565b9150826002028217905092915050565b6200064982620003c4565b67ffffffffffffffff811115620006655762000664620003cf565b5b6200067182546200042d565b6200067e828285620005a3565b600060209050601f831160018114620006b65760008415620006a1578287015190505b620006ad858262000620565b8655506200071d565b601f198416620006c68662000462565b60005b82811015620006f057848901518255600182019150602085019450602081019050620006c9565b868310156200071057848901516200070c601f89168262000600565b8355505b6001600288020188555050505b505050505050565b613d7e80620007356000396000f3fe608060405234801561001057600080fd5b50600436106101da5760003560e01c806370a0823111610104578063a22cb465116100a2578063d547741f11610071578063d547741f14610551578063e02023a11461056d578063e63ab1e91461058b578063e985e9c5146105a9576101da565b8063a22cb465146104cb578063b88d4fde146104e7578063c87b56dd14610503578063d539139314610533576101da565b80638456cb59116100de5780638456cb591461045557806391d148541461045f57806395d89b411461048f578063a217fddf146104ad576101da565b806370a08231146103d9578063761c4c4014610409578063781834ee14610425576101da565b80632f2ff15d1161017c57806342966c681161014b57806342966c681461033f57806347c4ef251461035b5780635c975abb1461038b5780636352211e146103a9576101da565b80632f2ff15d146102e157806336568abe146102fd5780633f4ba83a1461031957806342842e0e14610323576101da565b8063095ea7b3116101b8578063095ea7b31461025d57806323b872dd14610279578063248a9ca3146102955780632cafd3ab146102c5576101da565b806301ffc9a7146101df57806306fdde031461020f578063081812fc1461022d575b600080fd5b6101f960048036038101906101f49190612965565b6105d9565b60405161020691906129ad565b60405180910390f35b6102176105eb565b6040516102249190612a58565b60405180910390f35b61024760048036038101906102429190612ab0565b61067d565b6040516102549190612b1e565b60405180910390f35b61027760048036038101906102729190612b65565b6106c3565b005b610293600480360381019061028e9190612ba5565b6107da565b005b6102af60048036038101906102aa9190612c2e565b61083a565b6040516102bc9190612c6a565b60405180910390f35b6102df60048036038101906102da9190612c85565b61085a565b005b6102fb60048036038101906102f69190612cb2565b610913565b005b61031760048036038101906103129190612cb2565b610934565b005b6103216109b7565b005b61033d60048036038101906103389190612ba5565b6109ec565b005b61035960048036038101906103549190612ab0565b610a0c565b005b61037560048036038101906103709190612ab0565b610a7d565b6040516103829190612dba565b60405180910390f35b610393610b02565b6040516103a091906129ad565b60405180910390f35b6103c360048036038101906103be9190612ab0565b610b19565b6040516103d09190612b1e565b60405180910390f35b6103f360048036038101906103ee9190612c85565b610b9f565b6040516104009190612de4565b60405180910390f35b610423600480360381019061041e9190612e38565b610c56565b005b61043f600480360381019061043a9190612c85565b610dd4565b60405161044c9190612de4565b60405180910390f35b61045d610e2b565b005b61047960048036038101906104749190612cb2565b610e60565b60405161048691906129ad565b60405180910390f35b610497610ecb565b6040516104a49190612a58565b60405180910390f35b6104b5610f5d565b6040516104c29190612c6a565b60405180910390f35b6104e560048036038101906104e09190612ea4565b610f64565b005b61050160048036038101906104fc9190613019565b610f7a565b005b61051d60048036038101906105189190612ab0565b610fdc565b60405161052a9190612a58565b60405180910390f35b61053b6111ac565b6040516105489190612c6a565b60405180910390f35b61056b60048036038101906105669190612cb2565b6111d0565b005b6105756111f1565b6040516105829190612c6a565b60405180910390f35b610593611215565b6040516105a09190612c6a565b60405180910390f35b6105c360048036038101906105be919061309c565b611239565b6040516105d091906129ad565b60405180910390f35b60006105e4826112e3565b9050919050565b6060600080546105fa9061310b565b80601f01602080910402602001604051908101604052809291908181526020018280546106269061310b565b80156106735780601f1061064857610100808354040283529160200191610673565b820191906000526020600020905b81548152906001019060200180831161065657829003601f168201915b5050505050905090565b60006106888261135d565b6004600083815260200190815260200160002060009054906101000a900473ffffffffffffffffffffffffffffffffffffffff169050919050565b60006106ce82610b19565b90508073ffffffffffffffffffffffffffffffffffffffff168373ffffffffffffffffffffffffffffffffffffffff160361073e576040517f08c379a0000000000000000000000000000000000000000000000000000000008152600401610735906131ae565b60405180910390fd5b8073ffffffffffffffffffffffffffffffffffffffff1661075d6113a8565b73ffffffffffffffffffffffffffffffffffffffff16148061078c575061078b816107866113a8565b611239565b5b6107cb576040517f08c379a00000000000000000000000000000000000000000000000000000000081526004016107c290613240565b60405180910390fd5b6107d583836113b0565b505050565b6107eb6107e56113a8565b82611469565b61082a576040517f08c379a0000000000000000000000000000000000000000000000000000000008152600401610821906132d2565b60405180910390fd5b6108358383836114fe565b505050565b600060076000838152602001908152602001600020600101549050919050565b7f5d8e12c39142ff96d79d04d15d1ba1269e4fe57bb9d26f43523628b34ba108ec610884816117f7565b6000600a60008473ffffffffffffffffffffffffffffffffffffffff1673ffffffffffffffffffffffffffffffffffffffff1681526020019081526020016000205490506108d18161135d565b600160096000838152602001908152602001600020600201546108f49190613321565b6009600083815260200190815260200160002060020181905550505050565b61091c8261083a565b610925816117f7565b61092f838361180b565b505050565b61093c6113a8565b73ffffffffffffffffffffffffffffffffffffffff168173ffffffffffffffffffffffffffffffffffffffff16146109a9576040517f08c379a00000000000000000000000000000000000000000000000000000000081526004016109a0906133c7565b60405180910390fd5b6109b382826118ec565b5050565b7f65d7a28e3265b37a6474929f336521b332c1681b933f6cb9f3376673440d862a6109e1816117f7565b6109e96119ce565b50565b610a0783838360405180602001604052806000815250610f7a565b505050565b7f5d8e12c39142ff96d79d04d15d1ba1269e4fe57bb9d26f43523628b34ba108ec610a36816117f7565b60096000838152602001908152602001600020600080820160006101000a81549060ff0219169055600182016000905560028201600090555050610a7982611a31565b5050565b610a856128c6565b610a8e8261135d565b600960008381526020019081526020016000206040518060600160405290816000820160009054906101000a900460ff166002811115610ad157610ad0612cf2565b5b6002811115610ae357610ae2612cf2565b5b8152602001600182015481526020016002820154815250509050919050565b6000600660009054906101000a900460ff16905090565b600080610b2583611b7f565b9050600073ffffffffffffffffffffffffffffffffffffffff168173ffffffffffffffffffffffffffffffffffffffff1603610b96576040517f08c379a0000000000000000000000000000000000000000000000000000000008152600401610b8d90613433565b60405180910390fd5b80915050919050565b60008073ffffffffffffffffffffffffffffffffffffffff168273ffffffffffffffffffffffffffffffffffffffff1603610c0f576040517f08c379a0000000000000000000000000000000000000000000000000000000008152600401610c06906134c5565b60405180910390fd5b600360008373ffffffffffffffffffffffffffffffffffffffff1673ffffffffffffffffffffffffffffffffffffffff168152602001908152602001600020549050919050565b7f9f2df0fed2c77648de5860a4cc508cd0818c85b8b8a1ab4ceeef8d981c8956a6610c80816117f7565b6000610c8b84610b9f565b14610ccb576040517f08c379a0000000000000000000000000000000000000000000000000000000008152600401610cc29061357d565b60405180910390fd5b6000610cd76008611bbc565b9050610ce360086112cd565b610ced8482611bca565b60405180606001604052808460ff166002811115610d0e57610d0d612cf2565b5b6002811115610d2057610d1f612cf2565b5b815260200142815260200160008152506009600083815260200190815260200160002060008201518160000160006101000a81548160ff02191690836002811115610d6e57610d6d612cf2565b5b0217905550602082015181600101556040820151816002015590505080600a60008673ffffffffffffffffffffffffffffffffffffffff1673ffffffffffffffffffffffffffffffffffffffff1681526020019081526020016000208190555050505050565b600080600a60008473ffffffffffffffffffffffffffffffffffffffff1673ffffffffffffffffffffffffffffffffffffffff168152602001908152602001600020549050610e228161135d565b80915050919050565b7f65d7a28e3265b37a6474929f336521b332c1681b933f6cb9f3376673440d862a610e55816117f7565b610e5d611be8565b50565b60006007600084815260200190815260200160002060000160008373ffffffffffffffffffffffffffffffffffffffff1673ffffffffffffffffffffffffffffffffffffffff16815260200190815260200160002060009054906101000a900460ff16905092915050565b606060018054610eda9061310b565b80601f0160208091040260200160405190810160405280929190818152602001828054610f069061310b565b8015610f535780601f10610f2857610100808354040283529160200191610f53565b820191906000526020600020905b815481529060010190602001808311610f3657829003601f168201915b5050505050905090565b6000801b81565b610f76610f6f6113a8565b8383611c4b565b5050565b610f8b610f856113a8565b83611469565b610fca576040517f08c379a0000000000000000000000000000000000000000000000000000000008152600401610fc1906132d2565b60405180910390fd5b610fd684848484611db7565b50505050565b6060610fe78261135d565b6000610ff1611e13565b90506000600281111561100757611006612cf2565b5b6009600085815260200190815260200160002060000160009054906101000a900460ff16600281111561103d5761103c612cf2565b5b0361108457806040518060600160405280602e8152602001613ced602e913960405160200161106d9291906135d9565b6040516020818303038152906040529150506111a7565b6001600281111561109857611097612cf2565b5b6009600085815260200190815260200160002060000160009054906101000a900460ff1660028111156110ce576110cd612cf2565b5b0361111557806040518060600160405280602e8152602001613d1b602e91396040516020016110fe9291906135d9565b6040516020818303038152906040529150506111a7565b60028081111561112857611127612cf2565b5b6009600085815260200190815260200160002060000160009054906101000a900460ff16600281111561115e5761115d612cf2565b5b036111a557806040518060600160405280602e8152602001613cbf602e913960405160200161118e9291906135d9565b6040516020818303038152906040529150506111a7565b505b919050565b7f9f2df0fed2c77648de5860a4cc508cd0818c85b8b8a1ab4ceeef8d981c8956a681565b6111d98261083a565b6111e2816117f7565b6111ec83836118ec565b505050565b7f5d8e12c39142ff96d79d04d15d1ba1269e4fe57bb9d26f43523628b34ba108ec81565b7f65d7a28e3265b37a6474929f336521b332c1681b933f6cb9f3376673440d862a81565b6000600560008473ffffffffffffffffffffffffffffffffffffffff1673ffffffffffffffffffffffffffffffffffffffff16815260200190815260200160002060008373ffffffffffffffffffffffffffffffffffffffff1673ffffffffffffffffffffffffffffffffffffffff16815260200190815260200160002060009054906101000a900460ff16905092915050565b6001816000016000828254019250508190555050565b60007f7965db0b000000000000000000000000000000000000000000000000000000007bffffffffffffffffffffffffffffffffffffffffffffffffffffffff1916827bffffffffffffffffffffffffffffffffffffffffffffffffffffffff19161480611356575061135582611e50565b5b9050919050565b61136681611f32565b6113a5576040517f08c379a000000000000000000000000000000000000000000000000000000000815260040161139c90613433565b60405180910390fd5b50565b600033905090565b816004600083815260200190815260200160002060006101000a81548173ffffffffffffffffffffffffffffffffffffffff021916908373ffffffffffffffffffffffffffffffffffffffff160217905550808273ffffffffffffffffffffffffffffffffffffffff1661142383610b19565b73ffffffffffffffffffffffffffffffffffffffff167f8c5be1e5ebec7d5bd14f71427d1e84f3dd0314c0f7b2291e5b200ac8c7c3b92560405160405180910390a45050565b60008061147583610b19565b90508073ffffffffffffffffffffffffffffffffffffffff168473ffffffffffffffffffffffffffffffffffffffff1614806114b757506114b68185611239565b5b806114f557508373ffffffffffffffffffffffffffffffffffffffff166114dd8461067d565b73ffffffffffffffffffffffffffffffffffffffff16145b91505092915050565b8273ffffffffffffffffffffffffffffffffffffffff1661151e82610b19565b73ffffffffffffffffffffffffffffffffffffffff1614611574576040517f08c379a000000000000000000000000000000000000000000000000000000000815260040161156b9061366f565b60405180910390fd5b600073ffffffffffffffffffffffffffffffffffffffff168273ffffffffffffffffffffffffffffffffffffffff16036115e3576040517f08c379a00000000000000000000000000000000000000000000000000000000081526004016115da90613701565b60405180910390fd5b6115f08383836001611f73565b8273ffffffffffffffffffffffffffffffffffffffff1661161082610b19565b73ffffffffffffffffffffffffffffffffffffffff1614611666576040517f08c379a000000000000000000000000000000000000000000000000000000000815260040161165d9061366f565b60405180910390fd5b6004600082815260200190815260200160002060006101000a81549073ffffffffffffffffffffffffffffffffffffffff02191690556001600360008573ffffffffffffffffffffffffffffffffffffffff1673ffffffffffffffffffffffffffffffffffffffff168152602001908152602001600020600082825403925050819055506001600360008473ffffffffffffffffffffffffffffffffffffffff1673ffffffffffffffffffffffffffffffffffffffff16815260200190815260200160002060008282540192505081905550816002600083815260200190815260200160002060006101000a81548173ffffffffffffffffffffffffffffffffffffffff021916908373ffffffffffffffffffffffffffffffffffffffff160217905550808273ffffffffffffffffffffffffffffffffffffffff168473ffffffffffffffffffffffffffffffffffffffff167fddf252ad1be2c89b69c2b068fc378daa952ba7f163c4a11628f55a4df523b3ef60405160405180910390a46117f28383836001611f8d565b505050565b611808816118036113a8565b611f93565b50565b6118158282610e60565b6118e85760016007600084815260200190815260200160002060000160008373ffffffffffffffffffffffffffffffffffffffff1673ffffffffffffffffffffffffffffffffffffffff16815260200190815260200160002060006101000a81548160ff02191690831515021790555061188d6113a8565b73ffffffffffffffffffffffffffffffffffffffff168173ffffffffffffffffffffffffffffffffffffffff16837f2f8788117e7eff1d82e926ec794901d17c78024a50270940304540a733656f0d60405160405180910390a45b5050565b6118f68282610e60565b156119ca5760006007600084815260200190815260200160002060000160008373ffffffffffffffffffffffffffffffffffffffff1673ffffffffffffffffffffffffffffffffffffffff16815260200190815260200160002060006101000a81548160ff02191690831515021790555061196f6113a8565b73ffffffffffffffffffffffffffffffffffffffff168173ffffffffffffffffffffffffffffffffffffffff16837ff6391f5c32d9c69d2a47ea670b442974b53935d1edc7fd64eb21e047a839171b60405160405180910390a45b5050565b6119d6612018565b6000600660006101000a81548160ff0219169083151502179055507f5db9ee0a495bf2e6ff9c91a7834c1ba4fdd244a5e8aa4e537bd38aeae4b073aa611a1a6113a8565b604051611a279190612b1e565b60405180910390a1565b6000611a3c82610b19565b9050611a4c816000846001611f73565b611a5582610b19565b90506004600083815260200190815260200160002060006101000a81549073ffffffffffffffffffffffffffffffffffffffff02191690556001600360008373ffffffffffffffffffffffffffffffffffffffff1673ffffffffffffffffffffffffffffffffffffffff168152602001908152602001600020600082825403925050819055506002600083815260200190815260200160002060006101000a81549073ffffffffffffffffffffffffffffffffffffffff021916905581600073ffffffffffffffffffffffffffffffffffffffff168273ffffffffffffffffffffffffffffffffffffffff167fddf252ad1be2c89b69c2b068fc378daa952ba7f163c4a11628f55a4df523b3ef60405160405180910390a4611b7b816000846001611f8d565b5050565b60006002600083815260200190815260200160002060009054906101000a900473ffffffffffffffffffffffffffffffffffffffff169050919050565b600081600001549050919050565b611be4828260405180602001604052806000815250612061565b5050565b611bf06120bc565b6001600660006101000a81548160ff0219169083151502179055507f62e78cea01bee320cd4e420270b5ea74000d11b0c9f74754ebdbfc544b05a258611c346113a8565b604051611c419190612b1e565b60405180910390a1565b8173ffffffffffffffffffffffffffffffffffffffff168373ffffffffffffffffffffffffffffffffffffffff1603611cb9576040517f08c379a0000000000000000000000000000000000000000000000000000000008152600401611cb09061376d565b60405180910390fd5b80600560008573ffffffffffffffffffffffffffffffffffffffff1673ffffffffffffffffffffffffffffffffffffffff16815260200190815260200160002060008473ffffffffffffffffffffffffffffffffffffffff1673ffffffffffffffffffffffffffffffffffffffff16815260200190815260200160002060006101000a81548160ff0219169083151502179055508173ffffffffffffffffffffffffffffffffffffffff168373ffffffffffffffffffffffffffffffffffffffff167f17307eab39ab6107e8899845ad3d59bd9653f200f220920489ca2b5937696c3183604051611daa91906129ad565b60405180910390a3505050565b611dc28484846114fe565b611dce84848484612106565b611e0d576040517f08c379a0000000000000000000000000000000000000000000000000000000008152600401611e04906137ff565b60405180910390fd5b50505050565b60606040518060400160405280602081526020017f68747470733a2f2f7776772e696e667572612d697066732e696f2f697066732f815250905090565b60007f80ac58cd000000000000000000000000000000000000000000000000000000007bffffffffffffffffffffffffffffffffffffffffffffffffffffffff1916827bffffffffffffffffffffffffffffffffffffffffffffffffffffffff19161480611f1b57507f5b5e139f000000000000000000000000000000000000000000000000000000007bffffffffffffffffffffffffffffffffffffffffffffffffffffffff1916827bffffffffffffffffffffffffffffffffffffffffffffffffffffffff1916145b80611f2b5750611f2a8261228d565b5b9050919050565b60008073ffffffffffffffffffffffffffffffffffffffff16611f5483611b7f565b73ffffffffffffffffffffffffffffffffffffffff1614159050919050565b611f7b6120bc565b611f87848484846122f7565b50505050565b50505050565b611f9d8282610e60565b61201457611faa8161241d565b611fb88360001c602061244a565b604051602001611fc99291906138b7565b6040516020818303038152906040526040517f08c379a000000000000000000000000000000000000000000000000000000000815260040161200b9190612a58565b60405180910390fd5b5050565b612020610b02565b61205f576040517f08c379a00000000000000000000000000000000000000000000000000000000081526004016120569061393d565b60405180910390fd5b565b61206b8383612686565b6120786000848484612106565b6120b7576040517f08c379a00000000000000000000000000000000000000000000000000000000081526004016120ae906137ff565b60405180910390fd5b505050565b6120c4610b02565b15612104576040517f08c379a00000000000000000000000000000000000000000000000000000000081526004016120fb906139a9565b60405180910390fd5b565b60006121278473ffffffffffffffffffffffffffffffffffffffff166128a3565b15612280578373ffffffffffffffffffffffffffffffffffffffff1663150b7a026121506113a8565b8786866040518563ffffffff1660e01b81526004016121729493929190613a1e565b6020604051808303816000875af19250505080156121ae57506040513d601f19601f820116820180604052508101906121ab9190613a7f565b60015b612230573d80600081146121de576040519150601f19603f3d011682016040523d82523d6000602084013e6121e3565b606091505b506000815103612228576040517f08c379a000000000000000000000000000000000000000000000000000000000815260040161221f906137ff565b60405180910390fd5b805181602001fd5b63150b7a0260e01b7bffffffffffffffffffffffffffffffffffffffffffffffffffffffff1916817bffffffffffffffffffffffffffffffffffffffffffffffffffffffff191614915050612285565b600190505b949350505050565b60007f01ffc9a7000000000000000000000000000000000000000000000000000000007bffffffffffffffffffffffffffffffffffffffffffffffffffffffff1916827bffffffffffffffffffffffffffffffffffffffffffffffffffffffff1916149050919050565b600181111561241757600073ffffffffffffffffffffffffffffffffffffffff168473ffffffffffffffffffffffffffffffffffffffff161461238b5780600360008673ffffffffffffffffffffffffffffffffffffffff1673ffffffffffffffffffffffffffffffffffffffff16815260200190815260200160002060008282546123839190613aac565b925050819055505b600073ffffffffffffffffffffffffffffffffffffffff168373ffffffffffffffffffffffffffffffffffffffff16146124165780600360008573ffffffffffffffffffffffffffffffffffffffff1673ffffffffffffffffffffffffffffffffffffffff168152602001908152602001600020600082825461240e9190613321565b925050819055505b5b50505050565b60606124438273ffffffffffffffffffffffffffffffffffffffff16601460ff1661244a565b9050919050565b60606000600283600261245d9190613ae0565b6124679190613321565b67ffffffffffffffff8111156124805761247f612eee565b5b6040519080825280601f01601f1916602001820160405280156124b25781602001600182028036833780820191505090505b5090507f3000000000000000000000000000000000000000000000000000000000000000816000815181106124ea576124e9613b22565b5b60200101907effffffffffffffffffffffffffffffffffffffffffffffffffffffffffffff1916908160001a9053507f78000000000000000000000000000000000000000000000000000000000000008160018151811061254e5761254d613b22565b5b60200101907effffffffffffffffffffffffffffffffffffffffffffffffffffffffffffff1916908160001a9053506000600184600261258e9190613ae0565b6125989190613321565b90505b6001811115612638577f3031323334353637383961626364656600000000000000000000000000000000600f8616601081106125da576125d9613b22565b5b1a60f81b8282815181106125f1576125f0613b22565b5b60200101907effffffffffffffffffffffffffffffffffffffffffffffffffffffffffffff1916908160001a905350600485901c94508061263190613b51565b905061259b565b506000841461267c576040517f08c379a000000000000000000000000000000000000000000000000000000000815260040161267390613bc6565b60405180910390fd5b8091505092915050565b600073ffffffffffffffffffffffffffffffffffffffff168273ffffffffffffffffffffffffffffffffffffffff16036126f5576040517f08c379a00000000000000000000000000000000000000000000000000000000081526004016126ec90613c32565b60405180910390fd5b6126fe81611f32565b1561273e576040517f08c379a000000000000000000000000000000000000000000000000000000000815260040161273590613c9e565b60405180910390fd5b61274c600083836001611f73565b61275581611f32565b15612795576040517f08c379a000000000000000000000000000000000000000000000000000000000815260040161278c90613c9e565b60405180910390fd5b6001600360008473ffffffffffffffffffffffffffffffffffffffff1673ffffffffffffffffffffffffffffffffffffffff16815260200190815260200160002060008282540192505081905550816002600083815260200190815260200160002060006101000a81548173ffffffffffffffffffffffffffffffffffffffff021916908373ffffffffffffffffffffffffffffffffffffffff160217905550808273ffffffffffffffffffffffffffffffffffffffff16600073ffffffffffffffffffffffffffffffffffffffff167fddf252ad1be2c89b69c2b068fc378daa952ba7f163c4a11628f55a4df523b3ef60405160405180910390a461289f600083836001611f8d565b5050565b6000808273ffffffffffffffffffffffffffffffffffffffff163b119050919050565b6040518060600160405280600060028111156128e5576128e4612cf2565b5b815260200160008152602001600081525090565b6000604051905090565b600080fd5b600080fd5b60007fffffffff0000000000000000000000000000000000000000000000000000000082169050919050565b6129428161290d565b811461294d57600080fd5b50565b60008135905061295f81612939565b92915050565b60006020828403121561297b5761297a612903565b5b600061298984828501612950565b91505092915050565b60008115159050919050565b6129a781612992565b82525050565b60006020820190506129c2600083018461299e565b92915050565b600081519050919050565b600082825260208201905092915050565b60005b83811015612a025780820151818401526020810190506129e7565b60008484015250505050565b6000601f19601f8301169050919050565b6000612a2a826129c8565b612a3481856129d3565b9350612a448185602086016129e4565b612a4d81612a0e565b840191505092915050565b60006020820190508181036000830152612a728184612a1f565b905092915050565b6000819050919050565b612a8d81612a7a565b8114612a9857600080fd5b50565b600081359050612aaa81612a84565b92915050565b600060208284031215612ac657612ac5612903565b5b6000612ad484828501612a9b565b91505092915050565b600073ffffffffffffffffffffffffffffffffffffffff82169050919050565b6000612b0882612add565b9050919050565b612b1881612afd565b82525050565b6000602082019050612b336000830184612b0f565b92915050565b612b4281612afd565b8114612b4d57600080fd5b50565b600081359050612b5f81612b39565b92915050565b60008060408385031215612b7c57612b7b612903565b5b6000612b8a85828601612b50565b9250506020612b9b85828601612a9b565b9150509250929050565b600080600060608486031215612bbe57612bbd612903565b5b6000612bcc86828701612b50565b9350506020612bdd86828701612b50565b9250506040612bee86828701612a9b565b9150509250925092565b6000819050919050565b612c0b81612bf8565b8114612c1657600080fd5b50565b600081359050612c2881612c02565b92915050565b600060208284031215612c4457612c43612903565b5b6000612c5284828501612c19565b91505092915050565b612c6481612bf8565b82525050565b6000602082019050612c7f6000830184612c5b565b92915050565b600060208284031215612c9b57612c9a612903565b5b6000612ca984828501612b50565b91505092915050565b60008060408385031215612cc957612cc8612903565b5b6000612cd785828601612c19565b9250506020612ce885828601612b50565b9150509250929050565b7f4e487b7100000000000000000000000000000000000000000000000000000000600052602160045260246000fd5b60038110612d3257612d31612cf2565b5b50565b6000819050612d4382612d21565b919050565b6000612d5382612d35565b9050919050565b612d6381612d48565b82525050565b612d7281612a7a565b82525050565b606082016000820151612d8e6000850182612d5a565b506020820151612da16020850182612d69565b506040820151612db46040850182612d69565b50505050565b6000606082019050612dcf6000830184612d78565b92915050565b612dde81612a7a565b82525050565b6000602082019050612df96000830184612dd5565b92915050565b600060ff82169050919050565b612e1581612dff565b8114612e2057600080fd5b50565b600081359050612e3281612e0c565b92915050565b60008060408385031215612e4f57612e4e612903565b5b6000612e5d85828601612b50565b9250506020612e6e85828601612e23565b9150509250929050565b612e8181612992565b8114612e8c57600080fd5b50565b600081359050612e9e81612e78565b92915050565b60008060408385031215612ebb57612eba612903565b5b6000612ec985828601612b50565b9250506020612eda85828601612e8f565b9150509250929050565b600080fd5b600080fd5b7f4e487b7100000000000000000000000000000000000000000000000000000000600052604160045260246000fd5b612f2682612a0e565b810181811067ffffffffffffffff82111715612f4557612f44612eee565b5b80604052505050565b6000612f586128f9565b9050612f648282612f1d565b919050565b600067ffffffffffffffff821115612f8457612f83612eee565b5b612f8d82612a0e565b9050602081019050919050565b82818337600083830152505050565b6000612fbc612fb784612f69565b612f4e565b905082815260208101848484011115612fd857612fd7612ee9565b5b612fe3848285612f9a565b509392505050565b600082601f83011261300057612fff612ee4565b5b8135613010848260208601612fa9565b91505092915050565b6000806000806080858703121561303357613032612903565b5b600061304187828801612b50565b945050602061305287828801612b50565b935050604061306387828801612a9b565b925050606085013567ffffffffffffffff81111561308457613083612908565b5b61309087828801612feb565b91505092959194509250565b600080604083850312156130b3576130b2612903565b5b60006130c185828601612b50565b92505060206130d285828601612b50565b9150509250929050565b7f4e487b7100000000000000000000000000000000000000000000000000000000600052602260045260246000fd5b6000600282049050600182168061312357607f821691505b602082108103613136576131356130dc565b5b50919050565b7f4552433732313a20617070726f76616c20746f2063757272656e74206f776e6560008201527f7200000000000000000000000000000000000000000000000000000000000000602082015250565b60006131986021836129d3565b91506131a38261313c565b604082019050919050565b600060208201905081810360008301526131c78161318b565b9050919050565b7f4552433732313a20617070726f76652063616c6c6572206973206e6f7420746f60008201527f6b656e206f776e6572206f7220617070726f76656420666f7220616c6c000000602082015250565b600061322a603d836129d3565b9150613235826131ce565b604082019050919050565b600060208201905081810360008301526132598161321d565b9050919050565b7f4552433732313a2063616c6c6572206973206e6f7420746f6b656e206f776e6560008201527f72206f7220617070726f76656400000000000000000000000000000000000000602082015250565b60006132bc602d836129d3565b91506132c782613260565b604082019050919050565b600060208201905081810360008301526132eb816132af565b9050919050565b7f4e487b7100000000000000000000000000000000000000000000000000000000600052601160045260246000fd5b600061332c82612a7a565b915061333783612a7a565b925082820190508082111561334f5761334e6132f2565b5b92915050565b7f416363657373436f6e74726f6c3a2063616e206f6e6c792072656e6f756e636560008201527f20726f6c657320666f722073656c660000000000000000000000000000000000602082015250565b60006133b1602f836129d3565b91506133bc82613355565b604082019050919050565b600060208201905081810360008301526133e0816133a4565b9050919050565b7f4552433732313a20696e76616c696420746f6b656e2049440000000000000000600082015250565b600061341d6018836129d3565b9150613428826133e7565b602082019050919050565b6000602082019050818103600083015261344c81613410565b9050919050565b7f4552433732313a2061646472657373207a65726f206973206e6f74206120766160008201527f6c6964206f776e65720000000000000000000000000000000000000000000000602082015250565b60006134af6029836129d3565b91506134ba82613453565b604082019050919050565b600060208201905081810360008301526134de816134a2565b9050919050565b7f596f7520616c726561647920686176652061204e46542c20706c65617365206360008201527f6c61696d20796f75722072657761726473206265666f72652062757920616e6f60208201527f746572206f6e652e000000000000000000000000000000000000000000000000604082015250565b60006135676048836129d3565b9150613572826134e5565b606082019050919050565b600060208201905081810360008301526135968161355a565b9050919050565b600081905092915050565b60006135b3826129c8565b6135bd818561359d565b93506135cd8185602086016129e4565b80840191505092915050565b60006135e582856135a8565b91506135f182846135a8565b91508190509392505050565b7f4552433732313a207472616e736665722066726f6d20696e636f72726563742060008201527f6f776e6572000000000000000000000000000000000000000000000000000000602082015250565b60006136596025836129d3565b9150613664826135fd565b604082019050919050565b600060208201905081810360008301526136888161364c565b9050919050565b7f4552433732313a207472616e7366657220746f20746865207a65726f2061646460008201527f7265737300000000000000000000000000000000000000000000000000000000602082015250565b60006136eb6024836129d3565b91506136f68261368f565b604082019050919050565b6000602082019050818103600083015261371a816136de565b9050919050565b7f4552433732313a20617070726f766520746f2063616c6c657200000000000000600082015250565b60006137576019836129d3565b915061376282613721565b602082019050919050565b600060208201905081810360008301526137868161374a565b9050919050565b7f4552433732313a207472616e7366657220746f206e6f6e20455243373231526560008201527f63656976657220696d706c656d656e7465720000000000000000000000000000602082015250565b60006137e96032836129d3565b91506137f48261378d565b604082019050919050565b60006020820190508181036000830152613818816137dc565b9050919050565b7f416363657373436f6e74726f6c3a206163636f756e7420000000000000000000600082015250565b600061385560178361359d565b91506138608261381f565b601782019050919050565b7f206973206d697373696e6720726f6c6520000000000000000000000000000000600082015250565b60006138a160118361359d565b91506138ac8261386b565b601182019050919050565b60006138c282613848565b91506138ce82856135a8565b91506138d982613894565b91506138e582846135a8565b91508190509392505050565b7f5061757361626c653a206e6f7420706175736564000000000000000000000000600082015250565b60006139276014836129d3565b9150613932826138f1565b602082019050919050565b600060208201905081810360008301526139568161391a565b9050919050565b7f5061757361626c653a2070617573656400000000000000000000000000000000600082015250565b60006139936010836129d3565b915061399e8261395d565b602082019050919050565b600060208201905081810360008301526139c281613986565b9050919050565b600081519050919050565b600082825260208201905092915050565b60006139f0826139c9565b6139fa81856139d4565b9350613a0a8185602086016129e4565b613a1381612a0e565b840191505092915050565b6000608082019050613a336000830187612b0f565b613a406020830186612b0f565b613a4d6040830185612dd5565b8181036060830152613a5f81846139e5565b905095945050505050565b600081519050613a7981612939565b92915050565b600060208284031215613a9557613a94612903565b5b6000613aa384828501613a6a565b91505092915050565b6000613ab782612a7a565b9150613ac283612a7a565b9250828203905081811115613ada57613ad96132f2565b5b92915050565b6000613aeb82612a7a565b9150613af683612a7a565b9250828202613b0481612a7a565b91508282048414831517613b1b57613b1a6132f2565b5b5092915050565b7f4e487b7100000000000000000000000000000000000000000000000000000000600052603260045260246000fd5b6000613b5c82612a7a565b915060008203613b6f57613b6e6132f2565b5b600182039050919050565b7f537472696e67733a20686578206c656e67746820696e73756666696369656e74600082015250565b6000613bb06020836129d3565b9150613bbb82613b7a565b602082019050919050565b60006020820190508181036000830152613bdf81613ba3565b9050919050565b7f4552433732313a206d696e7420746f20746865207a65726f2061646472657373600082015250565b6000613c1c6020836129d3565b9150613c2782613be6565b602082019050919050565b60006020820190508181036000830152613c4b81613c0f565b9050919050565b7f4552433732313a20746f6b656e20616c7265616479206d696e74656400000000600082015250565b6000613c88601c836129d3565b9150613c9382613c52565b602082019050919050565b60006020820190508181036000830152613cb781613c7b565b905091905056fe516d596a55614233586d7143636d566e48584a566e476766376233666666417a745a614170556848396768554d7a516d56466d655a5237355a4a4b485534713263747a35534b7359317745526a58386f374b38767177314e474e6773516d5051346f513174644a523833466e674a4d7a694a617239734e6372793946456668506342466554356b775072a2646970667358221220f052b864fe7bc11e5e18bdb9be40f4e22fbe19746147a5daa8ca580be0a46a1664736f6c63430008110033",
  "immutableReferences": {},
  "source": "// SPDX-License-Identifier: MIT\r\npragma solidity ^0.8.9;\r\n\r\nimport \"@openzeppelin/contracts/token/ERC721/ERC721.sol\";\r\nimport \"@openzeppelin/contracts/security/Pausable.sol\";\r\nimport \"@openzeppelin/contracts/access/AccessControl.sol\";\r\nimport \"@openzeppelin/contracts/token/ERC721/extensions/ERC721Burnable.sol\";\r\nimport \"@openzeppelin/contracts/utils/Counters.sol\";\r\n\r\ncontract WVWTicket is ERC721, Pausable, AccessControl, ERC721Burnable {\r\n    using Counters for Counters.Counter;\r\n\r\n    bytes32 public constant PAUSER_ROLE = keccak256(\"PAUSER_ROLE\");\r\n    bytes32 public constant MINTER_ROLE = keccak256(\"MINTER_ROLE\");\r\n    bytes32 public constant WITHDRAW_ROLE = keccak256(\"WITHDRAW_ROLE\");\r\n\r\n    event BurnToken(address _owner, uint256 _tokenId);\r\n\r\n    Counters.Counter private _tokenIdCounter;\r\n\r\n    enum TicketType {\r\n        PLAN1,\r\n        PLAN2,\r\n        PLAN3\r\n    }\r\n\r\n    struct TicketAttributes {\r\n        TicketType ticketType;\r\n        uint256 creationTime;\r\n        uint256 withdrawTimes;\r\n    }\r\n\r\n    string private constant PLAN1 =\r\n        \"QmVFmeZR75ZJKHU4q2ctz5SKsY1wERjX8o7K8vqw1NGNgs\";\r\n    string private constant PLAN2 =\r\n        \"QmPQ4oQ1tdJR83FngJMziJar9sNcry9FEfhPcBFeT5kwPr\";\r\n    string private constant PLAN3 =\r\n        \"QmYjUaB3XmqCcmVnHXJVnGgf7b3fffAztZaApUhH9ghUMz\";\r\n\r\n    mapping(uint256 => TicketAttributes) ticketsAttributes;\r\n    mapping(address => uint256) owners;\r\n\r\n    constructor(address _owner) ERC721(\"WVWTicket\", \"WVW\") {\r\n        _grantRole(DEFAULT_ADMIN_ROLE, _owner);\r\n        _grantRole(PAUSER_ROLE, _owner);\r\n        _grantRole(MINTER_ROLE, _owner);\r\n        _grantRole(WITHDRAW_ROLE, _owner);\r\n\r\n        //Start Counter by 1\r\n        _tokenIdCounter.increment();\r\n    }\r\n\r\n    function _baseURI() internal pure override returns (string memory) {\r\n        return \"https://wvw.infura-ipfs.io/ipfs/\";\r\n    }\r\n\r\n    function pause() public onlyRole(PAUSER_ROLE) {\r\n        _pause();\r\n    }\r\n\r\n    function unpause() public onlyRole(PAUSER_ROLE) {\r\n        _unpause();\r\n    }\r\n\r\n    function safeMint(address _to, uint8 _planType)\r\n        public\r\n        onlyRole(MINTER_ROLE)\r\n    {\r\n        require(\r\n            balanceOf(_to) == 0,\r\n            \"You already have a NFT, please claim your rewards before buy anoter one.\"\r\n        );\r\n        uint256 tokenId = _tokenIdCounter.current();\r\n        _tokenIdCounter.increment();\r\n        _safeMint(_to, tokenId);\r\n        ticketsAttributes[tokenId] = TicketAttributes(\r\n            TicketType(_planType),\r\n            block.timestamp,\r\n            0\r\n        );\r\n        owners[_to] = tokenId;\r\n    }\r\n\r\n    function _beforeTokenTransfer(\r\n        address from,\r\n        address to,\r\n        uint256 tokenId,\r\n        uint256 batchSize\r\n    ) internal override whenNotPaused {\r\n        super._beforeTokenTransfer(from, to, tokenId, batchSize);\r\n    }\r\n\r\n    function tokenURI(uint256 _tokenId)\r\n        public\r\n        view\r\n        override\r\n        returns (string memory)\r\n    {\r\n        _requireMinted(_tokenId);\r\n        string memory base = _baseURI();\r\n\r\n        if (ticketsAttributes[_tokenId].ticketType == TicketType.PLAN1) {\r\n            return string(abi.encodePacked(base, PLAN1));\r\n        } else if (ticketsAttributes[_tokenId].ticketType == TicketType.PLAN2) {\r\n            return string(abi.encodePacked(base, PLAN2));\r\n        } else if (ticketsAttributes[_tokenId].ticketType == TicketType.PLAN3) {\r\n            return string(abi.encodePacked(base, PLAN3));\r\n        }\r\n    }\r\n\r\n    function getNFTAttributes(uint256 _tokenId)\r\n        external\r\n        view\r\n        returns (TicketAttributes memory _attributes)\r\n    {\r\n        _requireMinted(_tokenId);\r\n        return ticketsAttributes[_tokenId];\r\n    }\r\n\r\n    function getNFTByAddress(address _address)\r\n        external\r\n        view\r\n        returns (uint256 _tokenId)\r\n    {\r\n        uint256 _id = owners[_address];\r\n        _requireMinted(_id);\r\n        return _id;\r\n    }\r\n\r\n    function setWithdrawCount(address _address)\r\n        external\r\n        onlyRole(WITHDRAW_ROLE)\r\n    {\r\n        uint256 _id = owners[_address];\r\n        _requireMinted(_id);\r\n        ticketsAttributes[_id].withdrawTimes =\r\n            ticketsAttributes[_id].withdrawTimes +\r\n            1;\r\n    }\r\n\r\n    function burn(uint256 _tokenId) public override onlyRole(WITHDRAW_ROLE) {\r\n        // Remove attributes from burned token.\r\n        delete ticketsAttributes[_tokenId];\r\n        _burn(_tokenId);\r\n    }\r\n\r\n    // The following functions are overrides required by Solidity.\r\n\r\n    function supportsInterface(bytes4 interfaceId)\r\n        public\r\n        view\r\n        override(ERC721, AccessControl)\r\n        returns (bool)\r\n    {\r\n        return super.supportsInterface(interfaceId);\r\n    }\r\n}\r\n",
  "sourcePath": "C:\\lucas_blockchain\\freela\\YF_CONSULTORIA\\wvw\\Truffle\\contracts\\WVWTicket.sol",
  "compiler": {
    "name": "solc",
    "version": "0.8.17+commit.8df45f5f.Emscripten.clang"
  },
  "schemaVersion": "3.4.11",
  "updatedAt": "2023-03-01T17:39:13.360Z",
  "networkType": "ethereum",
  "devdoc": {
    "kind": "dev",
    "methods": {
      "approve(address,uint256)": {
        "details": "See {IERC721-approve}."
      },
      "balanceOf(address)": {
        "details": "See {IERC721-balanceOf}."
      },
      "getApproved(uint256)": {
        "details": "See {IERC721-getApproved}."
      },
      "getRoleAdmin(bytes32)": {
        "details": "Returns the admin role that controls `role`. See {grantRole} and {revokeRole}. To change a role's admin, use {_setRoleAdmin}."
      },
      "grantRole(bytes32,address)": {
        "details": "Grants `role` to `account`. If `account` had not been already granted `role`, emits a {RoleGranted} event. Requirements: - the caller must have ``role``'s admin role. May emit a {RoleGranted} event."
      },
      "hasRole(bytes32,address)": {
        "details": "Returns `true` if `account` has been granted `role`."
      },
      "isApprovedForAll(address,address)": {
        "details": "See {IERC721-isApprovedForAll}."
      },
      "name()": {
        "details": "See {IERC721Metadata-name}."
      },
      "ownerOf(uint256)": {
        "details": "See {IERC721-ownerOf}."
      },
      "paused()": {
        "details": "Returns true if the contract is paused, and false otherwise."
      },
      "renounceRole(bytes32,address)": {
        "details": "Revokes `role` from the calling account. Roles are often managed via {grantRole} and {revokeRole}: this function's purpose is to provide a mechanism for accounts to lose their privileges if they are compromised (such as when a trusted device is misplaced). If the calling account had been revoked `role`, emits a {RoleRevoked} event. Requirements: - the caller must be `account`. May emit a {RoleRevoked} event."
      },
      "revokeRole(bytes32,address)": {
        "details": "Revokes `role` from `account`. If `account` had been granted `role`, emits a {RoleRevoked} event. Requirements: - the caller must have ``role``'s admin role. May emit a {RoleRevoked} event."
      },
      "safeTransferFrom(address,address,uint256)": {
        "details": "See {IERC721-safeTransferFrom}."
      },
      "safeTransferFrom(address,address,uint256,bytes)": {
        "details": "See {IERC721-safeTransferFrom}."
      },
      "setApprovalForAll(address,bool)": {
        "details": "See {IERC721-setApprovalForAll}."
      },
      "symbol()": {
        "details": "See {IERC721Metadata-symbol}."
      },
      "transferFrom(address,address,uint256)": {
        "details": "See {IERC721-transferFrom}."
      }
    },
    "version": 1
  },
  "userdoc": {
    "kind": "user",
    "methods": {},
    "version": 1
  }
}