{
  "contractName": "WVWToken",
  "abi": [
    {
      "inputs": [
        {
          "internalType": "address",
          "name": "owner_",
          "type": "address"
        },
        {
          "internalType": "address",
          "name": "distributionContract_",
          "type": "address"
        },
        {
          "internalType": "uint8",
          "name": "fee_",
          "type": "uint8"
        },
        {
          "internalType": "uint256",
          "name": "swapWhen_",
          "type": "uint256"
        },
        {
          "internalType": "address",
          "name": "marketingWalletAddress_",
          "type": "address"
        },
        {
          "internalType": "address",
          "name": "uniswapV2Router_",
          "type": "address"
        },
        {
          "internalType": "address[]",
          "name": "excludeFromFeeAddresses_",
          "type": "address[]"
        }
      ],
      "stateMutability": "nonpayable",
      "type": "constructor"
    },
    {
      "anonymous": false,
      "inputs": [
        {
          "indexed": true,
          "internalType": "address",
          "name": "owner",
          "type": "address"
        },
        {
          "indexed": true,
          "internalType": "address",
          "name": "spender",
          "type": "address"
        },
        {
          "indexed": false,
          "internalType": "uint256",
          "name": "value",
          "type": "uint256"
        }
      ],
      "name": "Approval",
      "type": "event"
    },
    {
      "anonymous": false,
      "inputs": [
        {
          "indexed": true,
          "internalType": "address",
          "name": "newAddress",
          "type": "address"
        },
        {
          "indexed": false,
          "internalType": "bool",
          "name": "status",
          "type": "bool"
        }
      ],
      "name": "ChangeAutomatedMarketPairs",
      "type": "event"
    },
    {
      "anonymous": false,
      "inputs": [
        {
          "indexed": true,
          "internalType": "address",
          "name": "newAddress",
          "type": "address"
        },
        {
          "indexed": false,
          "internalType": "bool",
          "name": "status",
          "type": "bool"
        }
      ],
      "name": "ChangeExcludeFromFee",
      "type": "event"
    },
    {
      "anonymous": false,
      "inputs": [
        {
          "indexed": true,
          "internalType": "address",
          "name": "previousOwner",
          "type": "address"
        },
        {
          "indexed": true,
          "internalType": "address",
          "name": "newOwner",
          "type": "address"
        }
      ],
      "name": "OwnershipTransferred",
      "type": "event"
    },
    {
      "anonymous": false,
      "inputs": [
        {
          "indexed": false,
          "internalType": "uint256",
          "name": "tokensSwapped",
          "type": "uint256"
        },
        {
          "indexed": false,
          "internalType": "uint256",
          "name": "ethReceived",
          "type": "uint256"
        },
        {
          "indexed": false,
          "internalType": "address",
          "name": "addressReceived",
          "type": "address"
        }
      ],
      "name": "SwapForFees",
      "type": "event"
    },
    {
      "anonymous": false,
      "inputs": [
        {
          "indexed": true,
          "internalType": "address",
          "name": "from",
          "type": "address"
        },
        {
          "indexed": true,
          "internalType": "address",
          "name": "to",
          "type": "address"
        },
        {
          "indexed": false,
          "internalType": "uint256",
          "name": "value",
          "type": "uint256"
        }
      ],
      "name": "Transfer",
      "type": "event"
    },
    {
      "anonymous": false,
      "inputs": [
        {
          "indexed": true,
          "internalType": "address",
          "name": "from",
          "type": "address"
        },
        {
          "indexed": true,
          "internalType": "address",
          "name": "to",
          "type": "address"
        },
        {
          "indexed": false,
          "internalType": "uint256",
          "name": "amount",
          "type": "uint256"
        },
        {
          "indexed": false,
          "internalType": "uint256",
          "name": "feeAmount",
          "type": "uint256"
        }
      ],
      "name": "TransferWithFee",
      "type": "event"
    },
    {
      "anonymous": false,
      "inputs": [
        {
          "indexed": true,
          "internalType": "address",
          "name": "newAddress",
          "type": "address"
        },
        {
          "indexed": true,
          "internalType": "address",
          "name": "oldAddress",
          "type": "address"
        }
      ],
      "name": "UpdateUniswapV2Router",
      "type": "event"
    },
    {
      "inputs": [
        {
          "internalType": "address",
          "name": "owner",
          "type": "address"
        },
        {
          "internalType": "address",
          "name": "spender",
          "type": "address"
        }
      ],
      "name": "allowance",
      "outputs": [
        {
          "internalType": "uint256",
          "name": "",
          "type": "uint256"
        }
      ],
      "stateMutability": "view",
      "type": "function",
      "constant": true
    },
    {
      "inputs": [
        {
          "internalType": "address",
          "name": "spender",
          "type": "address"
        },
        {
          "internalType": "uint256",
          "name": "amount",
          "type": "uint256"
        }
      ],
      "name": "approve",
      "outputs": [
        {
          "internalType": "bool",
          "name": "",
          "type": "bool"
        }
      ],
      "stateMutability": "nonpayable",
      "type": "function"
    },
    {
      "inputs": [
        {
          "internalType": "address",
          "name": "account",
          "type": "address"
        }
      ],
      "name": "balanceOf",
      "outputs": [
        {
          "internalType": "uint256",
          "name": "",
          "type": "uint256"
        }
      ],
      "stateMutability": "view",
      "type": "function",
      "constant": true
    },
    {
      "inputs": [
        {
          "internalType": "uint256",
          "name": "amount",
          "type": "uint256"
        }
      ],
      "name": "burn",
      "outputs": [],
      "stateMutability": "nonpayable",
      "type": "function"
    },
    {
      "inputs": [
        {
          "internalType": "address",
          "name": "account",
          "type": "address"
        },
        {
          "internalType": "uint256",
          "name": "amount",
          "type": "uint256"
        }
      ],
      "name": "burnFrom",
      "outputs": [],
      "stateMutability": "nonpayable",
      "type": "function"
    },
    {
      "inputs": [],
      "name": "decimals",
      "outputs": [
        {
          "internalType": "uint8",
          "name": "",
          "type": "uint8"
        }
      ],
      "stateMutability": "view",
      "type": "function",
      "constant": true
    },
    {
      "inputs": [
        {
          "internalType": "address",
          "name": "spender",
          "type": "address"
        },
        {
          "internalType": "uint256",
          "name": "subtractedValue",
          "type": "uint256"
        }
      ],
      "name": "decreaseAllowance",
      "outputs": [
        {
          "internalType": "bool",
          "name": "",
          "type": "bool"
        }
      ],
      "stateMutability": "nonpayable",
      "type": "function"
    },
    {
      "inputs": [
        {
          "internalType": "address",
          "name": "spender",
          "type": "address"
        },
        {
          "internalType": "uint256",
          "name": "addedValue",
          "type": "uint256"
        }
      ],
      "name": "increaseAllowance",
      "outputs": [
        {
          "internalType": "bool",
          "name": "",
          "type": "bool"
        }
      ],
      "stateMutability": "nonpayable",
      "type": "function"
    },
    {
      "inputs": [],
      "name": "name",
      "outputs": [
        {
          "internalType": "string",
          "name": "",
          "type": "string"
        }
      ],
      "stateMutability": "view",
      "type": "function",
      "constant": true
    },
    {
      "inputs": [],
      "name": "owner",
      "outputs": [
        {
          "internalType": "address",
          "name": "",
          "type": "address"
        }
      ],
      "stateMutability": "view",
      "type": "function",
      "constant": true
    },
    {
      "inputs": [],
      "name": "renounceOwnership",
      "outputs": [],
      "stateMutability": "nonpayable",
      "type": "function"
    },
    {
      "inputs": [],
      "name": "symbol",
      "outputs": [
        {
          "internalType": "string",
          "name": "",
          "type": "string"
        }
      ],
      "stateMutability": "view",
      "type": "function",
      "constant": true
    },
    {
      "inputs": [],
      "name": "totalSupply",
      "outputs": [
        {
          "internalType": "uint256",
          "name": "",
          "type": "uint256"
        }
      ],
      "stateMutability": "view",
      "type": "function",
      "constant": true
    },
    {
      "inputs": [
        {
          "internalType": "address",
          "name": "to",
          "type": "address"
        },
        {
          "internalType": "uint256",
          "name": "amount",
          "type": "uint256"
        }
      ],
      "name": "transfer",
      "outputs": [
        {
          "internalType": "bool",
          "name": "",
          "type": "bool"
        }
      ],
      "stateMutability": "nonpayable",
      "type": "function"
    },
    {
      "inputs": [
        {
          "internalType": "address",
          "name": "from",
          "type": "address"
        },
        {
          "internalType": "address",
          "name": "to",
          "type": "address"
        },
        {
          "internalType": "uint256",
          "name": "amount",
          "type": "uint256"
        }
      ],
      "name": "transferFrom",
      "outputs": [
        {
          "internalType": "bool",
          "name": "",
          "type": "bool"
        }
      ],
      "stateMutability": "nonpayable",
      "type": "function"
    },
    {
      "inputs": [
        {
          "internalType": "address",
          "name": "newOwner",
          "type": "address"
        }
      ],
      "name": "transferOwnership",
      "outputs": [],
      "stateMutability": "nonpayable",
      "type": "function"
    },
    {
      "stateMutability": "payable",
      "type": "receive",
      "payable": true
    },
    {
      "inputs": [
        {
          "internalType": "address",
          "name": "_address",
          "type": "address"
        },
        {
          "internalType": "bool",
          "name": "activate",
          "type": "bool"
        }
      ],
      "name": "setExcludeFromFeesAddress",
      "outputs": [],
      "stateMutability": "nonpayable",
      "type": "function"
    },
    {
      "inputs": [
        {
          "internalType": "address",
          "name": "_address",
          "type": "address"
        }
      ],
      "name": "getExcludeFromFeesAddress",
      "outputs": [
        {
          "internalType": "bool",
          "name": "_verify",
          "type": "bool"
        }
      ],
      "stateMutability": "view",
      "type": "function",
      "constant": true
    },
    {
      "inputs": [
        {
          "internalType": "address",
          "name": "_address",
          "type": "address"
        },
        {
          "internalType": "bool",
          "name": "activate",
          "type": "bool"
        }
      ],
      "name": "setAutomatedMarketMakerPairsAddress",
      "outputs": [],
      "stateMutability": "nonpayable",
      "type": "function"
    },
    {
      "inputs": [
        {
          "internalType": "address",
          "name": "_address",
          "type": "address"
        }
      ],
      "name": "getAutomatedMarketMakerPairsAddress",
      "outputs": [
        {
          "internalType": "bool",
          "name": "_verify",
          "type": "bool"
        }
      ],
      "stateMutability": "view",
      "type": "function",
      "constant": true
    },
    {
      "inputs": [
        {
          "internalType": "address",
          "name": "_address",
          "type": "address"
        }
      ],
      "name": "setMarketingWalletAddress",
      "outputs": [],
      "stateMutability": "nonpayable",
      "type": "function"
    },
    {
      "inputs": [
        {
          "internalType": "uint256",
          "name": "_amount",
          "type": "uint256"
        }
      ],
      "name": "setSwapWhen",
      "outputs": [],
      "stateMutability": "nonpayable",
      "type": "function"
    },
    {
      "inputs": [],
      "name": "getFounds",
      "outputs": [],
      "stateMutability": "nonpayable",
      "type": "function"
    },
    {
      "inputs": [
        {
          "internalType": "address",
          "name": "newAddress",
          "type": "address"
        }
      ],
      "name": "updateUniswapV2Router",
      "outputs": [],
      "stateMutability": "nonpayable",
      "type": "function"
    }
  ],
  "bytecode": "0x60806040523480156200001157600080fd5b50604051620041d1380380620041d1833981810160405281019062000037919062000c37565b6040518060400160405280600981526020017f57565720546f6b656e00000000000000000000000000000000000000000000008152506040518060400160405280600381526020017f57565700000000000000000000000000000000000000000000000000000000008152508160039081620000b4919062000f4a565b508060049081620000c6919062000f4a565b505050620000e9620000dd6200063160201b60201c565b6200063960201b60201c565b6200012986620000fe620006ff60201b60201c565b600a6200010c9190620011b4565b6305f5e1006200011d919062001205565b6200070860201b60201c565b82600760016101000a81548173ffffffffffffffffffffffffffffffffffffffff021916908373ffffffffffffffffffffffffffffffffffffffff16021790555084600760006101000a81548160ff021916908360ff16021790555083600681905550600082905060008173ffffffffffffffffffffffffffffffffffffffff1663c45a01556040518163ffffffff1660e01b8152600401602060405180830381865afa158015620001df573d6000803e3d6000fd5b505050506040513d601f19601f8201168201806040525081019062000205919062001250565b73ffffffffffffffffffffffffffffffffffffffff1663c9c65396308473ffffffffffffffffffffffffffffffffffffffff1663ad5c46486040518163ffffffff1660e01b8152600401602060405180830381865afa1580156200026d573d6000803e3d6000fd5b505050506040513d601f19601f8201168201806040525081019062000293919062001250565b6040518363ffffffff1660e01b8152600401620002b292919062001293565b6020604051808303816000875af1158015620002d2573d6000803e3d6000fd5b505050506040513d601f19601f82011682018060405250810190620002f8919062001250565b905081600a60006101000a81548173ffffffffffffffffffffffffffffffffffffffff021916908373ffffffffffffffffffffffffffffffffffffffff16021790555080600b60006101000a81548173ffffffffffffffffffffffffffffffffffffffff021916908373ffffffffffffffffffffffffffffffffffffffff1602179055506001600960008373ffffffffffffffffffffffffffffffffffffffff1673ffffffffffffffffffffffffffffffffffffffff16815260200190815260200160002060006101000a81548160ff0219169083151502179055506001600860003073ffffffffffffffffffffffffffffffffffffffff1673ffffffffffffffffffffffffffffffffffffffff16815260200190815260200160002060006101000a81548160ff021916908315150217905550600160086000620004426200087560201b60201c565b73ffffffffffffffffffffffffffffffffffffffff1673ffffffffffffffffffffffffffffffffffffffff16815260200190815260200160002060006101000a81548160ff0219169083151502179055506001600860008673ffffffffffffffffffffffffffffffffffffffff1673ffffffffffffffffffffffffffffffffffffffff16815260200190815260200160002060006101000a81548160ff0219169083151502179055506001600860008773ffffffffffffffffffffffffffffffffffffffff1673ffffffffffffffffffffffffffffffffffffffff16815260200190815260200160002060006101000a81548160ff02191690831515021790555060005b8351811015620005db576001600860008684815181106200056c576200056b620012c0565b5b602002602001015173ffffffffffffffffffffffffffffffffffffffff1673ffffffffffffffffffffffffffffffffffffffff16815260200190815260200160002060006101000a81548160ff0219169083151502179055508080620005d290620012ef565b91505062000546565b508873ffffffffffffffffffffffffffffffffffffffff163373ffffffffffffffffffffffffffffffffffffffff1614620006225762000621896200089f60201b60201c565b5b50505050505050505062001532565b600033905090565b6000600560009054906101000a900473ffffffffffffffffffffffffffffffffffffffff16905081600560006101000a81548173ffffffffffffffffffffffffffffffffffffffff021916908373ffffffffffffffffffffffffffffffffffffffff1602179055508173ffffffffffffffffffffffffffffffffffffffff168173ffffffffffffffffffffffffffffffffffffffff167f8be0079c531659141344cd1fd0a4f28419497f9722a3daafe3b4186f6b6457e060405160405180910390a35050565b60006012905090565b600073ffffffffffffffffffffffffffffffffffffffff168273ffffffffffffffffffffffffffffffffffffffff16036200077a576040517f08c379a000000000000000000000000000000000000000000000000000000000815260040162000771906200139d565b60405180910390fd5b6200078e600083836200093560201b60201c565b8060026000828254620007a29190620013bf565b92505081905550806000808473ffffffffffffffffffffffffffffffffffffffff1673ffffffffffffffffffffffffffffffffffffffff168152602001908152602001600020600082825401925050819055508173ffffffffffffffffffffffffffffffffffffffff16600073ffffffffffffffffffffffffffffffffffffffff167fddf252ad1be2c89b69c2b068fc378daa952ba7f163c4a11628f55a4df523b3ef836040516200085591906200140b565b60405180910390a362000871600083836200093a60201b60201c565b5050565b6000600560009054906101000a900473ffffffffffffffffffffffffffffffffffffffff16905090565b620008af6200093f60201b60201c565b600073ffffffffffffffffffffffffffffffffffffffff168173ffffffffffffffffffffffffffffffffffffffff160362000921576040517f08c379a000000000000000000000000000000000000000000000000000000000815260040162000918906200149e565b60405180910390fd5b62000932816200063960201b60201c565b50565b505050565b505050565b6200094f6200063160201b60201c565b73ffffffffffffffffffffffffffffffffffffffff16620009756200087560201b60201c565b73ffffffffffffffffffffffffffffffffffffffff1614620009ce576040517f08c379a0000000000000000000000000000000000000000000000000000000008152600401620009c59062001510565b60405180910390fd5b565b6000604051905090565b600080fd5b600080fd5b600073ffffffffffffffffffffffffffffffffffffffff82169050919050565b600062000a1182620009e4565b9050919050565b62000a238162000a04565b811462000a2f57600080fd5b50565b60008151905062000a438162000a18565b92915050565b600060ff82169050919050565b62000a618162000a49565b811462000a6d57600080fd5b50565b60008151905062000a818162000a56565b92915050565b6000819050919050565b62000a9c8162000a87565b811462000aa857600080fd5b50565b60008151905062000abc8162000a91565b92915050565b600080fd5b6000601f19601f8301169050919050565b7f4e487b7100000000000000000000000000000000000000000000000000000000600052604160045260246000fd5b62000b128262000ac7565b810181811067ffffffffffffffff8211171562000b345762000b3362000ad8565b5b80604052505050565b600062000b49620009d0565b905062000b57828262000b07565b919050565b600067ffffffffffffffff82111562000b7a5762000b7962000ad8565b5b602082029050602081019050919050565b600080fd5b600062000ba762000ba18462000b5c565b62000b3d565b9050808382526020820190506020840283018581111562000bcd5762000bcc62000b8b565b5b835b8181101562000bfa578062000be5888262000a32565b84526020840193505060208101905062000bcf565b5050509392505050565b600082601f83011262000c1c5762000c1b62000ac2565b5b815162000c2e84826020860162000b90565b91505092915050565b600080600080600080600060e0888a03121562000c595762000c58620009da565b5b600062000c698a828b0162000a32565b975050602062000c7c8a828b0162000a32565b965050604062000c8f8a828b0162000a70565b955050606062000ca28a828b0162000aab565b945050608062000cb58a828b0162000a32565b93505060a062000cc88a828b0162000a32565b92505060c088015167ffffffffffffffff81111562000cec5762000ceb620009df565b5b62000cfa8a828b0162000c04565b91505092959891949750929550565b600081519050919050565b7f4e487b7100000000000000000000000000000000000000000000000000000000600052602260045260246000fd5b6000600282049050600182168062000d5c57607f821691505b60208210810362000d725762000d7162000d14565b5b50919050565b60008190508160005260206000209050919050565b60006020601f8301049050919050565b600082821b905092915050565b60006008830262000ddc7fffffffffffffffffffffffffffffffffffffffffffffffffffffffffffffffff8262000d9d565b62000de8868362000d9d565b95508019841693508086168417925050509392505050565b6000819050919050565b600062000e2b62000e2562000e1f8462000a87565b62000e00565b62000a87565b9050919050565b6000819050919050565b62000e478362000e0a565b62000e5f62000e568262000e32565b84845462000daa565b825550505050565b600090565b62000e7662000e67565b62000e8381848462000e3c565b505050565b5b8181101562000eab5762000e9f60008262000e6c565b60018101905062000e89565b5050565b601f82111562000efa5762000ec48162000d78565b62000ecf8462000d8d565b8101602085101562000edf578190505b62000ef762000eee8562000d8d565b83018262000e88565b50505b505050565b600082821c905092915050565b600062000f1f6000198460080262000eff565b1980831691505092915050565b600062000f3a838362000f0c565b9150826002028217905092915050565b62000f558262000d09565b67ffffffffffffffff81111562000f715762000f7062000ad8565b5b62000f7d825462000d43565b62000f8a82828562000eaf565b600060209050601f83116001811462000fc2576000841562000fad578287015190505b62000fb9858262000f2c565b86555062001029565b601f19841662000fd28662000d78565b60005b8281101562000ffc5784890151825560018201915060208501945060208101905062000fd5565b868310156200101c578489015162001018601f89168262000f0c565b8355505b6001600288020188555050505b505050505050565b7f4e487b7100000000000000000000000000000000000000000000000000000000600052601160045260246000fd5b60008160011c9050919050565b6000808291508390505b6001851115620010bf5780860481111562001097576200109662001031565b5b6001851615620010a75780820291505b8081029050620010b78562001060565b945062001077565b94509492505050565b600082620010da5760019050620011ad565b81620010ea5760009050620011ad565b81600181146200110357600281146200110e5762001144565b6001915050620011ad565b60ff84111562001123576200112262001031565b5b8360020a9150848211156200113d576200113c62001031565b5b50620011ad565b5060208310610133831016604e8410600b84101617156200117e5782820a90508381111562001178576200117762001031565b5b620011ad565b6200118d84848460016200106d565b92509050818404811115620011a757620011a662001031565b5b81810290505b9392505050565b6000620011c18262000a87565b9150620011ce8362000a49565b9250620011fd7fffffffffffffffffffffffffffffffffffffffffffffffffffffffffffffffff8484620010c8565b905092915050565b6000620012128262000a87565b91506200121f8362000a87565b92508282026200122f8162000a87565b9150828204841483151762001249576200124862001031565b5b5092915050565b600060208284031215620012695762001268620009da565b5b6000620012798482850162000a32565b91505092915050565b6200128d8162000a04565b82525050565b6000604082019050620012aa600083018562001282565b620012b9602083018462001282565b9392505050565b7f4e487b7100000000000000000000000000000000000000000000000000000000600052603260045260246000fd5b6000620012fc8262000a87565b91507fffffffffffffffffffffffffffffffffffffffffffffffffffffffffffffffff820362001331576200133062001031565b5b600182019050919050565b600082825260208201905092915050565b7f45524332303a206d696e7420746f20746865207a65726f206164647265737300600082015250565b600062001385601f836200133c565b915062001392826200134d565b602082019050919050565b60006020820190508181036000830152620013b88162001376565b9050919050565b6000620013cc8262000a87565b9150620013d98362000a87565b9250828201905080821115620013f457620013f362001031565b5b92915050565b620014058162000a87565b82525050565b6000602082019050620014226000830184620013fa565b92915050565b7f4f776e61626c653a206e6577206f776e657220697320746865207a65726f206160008201527f6464726573730000000000000000000000000000000000000000000000000000602082015250565b6000620014866026836200133c565b9150620014938262001428565b604082019050919050565b60006020820190508181036000830152620014b98162001477565b9050919050565b7f4f776e61626c653a2063616c6c6572206973206e6f7420746865206f776e6572600082015250565b6000620014f86020836200133c565b91506200150582620014c0565b602082019050919050565b600060208201905081810360008301526200152b81620014e9565b9050919050565b612c8f80620015426000396000f3fe60806040526004361061014f5760003560e01c806365b8dbc0116100b657806395d89b411161006f57806395d89b4114610485578063a457c2d7146104b0578063a9059cbb146104ed578063c840b2061461052a578063dd62ed3e14610567578063f2fde38b146105a457610156565b806365b8dbc01461039d57806370a08231146103c6578063715018a61461040357806379cc67901461041a5780638c8d81a0146104435780638da5cb5b1461045a57610156565b806332d236cc1161010857806332d236cc1461027f578063336ad1b5146102a857806339509351146102e557806342966c68146103225780634a7694791461034b5780634cb80fd51461037457610156565b8063010f1fda1461015b57806306fdde0314610184578063095ea7b3146101af57806318160ddd146101ec57806323b872dd14610217578063313ce5671461025457610156565b3661015657005b600080fd5b34801561016757600080fd5b50610182600480360381019061017d9190611ecd565b6105cd565b005b34801561019057600080fd5b5061019961067e565b6040516101a69190611f9d565b60405180910390f35b3480156101bb57600080fd5b506101d660048036038101906101d19190611ff5565b610710565b6040516101e39190612044565b60405180910390f35b3480156101f857600080fd5b50610201610733565b60405161020e919061206e565b60405180910390f35b34801561022357600080fd5b5061023e60048036038101906102399190612089565b61073d565b60405161024b9190612044565b60405180910390f35b34801561026057600080fd5b5061026961076c565b60405161027691906120f8565b60405180910390f35b34801561028b57600080fd5b506102a660048036038101906102a19190612113565b610775565b005b3480156102b457600080fd5b506102cf60048036038101906102ca9190612140565b610787565b6040516102dc9190612044565b60405180910390f35b3480156102f157600080fd5b5061030c60048036038101906103079190611ff5565b6107dd565b6040516103199190612044565b60405180910390f35b34801561032e57600080fd5b5061034960048036038101906103449190612113565b610814565b005b34801561035757600080fd5b50610372600480360381019061036d9190611ecd565b610828565b005b34801561038057600080fd5b5061039b60048036038101906103969190612140565b6108d9565b005b3480156103a957600080fd5b506103c460048036038101906103bf9190612140565b610925565b005b3480156103d257600080fd5b506103ed60048036038101906103e89190612140565b610c61565b6040516103fa919061206e565b60405180910390f35b34801561040f57600080fd5b50610418610ca9565b005b34801561042657600080fd5b50610441600480360381019061043c9190611ff5565b610cbd565b005b34801561044f57600080fd5b50610458610cdd565b005b34801561046657600080fd5b5061046f610d35565b60405161047c919061217c565b60405180910390f35b34801561049157600080fd5b5061049a610d5f565b6040516104a79190611f9d565b60405180910390f35b3480156104bc57600080fd5b506104d760048036038101906104d29190611ff5565b610df1565b6040516104e49190612044565b60405180910390f35b3480156104f957600080fd5b50610514600480360381019061050f9190611ff5565b610e68565b6040516105219190612044565b60405180910390f35b34801561053657600080fd5b50610551600480360381019061054c9190612140565b610e8b565b60405161055e9190612044565b60405180910390f35b34801561057357600080fd5b5061058e60048036038101906105899190612197565b610ee1565b60405161059b919061206e565b60405180910390f35b3480156105b057600080fd5b506105cb60048036038101906105c69190612140565b610f68565b005b6105d5610feb565b80600960008473ffffffffffffffffffffffffffffffffffffffff1673ffffffffffffffffffffffffffffffffffffffff16815260200190815260200160002060006101000a81548160ff0219169083151502179055508173ffffffffffffffffffffffffffffffffffffffff167fc0b185562b450923c52a4ce1d3a37d7f86aa845584b092a954827eb424f8da06826040516106729190612044565b60405180910390a25050565b60606003805461068d90612206565b80601f01602080910402602001604051908101604052809291908181526020018280546106b990612206565b80156107065780601f106106db57610100808354040283529160200191610706565b820191906000526020600020905b8154815290600101906020018083116106e957829003601f168201915b5050505050905090565b60008061071b611069565b9050610728818585611071565b600191505092915050565b6000600254905090565b600080610748611069565b905061075585828561123a565b6107608585856112c6565b60019150509392505050565b60006012905090565b61077d610feb565b8060068190555050565b6000600960008373ffffffffffffffffffffffffffffffffffffffff1673ffffffffffffffffffffffffffffffffffffffff16815260200190815260200160002060009054906101000a900460ff169050919050565b6000806107e8611069565b90506108098185856107fa8589610ee1565b6108049190612266565b611071565b600191505092915050565b61082561081f611069565b826115e3565b50565b610830610feb565b80600860008473ffffffffffffffffffffffffffffffffffffffff1673ffffffffffffffffffffffffffffffffffffffff16815260200190815260200160002060006101000a81548160ff0219169083151502179055508173ffffffffffffffffffffffffffffffffffffffff167ffdc626fc4b6f2c12f4e66cbb23bfada9306a934da1d29c628e5ad71f4be5d97a826040516108cd9190612044565b60405180910390a25050565b6108e1610feb565b80600760016101000a81548173ffffffffffffffffffffffffffffffffffffffff021916908373ffffffffffffffffffffffffffffffffffffffff16021790555050565b61092d610feb565b600a60009054906101000a900473ffffffffffffffffffffffffffffffffffffffff1673ffffffffffffffffffffffffffffffffffffffff168173ffffffffffffffffffffffffffffffffffffffff16036109bd576040517f08c379a00000000000000000000000000000000000000000000000000000000081526004016109b49061230c565b60405180910390fd5b600a60009054906101000a900473ffffffffffffffffffffffffffffffffffffffff1673ffffffffffffffffffffffffffffffffffffffff168173ffffffffffffffffffffffffffffffffffffffff167f8fc842bbd331dfa973645f4ed48b11683d501ebf1352708d77a5da2ab49a576e60405160405180910390a380600a60006101000a81548173ffffffffffffffffffffffffffffffffffffffff021916908373ffffffffffffffffffffffffffffffffffffffff1602179055506000600a60009054906101000a900473ffffffffffffffffffffffffffffffffffffffff1673ffffffffffffffffffffffffffffffffffffffff1663c45a01556040518163ffffffff1660e01b8152600401602060405180830381865afa158015610ae9573d6000803e3d6000fd5b505050506040513d601f19601f82011682018060405250810190610b0d9190612341565b73ffffffffffffffffffffffffffffffffffffffff1663c9c6539630600a60009054906101000a900473ffffffffffffffffffffffffffffffffffffffff1673ffffffffffffffffffffffffffffffffffffffff1663ad5c46486040518163ffffffff1660e01b8152600401602060405180830381865afa158015610b96573d6000803e3d6000fd5b505050506040513d601f19601f82011682018060405250810190610bba9190612341565b6040518363ffffffff1660e01b8152600401610bd792919061236e565b6020604051808303816000875af1158015610bf6573d6000803e3d6000fd5b505050506040513d601f19601f82011682018060405250810190610c1a9190612341565b905080600b60006101000a81548173ffffffffffffffffffffffffffffffffffffffff021916908373ffffffffffffffffffffffffffffffffffffffff1602179055505050565b60008060008373ffffffffffffffffffffffffffffffffffffffff1673ffffffffffffffffffffffffffffffffffffffff168152602001908152602001600020549050919050565b610cb1610feb565b610cbb60006117b0565b565b610ccf82610cc9611069565b8361123a565b610cd982826115e3565b5050565b610ce5610feb565b610ced610d35565b73ffffffffffffffffffffffffffffffffffffffff166108fc479081150290604051600060405180830381858888f19350505050158015610d32573d6000803e3d6000fd5b50565b6000600560009054906101000a900473ffffffffffffffffffffffffffffffffffffffff16905090565b606060048054610d6e90612206565b80601f0160208091040260200160405190810160405280929190818152602001828054610d9a90612206565b8015610de75780601f10610dbc57610100808354040283529160200191610de7565b820191906000526020600020905b815481529060010190602001808311610dca57829003601f168201915b5050505050905090565b600080610dfc611069565b90506000610e0a8286610ee1565b905083811015610e4f576040517f08c379a0000000000000000000000000000000000000000000000000000000008152600401610e4690612409565b60405180910390fd5b610e5c8286868403611071565b60019250505092915050565b600080610e73611069565b9050610e808185856112c6565b600191505092915050565b6000600860008373ffffffffffffffffffffffffffffffffffffffff1673ffffffffffffffffffffffffffffffffffffffff16815260200190815260200160002060009054906101000a900460ff169050919050565b6000600160008473ffffffffffffffffffffffffffffffffffffffff1673ffffffffffffffffffffffffffffffffffffffff16815260200190815260200160002060008373ffffffffffffffffffffffffffffffffffffffff1673ffffffffffffffffffffffffffffffffffffffff16815260200190815260200160002054905092915050565b610f70610feb565b600073ffffffffffffffffffffffffffffffffffffffff168173ffffffffffffffffffffffffffffffffffffffff1603610fdf576040517f08c379a0000000000000000000000000000000000000000000000000000000008152600401610fd69061249b565b60405180910390fd5b610fe8816117b0565b50565b610ff3611069565b73ffffffffffffffffffffffffffffffffffffffff16611011610d35565b73ffffffffffffffffffffffffffffffffffffffff1614611067576040517f08c379a000000000000000000000000000000000000000000000000000000000815260040161105e90612507565b60405180910390fd5b565b600033905090565b600073ffffffffffffffffffffffffffffffffffffffff168373ffffffffffffffffffffffffffffffffffffffff16036110e0576040517f08c379a00000000000000000000000000000000000000000000000000000000081526004016110d790612599565b60405180910390fd5b600073ffffffffffffffffffffffffffffffffffffffff168273ffffffffffffffffffffffffffffffffffffffff160361114f576040517f08c379a00000000000000000000000000000000000000000000000000000000081526004016111469061262b565b60405180910390fd5b80600160008573ffffffffffffffffffffffffffffffffffffffff1673ffffffffffffffffffffffffffffffffffffffff16815260200190815260200160002060008473ffffffffffffffffffffffffffffffffffffffff1673ffffffffffffffffffffffffffffffffffffffff168152602001908152602001600020819055508173ffffffffffffffffffffffffffffffffffffffff168373ffffffffffffffffffffffffffffffffffffffff167f8c5be1e5ebec7d5bd14f71427d1e84f3dd0314c0f7b2291e5b200ac8c7c3b9258360405161122d919061206e565b60405180910390a3505050565b60006112468484610ee1565b90507fffffffffffffffffffffffffffffffffffffffffffffffffffffffffffffffff81146112c057818110156112b2576040517f08c379a00000000000000000000000000000000000000000000000000000000081526004016112a990612697565b60405180910390fd5b6112bf8484848403611071565b5b50505050565b600081036112df576112da83836000611876565b6115de565b6000600960008573ffffffffffffffffffffffffffffffffffffffff1673ffffffffffffffffffffffffffffffffffffffff16815260200190815260200160002060009054906101000a900460ff16806113825750600960008473ffffffffffffffffffffffffffffffffffffffff1673ffffffffffffffffffffffffffffffffffffffff16815260200190815260200160002060009054906101000a900460ff165b1561138c57600190505b600060065461139a30610c61565b1190508080156113b75750600760159054906101000a900460ff16155b801561140d5750600960008673ffffffffffffffffffffffffffffffffffffffff1673ffffffffffffffffffffffffffffffffffffffff16815260200190815260200160002060009054906101000a900460ff16155b801561144c575061141c610d35565b73ffffffffffffffffffffffffffffffffffffffff168573ffffffffffffffffffffffffffffffffffffffff1614155b801561148b575061145b610d35565b73ffffffffffffffffffffffffffffffffffffffff168473ffffffffffffffffffffffffffffffffffffffff1614155b156114d8576001600760156101000a81548160ff0219169083151502179055506114bc6114b730610c61565b611aec565b6000600760156101000a81548160ff0219169083151502179055505b6000600760159054906101000a900460ff16159050600860008773ffffffffffffffffffffffffffffffffffffffff1673ffffffffffffffffffffffffffffffffffffffff16815260200190815260200160002060009054906101000a900460ff168061158e5750600860008673ffffffffffffffffffffffffffffffffffffffff1673ffffffffffffffffffffffffffffffffffffffff16815260200190815260200160002060009054906101000a900460ff165b1561159857600090505b8080156115a25750825b156115cf5760006115b285611df5565b905080856115c091906126b7565b94506115cd873083611876565b505b6115da868686611876565b5050505b505050565b600073ffffffffffffffffffffffffffffffffffffffff168273ffffffffffffffffffffffffffffffffffffffff1603611652576040517f08c379a00000000000000000000000000000000000000000000000000000000081526004016116499061275d565b60405180910390fd5b61165e82600083611e28565b60008060008473ffffffffffffffffffffffffffffffffffffffff1673ffffffffffffffffffffffffffffffffffffffff168152602001908152602001600020549050818110156116e4576040517f08c379a00000000000000000000000000000000000000000000000000000000081526004016116db906127ef565b60405180910390fd5b8181036000808573ffffffffffffffffffffffffffffffffffffffff1673ffffffffffffffffffffffffffffffffffffffff1681526020019081526020016000208190555081600260008282540392505081905550600073ffffffffffffffffffffffffffffffffffffffff168373ffffffffffffffffffffffffffffffffffffffff167fddf252ad1be2c89b69c2b068fc378daa952ba7f163c4a11628f55a4df523b3ef84604051611797919061206e565b60405180910390a36117ab83600084611e2d565b505050565b6000600560009054906101000a900473ffffffffffffffffffffffffffffffffffffffff16905081600560006101000a81548173ffffffffffffffffffffffffffffffffffffffff021916908373ffffffffffffffffffffffffffffffffffffffff1602179055508173ffffffffffffffffffffffffffffffffffffffff168173ffffffffffffffffffffffffffffffffffffffff167f8be0079c531659141344cd1fd0a4f28419497f9722a3daafe3b4186f6b6457e060405160405180910390a35050565b600073ffffffffffffffffffffffffffffffffffffffff168373ffffffffffffffffffffffffffffffffffffffff16036118e5576040517f08c379a00000000000000000000000000000000000000000000000000000000081526004016118dc90612881565b60405180910390fd5b600073ffffffffffffffffffffffffffffffffffffffff168273ffffffffffffffffffffffffffffffffffffffff1603611954576040517f08c379a000000000000000000000000000000000000000000000000000000000815260040161194b90612913565b60405180910390fd5b61195f838383611e28565b60008060008573ffffffffffffffffffffffffffffffffffffffff1673ffffffffffffffffffffffffffffffffffffffff168152602001908152602001600020549050818110156119e5576040517f08c379a00000000000000000000000000000000000000000000000000000000081526004016119dc906129a5565b60405180910390fd5b8181036000808673ffffffffffffffffffffffffffffffffffffffff1673ffffffffffffffffffffffffffffffffffffffff16815260200190815260200160002081905550816000808573ffffffffffffffffffffffffffffffffffffffff1673ffffffffffffffffffffffffffffffffffffffff168152602001908152602001600020600082825401925050819055508273ffffffffffffffffffffffffffffffffffffffff168473ffffffffffffffffffffffffffffffffffffffff167fddf252ad1be2c89b69c2b068fc378daa952ba7f163c4a11628f55a4df523b3ef84604051611ad3919061206e565b60405180910390a3611ae6848484611e2d565b50505050565b6000600267ffffffffffffffff811115611b0957611b086129c5565b5b604051908082528060200260200182016040528015611b375781602001602082028036833780820191505090505b5090503081600081518110611b4f57611b4e6129f4565b5b602002602001019073ffffffffffffffffffffffffffffffffffffffff16908173ffffffffffffffffffffffffffffffffffffffff1681525050600a60009054906101000a900473ffffffffffffffffffffffffffffffffffffffff1673ffffffffffffffffffffffffffffffffffffffff1663ad5c46486040518163ffffffff1660e01b8152600401602060405180830381865afa158015611bf6573d6000803e3d6000fd5b505050506040513d601f19601f82011682018060405250810190611c1a9190612341565b81600181518110611c2e57611c2d6129f4565b5b602002602001019073ffffffffffffffffffffffffffffffffffffffff16908173ffffffffffffffffffffffffffffffffffffffff1681525050611c9530600a60009054906101000a900473ffffffffffffffffffffffffffffffffffffffff1684611071565b600a60009054906101000a900473ffffffffffffffffffffffffffffffffffffffff1673ffffffffffffffffffffffffffffffffffffffff1663791ac9478360008430426040518663ffffffff1660e01b8152600401611cf9959493929190612b26565b600060405180830381600087803b158015611d1357600080fd5b505af1158015611d27573d6000803e3d6000fd5b50505050600760019054906101000a900473ffffffffffffffffffffffffffffffffffffffff1673ffffffffffffffffffffffffffffffffffffffff166108fc479081150290604051600060405180830381858888f19350505050158015611d93573d6000803e3d6000fd5b507f27f5e7f74573d62218b16aae1533d920e98dcf5eff93d71ed2a3b7eb2aa59ed58247600760019054906101000a900473ffffffffffffffffffffffffffffffffffffffff16604051611de993929190612b80565b60405180910390a15050565b60006064600760009054906101000a900460ff1660ff1683611e179190612bb7565b611e219190612c28565b9050919050565b505050565b505050565b600080fd5b600073ffffffffffffffffffffffffffffffffffffffff82169050919050565b6000611e6282611e37565b9050919050565b611e7281611e57565b8114611e7d57600080fd5b50565b600081359050611e8f81611e69565b92915050565b60008115159050919050565b611eaa81611e95565b8114611eb557600080fd5b50565b600081359050611ec781611ea1565b92915050565b60008060408385031215611ee457611ee3611e32565b5b6000611ef285828601611e80565b9250506020611f0385828601611eb8565b9150509250929050565b600081519050919050565b600082825260208201905092915050565b60005b83811015611f47578082015181840152602081019050611f2c565b60008484015250505050565b6000601f19601f8301169050919050565b6000611f6f82611f0d565b611f798185611f18565b9350611f89818560208601611f29565b611f9281611f53565b840191505092915050565b60006020820190508181036000830152611fb78184611f64565b905092915050565b6000819050919050565b611fd281611fbf565b8114611fdd57600080fd5b50565b600081359050611fef81611fc9565b92915050565b6000806040838503121561200c5761200b611e32565b5b600061201a85828601611e80565b925050602061202b85828601611fe0565b9150509250929050565b61203e81611e95565b82525050565b60006020820190506120596000830184612035565b92915050565b61206881611fbf565b82525050565b6000602082019050612083600083018461205f565b92915050565b6000806000606084860312156120a2576120a1611e32565b5b60006120b086828701611e80565b93505060206120c186828701611e80565b92505060406120d286828701611fe0565b9150509250925092565b600060ff82169050919050565b6120f2816120dc565b82525050565b600060208201905061210d60008301846120e9565b92915050565b60006020828403121561212957612128611e32565b5b600061213784828501611fe0565b91505092915050565b60006020828403121561215657612155611e32565b5b600061216484828501611e80565b91505092915050565b61217681611e57565b82525050565b6000602082019050612191600083018461216d565b92915050565b600080604083850312156121ae576121ad611e32565b5b60006121bc85828601611e80565b92505060206121cd85828601611e80565b9150509250929050565b7f4e487b7100000000000000000000000000000000000000000000000000000000600052602260045260246000fd5b6000600282049050600182168061221e57607f821691505b602082108103612231576122306121d7565b5b50919050565b7f4e487b7100000000000000000000000000000000000000000000000000000000600052601160045260246000fd5b600061227182611fbf565b915061227c83611fbf565b925082820190508082111561229457612293612237565b5b92915050565b7f575657546f6b656e3a2054686520726f7574657220616c72656164792068617360008201527f2074686174206164647265737300000000000000000000000000000000000000602082015250565b60006122f6602d83611f18565b91506123018261229a565b604082019050919050565b60006020820190508181036000830152612325816122e9565b9050919050565b60008151905061233b81611e69565b92915050565b60006020828403121561235757612356611e32565b5b60006123658482850161232c565b91505092915050565b6000604082019050612383600083018561216d565b612390602083018461216d565b9392505050565b7f45524332303a2064656372656173656420616c6c6f77616e63652062656c6f7760008201527f207a65726f000000000000000000000000000000000000000000000000000000602082015250565b60006123f3602583611f18565b91506123fe82612397565b604082019050919050565b60006020820190508181036000830152612422816123e6565b9050919050565b7f4f776e61626c653a206e6577206f776e657220697320746865207a65726f206160008201527f6464726573730000000000000000000000000000000000000000000000000000602082015250565b6000612485602683611f18565b915061249082612429565b604082019050919050565b600060208201905081810360008301526124b481612478565b9050919050565b7f4f776e61626c653a2063616c6c6572206973206e6f7420746865206f776e6572600082015250565b60006124f1602083611f18565b91506124fc826124bb565b602082019050919050565b60006020820190508181036000830152612520816124e4565b9050919050565b7f45524332303a20617070726f76652066726f6d20746865207a65726f2061646460008201527f7265737300000000000000000000000000000000000000000000000000000000602082015250565b6000612583602483611f18565b915061258e82612527565b604082019050919050565b600060208201905081810360008301526125b281612576565b9050919050565b7f45524332303a20617070726f766520746f20746865207a65726f20616464726560008201527f7373000000000000000000000000000000000000000000000000000000000000602082015250565b6000612615602283611f18565b9150612620826125b9565b604082019050919050565b6000602082019050818103600083015261264481612608565b9050919050565b7f45524332303a20696e73756666696369656e7420616c6c6f77616e6365000000600082015250565b6000612681601d83611f18565b915061268c8261264b565b602082019050919050565b600060208201905081810360008301526126b081612674565b9050919050565b60006126c282611fbf565b91506126cd83611fbf565b92508282039050818111156126e5576126e4612237565b5b92915050565b7f45524332303a206275726e2066726f6d20746865207a65726f2061646472657360008201527f7300000000000000000000000000000000000000000000000000000000000000602082015250565b6000612747602183611f18565b9150612752826126eb565b604082019050919050565b600060208201905081810360008301526127768161273a565b9050919050565b7f45524332303a206275726e20616d6f756e7420657863656564732062616c616e60008201527f6365000000000000000000000000000000000000000000000000000000000000602082015250565b60006127d9602283611f18565b91506127e48261277d565b604082019050919050565b60006020820190508181036000830152612808816127cc565b9050919050565b7f45524332303a207472616e736665722066726f6d20746865207a65726f20616460008201527f6472657373000000000000000000000000000000000000000000000000000000602082015250565b600061286b602583611f18565b91506128768261280f565b604082019050919050565b6000602082019050818103600083015261289a8161285e565b9050919050565b7f45524332303a207472616e7366657220746f20746865207a65726f206164647260008201527f6573730000000000000000000000000000000000000000000000000000000000602082015250565b60006128fd602383611f18565b9150612908826128a1565b604082019050919050565b6000602082019050818103600083015261292c816128f0565b9050919050565b7f45524332303a207472616e7366657220616d6f756e742065786365656473206260008201527f616c616e63650000000000000000000000000000000000000000000000000000602082015250565b600061298f602683611f18565b915061299a82612933565b604082019050919050565b600060208201905081810360008301526129be81612982565b9050919050565b7f4e487b7100000000000000000000000000000000000000000000000000000000600052604160045260246000fd5b7f4e487b7100000000000000000000000000000000000000000000000000000000600052603260045260246000fd5b6000819050919050565b6000819050919050565b6000612a52612a4d612a4884612a23565b612a2d565b611fbf565b9050919050565b612a6281612a37565b82525050565b600081519050919050565b600082825260208201905092915050565b6000819050602082019050919050565b612a9d81611e57565b82525050565b6000612aaf8383612a94565b60208301905092915050565b6000602082019050919050565b6000612ad382612a68565b612add8185612a73565b9350612ae883612a84565b8060005b83811015612b19578151612b008882612aa3565b9750612b0b83612abb565b925050600181019050612aec565b5085935050505092915050565b600060a082019050612b3b600083018861205f565b612b486020830187612a59565b8181036040830152612b5a8186612ac8565b9050612b69606083018561216d565b612b76608083018461205f565b9695505050505050565b6000606082019050612b95600083018661205f565b612ba2602083018561205f565b612baf604083018461216d565b949350505050565b6000612bc282611fbf565b9150612bcd83611fbf565b9250828202612bdb81611fbf565b91508282048414831517612bf257612bf1612237565b5b5092915050565b7f4e487b7100000000000000000000000000000000000000000000000000000000600052601260045260246000fd5b6000612c3382611fbf565b9150612c3e83611fbf565b925082612c4e57612c4d612bf9565b5b82820490509291505056fea26469706673582212200ba2d9df88ee3f22b92df7cff3db4b56992e6c8242e9fa01d524dc762df86c0264736f6c63430008110033",
  "immutableReferences": {},
  "source": "// SPDX-License-Identifier: MIT\r\npragma solidity ^0.8.9;\r\n\r\nimport \"@openzeppelin/contracts/token/ERC20/ERC20.sol\";\r\nimport \"@openzeppelin/contracts/token/ERC20/extensions/ERC20Burnable.sol\";\r\nimport \"@openzeppelin/contracts/access/Ownable.sol\";\r\n\r\n// Uniswap Interfaces for Swapping rules\r\nimport \"./interfaces/IUniswapV2Factory.sol\";\r\nimport \"./interfaces/IUniswapV2Pair.sol\";\r\nimport \"./interfaces/IUniswapV2Router.sol\";\r\n\r\ncontract WVWToken is ERC20, ERC20Burnable, Ownable {\r\n    uint256 _swapWhen;\r\n    uint8 private _fee;\r\n    address private _marketingWalletAddress;\r\n    bool private swapping;\r\n\r\n    mapping(address => bool) private _isExcludedFromFees;\r\n    mapping(address => bool) private _automatedMarketMakerPairs;\r\n\r\n    IUniswapV2Router02 uniswapV2Router;\r\n    address uniswapV2Pair;\r\n\r\n    event TransferWithFee(\r\n        address indexed from,\r\n        address indexed to,\r\n        uint256 amount,\r\n        uint256 feeAmount\r\n    );\r\n\r\n    event UpdateUniswapV2Router(\r\n        address indexed newAddress,\r\n        address indexed oldAddress\r\n    );\r\n\r\n    event SwapForFees(\r\n        uint256 tokensSwapped,\r\n        uint256 ethReceived,\r\n        address addressReceived\r\n    );\r\n\r\n    event ChangeExcludeFromFee(address indexed newAddress, bool status);\r\n    event ChangeAutomatedMarketPairs(address indexed newAddress, bool status);\r\n\r\n    constructor(\r\n        address owner_,\r\n        address distributionContract_,\r\n        uint8 fee_,\r\n        uint256 swapWhen_,\r\n        address marketingWalletAddress_,\r\n        address uniswapV2Router_,\r\n        address[] memory excludeFromFeeAddresses_\r\n    ) ERC20(\"WVW Token\", \"WVW\") {\r\n        _mint(distributionContract_, 100000000 * 10**decimals());\r\n        _marketingWalletAddress = marketingWalletAddress_;\r\n        _fee = fee_;\r\n        _swapWhen = swapWhen_;\r\n\r\n        IUniswapV2Router02 _uniswapV2Router = IUniswapV2Router02(\r\n            uniswapV2Router_\r\n        );\r\n\r\n        // Creates a Uniswap Pair for the new token.\r\n        address _uniswapV2Pair = IUniswapV2Factory(_uniswapV2Router.factory())\r\n            .createPair(address(this), _uniswapV2Router.WETH());\r\n\r\n        uniswapV2Router = _uniswapV2Router;\r\n        uniswapV2Pair = _uniswapV2Pair;\r\n\r\n        // Include uniswap pair on automatedMarket\r\n        _automatedMarketMakerPairs[_uniswapV2Pair] = true;\r\n\r\n        //Excludes address from fees.\r\n        _isExcludedFromFees[address(this)] = true;\r\n        _isExcludedFromFees[owner()] = true;\r\n        _isExcludedFromFees[uniswapV2Router_] = true;\r\n        _isExcludedFromFees[marketingWalletAddress_] = true;\r\n\r\n        // Send list of Custom excluded from fees\r\n        for (uint256 i = 0; i < excludeFromFeeAddresses_.length; i++) {\r\n            _isExcludedFromFees[excludeFromFeeAddresses_[i]] = true;\r\n        }\r\n\r\n        // Transfer ownership if sender is not the owner_\r\n        if (msg.sender != owner_) {\r\n            transferOwnership(owner_);\r\n        }\r\n    }\r\n\r\n    function _transfer(\r\n        address from,\r\n        address to,\r\n        uint256 amount\r\n    ) internal virtual override {\r\n\r\n        if (amount == 0) {\r\n            super._transfer(from, to, 0);\r\n            return;\r\n        }\r\n\r\n        bool isTrade = false;\r\n\r\n        if (\r\n            _automatedMarketMakerPairs[from] || _automatedMarketMakerPairs[to]\r\n        ) {\r\n            isTrade = true;\r\n        }\r\n\r\n        bool canSwap = balanceOf(address(this)) > _swapWhen;\r\n\r\n        if (\r\n            canSwap &&\r\n            !swapping &&\r\n            !_automatedMarketMakerPairs[from] &&\r\n            from != owner() &&\r\n            to != owner()\r\n        ) {\r\n            swapping = true;\r\n            swapTokensForEth(balanceOf(address(this)));\r\n            swapping = false;\r\n        }\r\n\r\n        bool takeFee = !swapping;\r\n\r\n        if (_isExcludedFromFees[from] || _isExcludedFromFees[to]) {\r\n            takeFee = false;\r\n        }\r\n\r\n        if (takeFee && isTrade) {\r\n            uint256 feeAmount = _calcFee(amount);\r\n            amount -= feeAmount;\r\n            super._transfer(from, address(this), feeAmount);\r\n        }\r\n\r\n        super._transfer(from, to, amount);\r\n    }\r\n\r\n    function _calcFee(uint256 amount) private view returns (uint256) {\r\n        return (amount * _fee) / 100;\r\n    }\r\n\r\n    function setExcludeFromFeesAddress(address _address, bool activate)\r\n        external\r\n        onlyOwner\r\n    {\r\n        _isExcludedFromFees[_address] = activate;\r\n        emit ChangeExcludeFromFee(_address, activate);\r\n    }\r\n\r\n    function getExcludeFromFeesAddress(address _address)\r\n        external view\r\n        returns (bool _verify)\r\n    {\r\n        return _isExcludedFromFees[_address];\r\n    }\r\n\r\n    function setAutomatedMarketMakerPairsAddress(\r\n        address _address,\r\n        bool activate\r\n    ) external onlyOwner {\r\n        _automatedMarketMakerPairs[_address] = activate;\r\n        emit ChangeAutomatedMarketPairs(_address, activate);\r\n    }\r\n\r\n    function getAutomatedMarketMakerPairsAddress(address _address) external view returns (bool _verify) {\r\n        return _automatedMarketMakerPairs[_address];\r\n    }\r\n\r\n    function setMarketingWalletAddress(address _address) external onlyOwner {\r\n        _marketingWalletAddress = _address;\r\n    }\r\n\r\n    function setSwapWhen(uint256 _amount) external onlyOwner {\r\n        _swapWhen = _amount;\r\n    }\r\n\r\n    function swapTokensForEth(uint256 tokenAmount) private {\r\n        // generates the uniswap pair path of token <> weth\r\n        address[] memory path = new address[](2);\r\n        path[0] = address(this);\r\n        path[1] = uniswapV2Router.WETH();\r\n\r\n        _approve(address(this), address(uniswapV2Router), tokenAmount);\r\n\r\n        // make the swap\r\n        uniswapV2Router.swapExactTokensForETHSupportingFeeOnTransferTokens(\r\n            tokenAmount,\r\n            0, // accept any amount of ETH\r\n            path,\r\n            address(this),\r\n            block.timestamp\r\n        );\r\n\r\n        // Send ETH from contract to marketingWalletAddress\r\n        payable(_marketingWalletAddress).transfer(address(this).balance);\r\n        emit SwapForFees(\r\n            tokenAmount,\r\n            address(this).balance,\r\n            _marketingWalletAddress\r\n        );\r\n    }\r\n\r\n    function getFounds() external onlyOwner {\r\n        payable(owner()).transfer(address(this).balance);\r\n    }\r\n\r\n    function updateUniswapV2Router(address newAddress) external onlyOwner {\r\n        require(\r\n            newAddress != address(uniswapV2Router),\r\n            \"WVWToken: The router already has that address\"\r\n        );\r\n        emit UpdateUniswapV2Router(newAddress, address(uniswapV2Router));\r\n        uniswapV2Router = IUniswapV2Router02(newAddress);\r\n        address _uniswapV2Pair = IUniswapV2Factory(uniswapV2Router.factory())\r\n            .createPair(address(this), uniswapV2Router.WETH());\r\n        uniswapV2Pair = _uniswapV2Pair;\r\n    }\r\n\r\n    receive() external payable {}\r\n}\r\n",
  "sourcePath": "C:\\lucas_blockchain\\freela\\YF_CONSULTORIA\\wvw\\Truffle\\contracts\\WVWToken.sol",
  "compiler": {
    "name": "solc",
    "version": "0.8.17+commit.8df45f5f.Emscripten.clang"
  },
  "schemaVersion": "3.4.11",
  "updatedAt": "2023-03-01T17:39:39.968Z",
  "networkType": "ethereum",
  "devdoc": {
    "kind": "dev",
    "methods": {
      "allowance(address,address)": {
        "details": "See {IERC20-allowance}."
      },
      "approve(address,uint256)": {
        "details": "See {IERC20-approve}. NOTE: If `amount` is the maximum `uint256`, the allowance is not updated on `transferFrom`. This is semantically equivalent to an infinite approval. Requirements: - `spender` cannot be the zero address."
      },
      "balanceOf(address)": {
        "details": "See {IERC20-balanceOf}."
      },
      "burn(uint256)": {
        "details": "Destroys `amount` tokens from the caller. See {ERC20-_burn}."
      },
      "burnFrom(address,uint256)": {
        "details": "Destroys `amount` tokens from `account`, deducting from the caller's allowance. See {ERC20-_burn} and {ERC20-allowance}. Requirements: - the caller must have allowance for ``accounts``'s tokens of at least `amount`."
      },
      "decimals()": {
        "details": "Returns the number of decimals used to get its user representation. For example, if `decimals` equals `2`, a balance of `505` tokens should be displayed to a user as `5.05` (`505 / 10 ** 2`). Tokens usually opt for a value of 18, imitating the relationship between Ether and Wei. This is the value {ERC20} uses, unless this function is overridden; NOTE: This information is only used for _display_ purposes: it in no way affects any of the arithmetic of the contract, including {IERC20-balanceOf} and {IERC20-transfer}."
      },
      "decreaseAllowance(address,uint256)": {
        "details": "Atomically decreases the allowance granted to `spender` by the caller. This is an alternative to {approve} that can be used as a mitigation for problems described in {IERC20-approve}. Emits an {Approval} event indicating the updated allowance. Requirements: - `spender` cannot be the zero address. - `spender` must have allowance for the caller of at least `subtractedValue`."
      },
      "increaseAllowance(address,uint256)": {
        "details": "Atomically increases the allowance granted to `spender` by the caller. This is an alternative to {approve} that can be used as a mitigation for problems described in {IERC20-approve}. Emits an {Approval} event indicating the updated allowance. Requirements: - `spender` cannot be the zero address."
      },
      "name()": {
        "details": "Returns the name of the token."
      },
      "owner()": {
        "details": "Returns the address of the current owner."
      },
      "renounceOwnership()": {
        "details": "Leaves the contract without owner. It will not be possible to call `onlyOwner` functions anymore. Can only be called by the current owner. NOTE: Renouncing ownership will leave the contract without an owner, thereby removing any functionality that is only available to the owner."
      },
      "symbol()": {
        "details": "Returns the symbol of the token, usually a shorter version of the name."
      },
      "totalSupply()": {
        "details": "See {IERC20-totalSupply}."
      },
      "transfer(address,uint256)": {
        "details": "See {IERC20-transfer}. Requirements: - `to` cannot be the zero address. - the caller must have a balance of at least `amount`."
      },
      "transferFrom(address,address,uint256)": {
        "details": "See {IERC20-transferFrom}. Emits an {Approval} event indicating the updated allowance. This is not required by the EIP. See the note at the beginning of {ERC20}. NOTE: Does not update the allowance if the current allowance is the maximum `uint256`. Requirements: - `from` and `to` cannot be the zero address. - `from` must have a balance of at least `amount`. - the caller must have allowance for ``from``'s tokens of at least `amount`."
      },
      "transferOwnership(address)": {
        "details": "Transfers ownership of the contract to a new account (`newOwner`). Can only be called by the current owner."
      }
    },
    "version": 1
  },
  "userdoc": {
    "kind": "user",
    "methods": {},
    "version": 1
  }
}