{
  "contractName": "WVWTicketSale",
  "abi": [
    {
      "inputs": [
        {
          "internalType": "address",
          "name": "_erc20",
          "type": "address"
        },
        {
          "internalType": "address",
          "name": "_erc721",
          "type": "address"
        },
        {
          "internalType": "address",
          "name": "_owner",
          "type": "address"
        },
        {
          "internalType": "address",
          "name": "_walletReward",
          "type": "address"
        },
        {
          "internalType": "address",
          "name": "_walletTeam",
          "type": "address"
        },
        {
          "internalType": "uint256",
          "name": "_plan1Price",
          "type": "uint256"
        },
        {
          "internalType": "uint256",
          "name": "_plan2Price",
          "type": "uint256"
        },
        {
          "internalType": "uint256",
          "name": "_plan3Price",
          "type": "uint256"
        }
      ],
      "stateMutability": "nonpayable",
      "type": "constructor"
    },
    {
      "anonymous": false,
      "inputs": [
        {
          "indexed": true,
          "internalType": "address",
          "name": "_buyer",
          "type": "address"
        },
        {
          "indexed": false,
          "internalType": "uint8",
          "name": "_plan",
          "type": "uint8"
        }
      ],
      "name": "BuyTicket",
      "type": "event"
    },
    {
      "anonymous": false,
      "inputs": [
        {
          "indexed": false,
          "internalType": "address",
          "name": "account",
          "type": "address"
        }
      ],
      "name": "Paused",
      "type": "event"
    },
    {
      "anonymous": false,
      "inputs": [
        {
          "indexed": true,
          "internalType": "bytes32",
          "name": "role",
          "type": "bytes32"
        },
        {
          "indexed": true,
          "internalType": "bytes32",
          "name": "previousAdminRole",
          "type": "bytes32"
        },
        {
          "indexed": true,
          "internalType": "bytes32",
          "name": "newAdminRole",
          "type": "bytes32"
        }
      ],
      "name": "RoleAdminChanged",
      "type": "event"
    },
    {
      "anonymous": false,
      "inputs": [
        {
          "indexed": true,
          "internalType": "bytes32",
          "name": "role",
          "type": "bytes32"
        },
        {
          "indexed": true,
          "internalType": "address",
          "name": "account",
          "type": "address"
        },
        {
          "indexed": true,
          "internalType": "address",
          "name": "sender",
          "type": "address"
        }
      ],
      "name": "RoleGranted",
      "type": "event"
    },
    {
      "anonymous": false,
      "inputs": [
        {
          "indexed": true,
          "internalType": "bytes32",
          "name": "role",
          "type": "bytes32"
        },
        {
          "indexed": true,
          "internalType": "address",
          "name": "account",
          "type": "address"
        },
        {
          "indexed": true,
          "internalType": "address",
          "name": "sender",
          "type": "address"
        }
      ],
      "name": "RoleRevoked",
      "type": "event"
    },
    {
      "anonymous": false,
      "inputs": [
        {
          "indexed": false,
          "internalType": "address",
          "name": "account",
          "type": "address"
        }
      ],
      "name": "Unpaused",
      "type": "event"
    },
    {
      "inputs": [],
      "name": "DEFAULT_ADMIN_ROLE",
      "outputs": [
        {
          "internalType": "bytes32",
          "name": "",
          "type": "bytes32"
        }
      ],
      "stateMutability": "view",
      "type": "function",
      "constant": true
    },
    {
      "inputs": [
        {
          "internalType": "bytes32",
          "name": "role",
          "type": "bytes32"
        }
      ],
      "name": "getRoleAdmin",
      "outputs": [
        {
          "internalType": "bytes32",
          "name": "",
          "type": "bytes32"
        }
      ],
      "stateMutability": "view",
      "type": "function",
      "constant": true
    },
    {
      "inputs": [
        {
          "internalType": "bytes32",
          "name": "role",
          "type": "bytes32"
        },
        {
          "internalType": "address",
          "name": "account",
          "type": "address"
        }
      ],
      "name": "grantRole",
      "outputs": [],
      "stateMutability": "nonpayable",
      "type": "function"
    },
    {
      "inputs": [
        {
          "internalType": "bytes32",
          "name": "role",
          "type": "bytes32"
        },
        {
          "internalType": "address",
          "name": "account",
          "type": "address"
        }
      ],
      "name": "hasRole",
      "outputs": [
        {
          "internalType": "bool",
          "name": "",
          "type": "bool"
        }
      ],
      "stateMutability": "view",
      "type": "function",
      "constant": true
    },
    {
      "inputs": [],
      "name": "paused",
      "outputs": [
        {
          "internalType": "bool",
          "name": "",
          "type": "bool"
        }
      ],
      "stateMutability": "view",
      "type": "function",
      "constant": true
    },
    {
      "inputs": [
        {
          "internalType": "bytes32",
          "name": "role",
          "type": "bytes32"
        },
        {
          "internalType": "address",
          "name": "account",
          "type": "address"
        }
      ],
      "name": "renounceRole",
      "outputs": [],
      "stateMutability": "nonpayable",
      "type": "function"
    },
    {
      "inputs": [
        {
          "internalType": "bytes32",
          "name": "role",
          "type": "bytes32"
        },
        {
          "internalType": "address",
          "name": "account",
          "type": "address"
        }
      ],
      "name": "revokeRole",
      "outputs": [],
      "stateMutability": "nonpayable",
      "type": "function"
    },
    {
      "inputs": [
        {
          "internalType": "bytes4",
          "name": "interfaceId",
          "type": "bytes4"
        }
      ],
      "name": "supportsInterface",
      "outputs": [
        {
          "internalType": "bool",
          "name": "",
          "type": "bool"
        }
      ],
      "stateMutability": "view",
      "type": "function",
      "constant": true
    },
    {
      "inputs": [],
      "name": "pause",
      "outputs": [],
      "stateMutability": "nonpayable",
      "type": "function"
    },
    {
      "inputs": [],
      "name": "unpause",
      "outputs": [],
      "stateMutability": "nonpayable",
      "type": "function"
    },
    {
      "inputs": [
        {
          "internalType": "uint256",
          "name": "_newPrice",
          "type": "uint256"
        }
      ],
      "name": "setNFTPlan1Price",
      "outputs": [],
      "stateMutability": "nonpayable",
      "type": "function"
    },
    {
      "inputs": [
        {
          "internalType": "uint256",
          "name": "_newPrice",
          "type": "uint256"
        }
      ],
      "name": "setNFTPlan2Price",
      "outputs": [],
      "stateMutability": "nonpayable",
      "type": "function"
    },
    {
      "inputs": [
        {
          "internalType": "uint256",
          "name": "_newPrice",
          "type": "uint256"
        }
      ],
      "name": "setNFTPlan3Price",
      "outputs": [],
      "stateMutability": "nonpayable",
      "type": "function"
    },
    {
      "inputs": [
        {
          "internalType": "address",
          "name": "_walletReward",
          "type": "address"
        },
        {
          "internalType": "address",
          "name": "_walletTeam",
          "type": "address"
        }
      ],
      "name": "setWallets",
      "outputs": [],
      "stateMutability": "nonpayable",
      "type": "function"
    },
    {
      "inputs": [],
      "name": "getNFTPlansPrice",
      "outputs": [
        {
          "internalType": "uint256",
          "name": "_plan1Price",
          "type": "uint256"
        },
        {
          "internalType": "uint256",
          "name": "_plan2Price",
          "type": "uint256"
        },
        {
          "internalType": "uint256",
          "name": "_plan3Price",
          "type": "uint256"
        }
      ],
      "stateMutability": "view",
      "type": "function",
      "constant": true
    },
    {
      "inputs": [
        {
          "internalType": "enum WVWTicketSale.TicketType",
          "name": "indexPlan",
          "type": "uint8"
        }
      ],
      "name": "buyTicket",
      "outputs": [],
      "stateMutability": "nonpayable",
      "type": "function"
    },
    {
      "inputs": [],
      "name": "claimTokens",
      "outputs": [],
      "stateMutability": "nonpayable",
      "type": "function"
    }
  ],
  "bytecode": "0x60806040523480156200001157600080fd5b506040516200262f3803806200262f8339818101604052810190620000379190620003df565b6000600160006101000a81548160ff02191690831515021790555060016002819055506200006f6000801b87620001d760201b60201c565b87600360006101000a81548173ffffffffffffffffffffffffffffffffffffffff021916908373ffffffffffffffffffffffffffffffffffffffff16021790555086600460006101000a81548173ffffffffffffffffffffffffffffffffffffffff021916908373ffffffffffffffffffffffffffffffffffffffff16021790555085600a60006101000a81548173ffffffffffffffffffffffffffffffffffffffff021916908373ffffffffffffffffffffffffffffffffffffffff16021790555084600860006101000a81548173ffffffffffffffffffffffffffffffffffffffff021916908373ffffffffffffffffffffffffffffffffffffffff16021790555083600960006101000a81548173ffffffffffffffffffffffffffffffffffffffff021916908373ffffffffffffffffffffffffffffffffffffffff1602179055508260058190555081600681905550806007819055505050505050505050620004a8565b620001e98282620002c860201b60201c565b620002c457600160008084815260200190815260200160002060000160008373ffffffffffffffffffffffffffffffffffffffff1673ffffffffffffffffffffffffffffffffffffffff16815260200190815260200160002060006101000a81548160ff021916908315150217905550620002696200033260201b60201c565b73ffffffffffffffffffffffffffffffffffffffff168173ffffffffffffffffffffffffffffffffffffffff16837f2f8788117e7eff1d82e926ec794901d17c78024a50270940304540a733656f0d60405160405180910390a45b5050565b600080600084815260200190815260200160002060000160008373ffffffffffffffffffffffffffffffffffffffff1673ffffffffffffffffffffffffffffffffffffffff16815260200190815260200160002060009054906101000a900460ff16905092915050565b600033905090565b600080fd5b600073ffffffffffffffffffffffffffffffffffffffff82169050919050565b60006200036c826200033f565b9050919050565b6200037e816200035f565b81146200038a57600080fd5b50565b6000815190506200039e8162000373565b92915050565b6000819050919050565b620003b981620003a4565b8114620003c557600080fd5b50565b600081519050620003d981620003ae565b92915050565b600080600080600080600080610100898b0312156200040357620004026200033a565b5b6000620004138b828c016200038d565b9850506020620004268b828c016200038d565b9750506040620004398b828c016200038d565b96505060606200044c8b828c016200038d565b95505060806200045f8b828c016200038d565b94505060a0620004728b828c01620003c8565b93505060c0620004858b828c01620003c8565b92505060e0620004988b828c01620003c8565b9150509295985092959890939650565b61217780620004b86000396000f3fe608060405234801561001057600080fd5b506004361061010b5760003560e01c80636685497e116100a2578063abfc979011610071578063abfc97901461026a578063cbc7bcf314610286578063d3f6a157146102a2578063d547741f146102be578063d709d29f146102da5761010b565b80636685497e146101f65780638456cb591461021257806391d148541461021c578063a217fddf1461024c5761010b565b806336568abe116100de57806336568abe146101a85780633f4ba83a146101c457806348c54b9d146101ce5780635c975abb146101d85761010b565b806301ffc9a714610110578063023697f014610140578063248a9ca31461015c5780632f2ff15d1461018c575b600080fd5b61012a60048036038101906101259190611674565b6102fa565b60405161013791906116bc565b60405180910390f35b61015a600480360381019061015591906116fc565b610374565b005b6101766004803603810190610171919061175f565b61063d565b604051610183919061179b565b60405180910390f35b6101a660048036038101906101a19190611814565b61065c565b005b6101c260048036038101906101bd9190611814565b61067d565b005b6101cc610700565b005b6101d6610718565b005b6101e0610894565b6040516101ed91906116bc565b60405180910390f35b610210600480360381019061020b919061188a565b6108ab565b005b61021a6108c3565b005b61023660048036038101906102319190611814565b6108db565b60405161024391906116bc565b60405180910390f35b610254610945565b604051610261919061179b565b60405180910390f35b610284600480360381019061027f919061188a565b61094c565b005b6102a0600480360381019061029b919061188a565b610964565b005b6102bc60048036038101906102b791906118b7565b61097c565b005b6102d860048036038101906102d39190611814565b610a10565b005b6102e2610a31565b6040516102f193929190611906565b60405180910390f35b60007f7965db0b000000000000000000000000000000000000000000000000000000007bffffffffffffffffffffffffffffffffffffffffffffffffffffffff1916827bffffffffffffffffffffffffffffffffffffffffffffffffffffffff1916148061036d575061036c82610a4a565b5b9050919050565b61037c610ab4565b610384610afe565b60008060028111156103995761039861193d565b5b8260028111156103ac576103ab61193d565b5b036103bb57600554905061046a565b600160028111156103cf576103ce61193d565b5b8260028111156103e2576103e161193d565b5b036103f1576006549050610469565b6002808111156104045761040361193d565b5b8260028111156104175761041661193d565b5b03610426576007549050610468565b6000610467576040517f08c379a000000000000000000000000000000000000000000000000000000000815260040161045e906119c9565b60405180910390fd5b5b5b5b600360009054906101000a900473ffffffffffffffffffffffffffffffffffffffff1673ffffffffffffffffffffffffffffffffffffffff166323b872dd3330846040518463ffffffff1660e01b81526004016104c9939291906119f8565b6020604051808303816000875af11580156104e8573d6000803e3d6000fd5b505050506040513d601f19601f8201168201806040525081019061050c9190611a5b565b61051557600080fd5b61051e81610b4b565b61052781610cd5565b61053081610e5f565b600460009054906101000a900473ffffffffffffffffffffffffffffffffffffffff1673ffffffffffffffffffffffffffffffffffffffff1663761c4c40338460028111156105825761058161193d565b5b6040518363ffffffff1660e01b815260040161059f929190611aa4565b600060405180830381600087803b1580156105b957600080fd5b505af11580156105cd573d6000803e3d6000fd5b505050503373ffffffffffffffffffffffffffffffffffffffff167ff06de8b9648474778fb7cf238a0a3bca7a75bb725f2f5a62988ca3f663e239e083600281111561061c5761061b61193d565b5b6040516106299190611acd565b60405180910390a25061063a610fab565b50565b6000806000838152602001908152602001600020600101549050919050565b6106658261063d565b61066e81610fb5565b6106788383610fc9565b505050565b6106856110a9565b73ffffffffffffffffffffffffffffffffffffffff168173ffffffffffffffffffffffffffffffffffffffff16146106f2576040517f08c379a00000000000000000000000000000000000000000000000000000000081526004016106e990611b5a565b60405180910390fd5b6106fc82826110b1565b5050565b6000801b61070d81610fb5565b610715611192565b50565b6000801b61072581610fb5565b6000600360009054906101000a900473ffffffffffffffffffffffffffffffffffffffff1673ffffffffffffffffffffffffffffffffffffffff166370a08231306040518263ffffffff1660e01b81526004016107829190611b7a565b602060405180830381865afa15801561079f573d6000803e3d6000fd5b505050506040513d601f19601f820116820180604052508101906107c39190611baa565b9050600360009054906101000a900473ffffffffffffffffffffffffffffffffffffffff1673ffffffffffffffffffffffffffffffffffffffff1663a9059cbb600a60009054906101000a900473ffffffffffffffffffffffffffffffffffffffff16836040518363ffffffff1660e01b8152600401610844929190611bd7565b6020604051808303816000875af1158015610863573d6000803e3d6000fd5b505050506040513d601f19601f820116820180604052508101906108879190611a5b565b61089057600080fd5b5050565b6000600160009054906101000a900460ff16905090565b6000801b6108b881610fb5565b816006819055505050565b6000801b6108d081610fb5565b6108d86111f5565b50565b600080600084815260200190815260200160002060000160008373ffffffffffffffffffffffffffffffffffffffff1673ffffffffffffffffffffffffffffffffffffffff16815260200190815260200160002060009054906101000a900460ff16905092915050565b6000801b81565b6000801b61095981610fb5565b816005819055505050565b6000801b61097181610fb5565b816007819055505050565b6000801b61098981610fb5565b81600960006101000a81548173ffffffffffffffffffffffffffffffffffffffff021916908373ffffffffffffffffffffffffffffffffffffffff16021790555082600860006101000a81548173ffffffffffffffffffffffffffffffffffffffff021916908373ffffffffffffffffffffffffffffffffffffffff160217905550505050565b610a198261063d565b610a2281610fb5565b610a2c83836110b1565b505050565b6000806000600554600654600754925092509250909192565b60007f01ffc9a7000000000000000000000000000000000000000000000000000000007bffffffffffffffffffffffffffffffffffffffffffffffffffffffff1916827bffffffffffffffffffffffffffffffffffffffffffffffffffffffff1916149050919050565b610abc610894565b15610afc576040517f08c379a0000000000000000000000000000000000000000000000000000000008152600401610af390611c4c565b60405180910390fd5b565b6002805403610b42576040517f08c379a0000000000000000000000000000000000000000000000000000000008152600401610b3990611cb8565b60405180910390fd5b60028081905550565b600080610b63611f408461125790919063ffffffff16565b9150915081610ba7576040517f08c379a0000000000000000000000000000000000000000000000000000000008152600401610b9e90611d24565b60405180910390fd5b600080610bbf612710846112aa90919063ffffffff16565b9150915081610c03576040517f08c379a0000000000000000000000000000000000000000000000000000000008152600401610bfa90611d24565b60405180910390fd5b600360009054906101000a900473ffffffffffffffffffffffffffffffffffffffff1673ffffffffffffffffffffffffffffffffffffffff1663a9059cbb600860009054906101000a900473ffffffffffffffffffffffffffffffffffffffff16836040518363ffffffff1660e01b8152600401610c82929190611bd7565b6020604051808303816000875af1158015610ca1573d6000803e3d6000fd5b505050506040513d601f19601f82011682018060405250810190610cc59190611a5b565b610cce57600080fd5b5050505050565b600080610ced6103e88461125790919063ffffffff16565b9150915081610d31576040517f08c379a0000000000000000000000000000000000000000000000000000000008152600401610d2890611d24565b60405180910390fd5b600080610d49612710846112aa90919063ffffffff16565b9150915081610d8d576040517f08c379a0000000000000000000000000000000000000000000000000000000008152600401610d8490611d24565b60405180910390fd5b600360009054906101000a900473ffffffffffffffffffffffffffffffffffffffff1673ffffffffffffffffffffffffffffffffffffffff1663a9059cbb600960009054906101000a900473ffffffffffffffffffffffffffffffffffffffff16836040518363ffffffff1660e01b8152600401610e0c929190611bd7565b6020604051808303816000875af1158015610e2b573d6000803e3d6000fd5b505050506040513d601f19601f82011682018060405250810190610e4f9190611a5b565b610e5857600080fd5b5050505050565b600080610e776103e88461125790919063ffffffff16565b9150915081610ebb576040517f08c379a0000000000000000000000000000000000000000000000000000000008152600401610eb290611d24565b60405180910390fd5b600080610ed3612710846112aa90919063ffffffff16565b9150915081610f17576040517f08c379a0000000000000000000000000000000000000000000000000000000008152600401610f0e90611d24565b60405180910390fd5b600360009054906101000a900473ffffffffffffffffffffffffffffffffffffffff1673ffffffffffffffffffffffffffffffffffffffff166342966c68826040518263ffffffff1660e01b8152600401610f729190611d44565b600060405180830381600087803b158015610f8c57600080fd5b505af1158015610fa0573d6000803e3d6000fd5b505050505050505050565b6001600281905550565b610fc681610fc16110a9565b6112e0565b50565b610fd382826108db565b6110a557600160008084815260200190815260200160002060000160008373ffffffffffffffffffffffffffffffffffffffff1673ffffffffffffffffffffffffffffffffffffffff16815260200190815260200160002060006101000a81548160ff02191690831515021790555061104a6110a9565b73ffffffffffffffffffffffffffffffffffffffff168173ffffffffffffffffffffffffffffffffffffffff16837f2f8788117e7eff1d82e926ec794901d17c78024a50270940304540a733656f0d60405160405180910390a45b5050565b600033905090565b6110bb82826108db565b1561118e57600080600084815260200190815260200160002060000160008373ffffffffffffffffffffffffffffffffffffffff1673ffffffffffffffffffffffffffffffffffffffff16815260200190815260200160002060006101000a81548160ff0219169083151502179055506111336110a9565b73ffffffffffffffffffffffffffffffffffffffff168173ffffffffffffffffffffffffffffffffffffffff16837ff6391f5c32d9c69d2a47ea670b442974b53935d1edc7fd64eb21e047a839171b60405160405180910390a45b5050565b61119a611365565b6000600160006101000a81548160ff0219169083151502179055507f5db9ee0a495bf2e6ff9c91a7834c1ba4fdd244a5e8aa4e537bd38aeae4b073aa6111de6110a9565b6040516111eb9190611b7a565b60405180910390a1565b6111fd610ab4565b60018060006101000a81548160ff0219169083151502179055507f62e78cea01bee320cd4e420270b5ea74000d11b0c9f74754ebdbfc544b05a2586112406110a9565b60405161124d9190611b7a565b60405180910390a1565b6000806000840361126f5760016000915091506112a3565b600083850290508385828161128757611286611d5f565b5b041461129a5760008092509250506112a3565b60018192509250505b9250929050565b600080600083036112c157600080915091506112d9565b60018385816112d3576112d2611d5f565b5b04915091505b9250929050565b6112ea82826108db565b611361576112f7816113ae565b6113058360001c60206113db565b604051602001611316929190611e97565b6040516020818303038152906040526040517f08c379a00000000000000000000000000000000000000000000000000000000081526004016113589190611f1b565b60405180910390fd5b5050565b61136d610894565b6113ac576040517f08c379a00000000000000000000000000000000000000000000000000000000081526004016113a390611f89565b60405180910390fd5b565b60606113d48273ffffffffffffffffffffffffffffffffffffffff16601460ff166113db565b9050919050565b6060600060028360026113ee9190611fd8565b6113f8919061201a565b67ffffffffffffffff8111156114115761141061204e565b5b6040519080825280601f01601f1916602001820160405280156114435781602001600182028036833780820191505090505b5090507f30000000000000000000000000000000000000000000000000000000000000008160008151811061147b5761147a61207d565b5b60200101907effffffffffffffffffffffffffffffffffffffffffffffffffffffffffffff1916908160001a9053507f7800000000000000000000000000000000000000000000000000000000000000816001815181106114df576114de61207d565b5b60200101907effffffffffffffffffffffffffffffffffffffffffffffffffffffffffffff1916908160001a9053506000600184600261151f9190611fd8565b611529919061201a565b90505b60018111156115c9577f3031323334353637383961626364656600000000000000000000000000000000600f86166010811061156b5761156a61207d565b5b1a60f81b8282815181106115825761158161207d565b5b60200101907effffffffffffffffffffffffffffffffffffffffffffffffffffffffffffff1916908160001a905350600485901c9450806115c2906120ac565b905061152c565b506000841461160d576040517f08c379a000000000000000000000000000000000000000000000000000000000815260040161160490612121565b60405180910390fd5b8091505092915050565b600080fd5b60007fffffffff0000000000000000000000000000000000000000000000000000000082169050919050565b6116518161161c565b811461165c57600080fd5b50565b60008135905061166e81611648565b92915050565b60006020828403121561168a57611689611617565b5b60006116988482850161165f565b91505092915050565b60008115159050919050565b6116b6816116a1565b82525050565b60006020820190506116d160008301846116ad565b92915050565b600381106116e457600080fd5b50565b6000813590506116f6816116d7565b92915050565b60006020828403121561171257611711611617565b5b6000611720848285016116e7565b91505092915050565b6000819050919050565b61173c81611729565b811461174757600080fd5b50565b60008135905061175981611733565b92915050565b60006020828403121561177557611774611617565b5b60006117838482850161174a565b91505092915050565b61179581611729565b82525050565b60006020820190506117b0600083018461178c565b92915050565b600073ffffffffffffffffffffffffffffffffffffffff82169050919050565b60006117e1826117b6565b9050919050565b6117f1816117d6565b81146117fc57600080fd5b50565b60008135905061180e816117e8565b92915050565b6000806040838503121561182b5761182a611617565b5b60006118398582860161174a565b925050602061184a858286016117ff565b9150509250929050565b6000819050919050565b61186781611854565b811461187257600080fd5b50565b6000813590506118848161185e565b92915050565b6000602082840312156118a05761189f611617565b5b60006118ae84828501611875565b91505092915050565b600080604083850312156118ce576118cd611617565b5b60006118dc858286016117ff565b92505060206118ed858286016117ff565b9150509250929050565b61190081611854565b82525050565b600060608201905061191b60008301866118f7565b61192860208301856118f7565b61193560408301846118f7565b949350505050565b7f4e487b7100000000000000000000000000000000000000000000000000000000600052602160045260246000fd5b600082825260208201905092915050565b7f596f75206e65656420746f2063686f6f7365206120706c616e20312d332e0000600082015250565b60006119b3601e8361196c565b91506119be8261197d565b602082019050919050565b600060208201905081810360008301526119e2816119a6565b9050919050565b6119f2816117d6565b82525050565b6000606082019050611a0d60008301866119e9565b611a1a60208301856119e9565b611a2760408301846118f7565b949350505050565b611a38816116a1565b8114611a4357600080fd5b50565b600081519050611a5581611a2f565b92915050565b600060208284031215611a7157611a70611617565b5b6000611a7f84828501611a46565b91505092915050565b600060ff82169050919050565b611a9e81611a88565b82525050565b6000604082019050611ab960008301856119e9565b611ac66020830184611a95565b9392505050565b6000602082019050611ae26000830184611a95565b92915050565b7f416363657373436f6e74726f6c3a2063616e206f6e6c792072656e6f756e636560008201527f20726f6c657320666f722073656c660000000000000000000000000000000000602082015250565b6000611b44602f8361196c565b9150611b4f82611ae8565b604082019050919050565b60006020820190508181036000830152611b7381611b37565b9050919050565b6000602082019050611b8f60008301846119e9565b92915050565b600081519050611ba48161185e565b92915050565b600060208284031215611bc057611bbf611617565b5b6000611bce84828501611b95565b91505092915050565b6000604082019050611bec60008301856119e9565b611bf960208301846118f7565b9392505050565b7f5061757361626c653a2070617573656400000000000000000000000000000000600082015250565b6000611c3660108361196c565b9150611c4182611c00565b602082019050919050565b60006020820190508181036000830152611c6581611c29565b9050919050565b7f5265656e7472616e637947756172643a207265656e7472616e742063616c6c00600082015250565b6000611ca2601f8361196c565b9150611cad82611c6c565b602082019050919050565b60006020820190508181036000830152611cd181611c95565b9050919050565b7f50726f626c656d20776974682073616665206d6174682e000000000000000000600082015250565b6000611d0e60178361196c565b9150611d1982611cd8565b602082019050919050565b60006020820190508181036000830152611d3d81611d01565b9050919050565b6000602082019050611d5960008301846118f7565b92915050565b7f4e487b7100000000000000000000000000000000000000000000000000000000600052601260045260246000fd5b600081905092915050565b7f416363657373436f6e74726f6c3a206163636f756e7420000000000000000000600082015250565b6000611dcf601783611d8e565b9150611dda82611d99565b601782019050919050565b600081519050919050565b60005b83811015611e0e578082015181840152602081019050611df3565b60008484015250505050565b6000611e2582611de5565b611e2f8185611d8e565b9350611e3f818560208601611df0565b80840191505092915050565b7f206973206d697373696e6720726f6c6520000000000000000000000000000000600082015250565b6000611e81601183611d8e565b9150611e8c82611e4b565b601182019050919050565b6000611ea282611dc2565b9150611eae8285611e1a565b9150611eb982611e74565b9150611ec58284611e1a565b91508190509392505050565b6000601f19601f8301169050919050565b6000611eed82611de5565b611ef7818561196c565b9350611f07818560208601611df0565b611f1081611ed1565b840191505092915050565b60006020820190508181036000830152611f358184611ee2565b905092915050565b7f5061757361626c653a206e6f7420706175736564000000000000000000000000600082015250565b6000611f7360148361196c565b9150611f7e82611f3d565b602082019050919050565b60006020820190508181036000830152611fa281611f66565b9050919050565b7f4e487b7100000000000000000000000000000000000000000000000000000000600052601160045260246000fd5b6000611fe382611854565b9150611fee83611854565b9250828202611ffc81611854565b9150828204841483151761201357612012611fa9565b5b5092915050565b600061202582611854565b915061203083611854565b925082820190508082111561204857612047611fa9565b5b92915050565b7f4e487b7100000000000000000000000000000000000000000000000000000000600052604160045260246000fd5b7f4e487b7100000000000000000000000000000000000000000000000000000000600052603260045260246000fd5b60006120b782611854565b9150600082036120ca576120c9611fa9565b5b600182039050919050565b7f537472696e67733a20686578206c656e67746820696e73756666696369656e74600082015250565b600061210b60208361196c565b9150612116826120d5565b602082019050919050565b6000602082019050818103600083015261213a816120fe565b905091905056fea26469706673582212203d044ea6333efebb1541b8f0dd2e57b4019096b9a02cec07209e3713d2f995f964736f6c63430008110033",
  "immutableReferences": {},
  "source": "// SPDX-License-Identifier: MIT\r\npragma solidity ^0.8.9;\r\n\r\nimport \"@openzeppelin/contracts/token/ERC20/IERC20.sol\";\r\nimport \"@openzeppelin/contracts/security/Pausable.sol\";\r\nimport \"@openzeppelin/contracts/access/AccessControl.sol\";\r\nimport \"@openzeppelin/contracts/utils/math/SafeMath.sol\";\r\nimport \"@openzeppelin/contracts/security/ReentrancyGuard.sol\";\r\n\r\nimport \"./interfaces/IERC20WVW.sol\";\r\nimport \"./interfaces/IERC721WVW.sol\";\r\n\r\ncontract WVWTicketSale is AccessControl, Pausable, ReentrancyGuard {\r\n    using SafeMath for uint256;\r\n\r\n    event BuyTicket(address indexed _buyer, uint8 _plan);\r\n\r\n    IERC20WVW private erc20;\r\n    IERC721WVW private erc721;\r\n\r\n    uint256 private plan1Price;\r\n    uint256 private plan2Price;\r\n    uint256 private plan3Price;\r\n\r\n    address private walletReward;\r\n    address private walletTeam;\r\n    address private owner;\r\n\r\n    enum TicketType {\r\n        PLAN1,\r\n        PLAN2,\r\n        PLAN3\r\n    }\r\n\r\n    constructor(\r\n        address _erc20,\r\n        address _erc721,\r\n        address _owner,\r\n        address _walletReward,\r\n        address _walletTeam,\r\n        uint256 _plan1Price,\r\n        uint256 _plan2Price,\r\n        uint256 _plan3Price\r\n    ) {\r\n        _grantRole(DEFAULT_ADMIN_ROLE, _owner);\r\n        erc20 = IERC20WVW(_erc20);\r\n        erc721 = IERC721WVW(_erc721);\r\n\r\n        owner = _owner;\r\n        walletReward = _walletReward;\r\n        walletTeam = _walletTeam;\r\n        plan1Price = _plan1Price;\r\n        plan2Price = _plan2Price;\r\n        plan3Price = _plan3Price;\r\n    }\r\n\r\n    function pause() public onlyRole(DEFAULT_ADMIN_ROLE) {\r\n        _pause();\r\n    }\r\n\r\n    function unpause() public onlyRole(DEFAULT_ADMIN_ROLE) {\r\n        _unpause();\r\n    }\r\n\r\n    function setNFTPlan1Price(uint256 _newPrice)\r\n        public\r\n        onlyRole(DEFAULT_ADMIN_ROLE)\r\n    {\r\n        plan1Price = _newPrice;\r\n    }\r\n\r\n    function setNFTPlan2Price(uint256 _newPrice)\r\n        public\r\n        onlyRole(DEFAULT_ADMIN_ROLE)\r\n    {\r\n        plan2Price = _newPrice;\r\n    }\r\n\r\n    function setNFTPlan3Price(uint256 _newPrice)\r\n        public\r\n        onlyRole(DEFAULT_ADMIN_ROLE)\r\n    {\r\n        plan3Price = _newPrice;\r\n    }\r\n\r\n    function setWallets(\r\n        address _walletReward,\r\n        address _walletTeam\r\n    ) public onlyRole(DEFAULT_ADMIN_ROLE) {\r\n        walletTeam = _walletTeam;\r\n        walletReward = _walletReward;\r\n    }\r\n\r\n    function getNFTPlansPrice()\r\n        public\r\n        view\r\n        returns (\r\n            uint256 _plan1Price,\r\n            uint256 _plan2Price,\r\n            uint256 _plan3Price\r\n        )\r\n    {\r\n        return (plan1Price, plan2Price, plan3Price);\r\n    }\r\n\r\n    function buyTicket(TicketType indexPlan) public whenNotPaused nonReentrant {\r\n        uint256 price = 0;\r\n\r\n        if (indexPlan == TicketType.PLAN1) {\r\n            price = plan1Price;\r\n        } else if (indexPlan == TicketType.PLAN2) {\r\n            price = plan2Price;\r\n        } else if (indexPlan == TicketType.PLAN3) {\r\n            price = plan3Price;\r\n        } else {\r\n            require(false, \"You need to choose a plan 1-3.\");\r\n        }\r\n\r\n        // Get NFT price to contract.\r\n        require(erc20.transferFrom(msg.sender, address(this), price));\r\n        \r\n        // Sent money to wallets as Tokenomics said so.\r\n        sendMoneyToWalletReward(price);\r\n        sendMoneyToWalletTeam(price);\r\n        burnTokens(price);\r\n\r\n        //After send the correct money to wallets then mint the NFT.\r\n        erc721.safeMint(msg.sender, uint8(indexPlan));\r\n        emit BuyTicket(msg.sender, uint8(indexPlan));\r\n    }\r\n\r\n    function sendMoneyToWalletReward(uint256 amount) private {\r\n        // Send 80% to the Reward wallet\r\n        (bool multSuccess, uint256 multResult) = amount.tryMul(8000);\r\n        require(multSuccess, \"Problem with safe math.\");\r\n        (bool divSuccess, uint256 divResult) = multResult.tryDiv(10_000);\r\n        require(divSuccess, \"Problem with safe math.\");\r\n\r\n        require(erc20.transfer(walletReward, divResult));\r\n    }\r\n\r\n    function sendMoneyToWalletTeam(uint256 amount) private {\r\n        // Send 10% to the Team Wallet\r\n        (bool multSuccess, uint256 multResult) = amount.tryMul(1000);\r\n        require(multSuccess, \"Problem with safe math.\");\r\n        (bool divSuccess, uint256 divResult) = multResult.tryDiv(10_000);\r\n        require(divSuccess, \"Problem with safe math.\");\r\n\r\n        require(erc20.transfer(walletTeam, divResult));\r\n    }\r\n\r\n    function burnTokens(uint256 amount) private {\r\n        // Burn 10% of the Tokens\r\n        (bool multSuccess, uint256 multResult) = amount.tryMul(1000);\r\n        require(multSuccess, \"Problem with safe math.\");\r\n        (bool divSuccess, uint256 divResult) = multResult.tryDiv(10_000);\r\n        require(divSuccess, \"Problem with safe math.\");\r\n\r\n        erc20.burn(divResult);\r\n    }\r\n\r\n    // If some WVWToken got stucked its possible to claim.\r\n    function claimTokens() external onlyRole(DEFAULT_ADMIN_ROLE) {\r\n        uint256 balance = erc20.balanceOf(address(this));\r\n        require(erc20.transfer(owner, balance));\r\n    }\r\n}\r\n",
  "sourcePath": "C:\\lucas_blockchain\\freela\\YF_CONSULTORIA\\wvw\\Truffle\\contracts\\WVWTicketSale.sol",
  "compiler": {
    "name": "solc",
    "version": "0.8.17+commit.8df45f5f.Emscripten.clang"
  },
  "schemaVersion": "3.4.11",
  "updatedAt": "2023-03-01T17:38:44.444Z",
  "networkType": "ethereum",
  "devdoc": {
    "kind": "dev",
    "methods": {
      "getRoleAdmin(bytes32)": {
        "details": "Returns the admin role that controls `role`. See {grantRole} and {revokeRole}. To change a role's admin, use {_setRoleAdmin}."
      },
      "grantRole(bytes32,address)": {
        "details": "Grants `role` to `account`. If `account` had not been already granted `role`, emits a {RoleGranted} event. Requirements: - the caller must have ``role``'s admin role. May emit a {RoleGranted} event."
      },
      "hasRole(bytes32,address)": {
        "details": "Returns `true` if `account` has been granted `role`."
      },
      "paused()": {
        "details": "Returns true if the contract is paused, and false otherwise."
      },
      "renounceRole(bytes32,address)": {
        "details": "Revokes `role` from the calling account. Roles are often managed via {grantRole} and {revokeRole}: this function's purpose is to provide a mechanism for accounts to lose their privileges if they are compromised (such as when a trusted device is misplaced). If the calling account had been revoked `role`, emits a {RoleRevoked} event. Requirements: - the caller must be `account`. May emit a {RoleRevoked} event."
      },
      "revokeRole(bytes32,address)": {
        "details": "Revokes `role` from `account`. If `account` had been granted `role`, emits a {RoleRevoked} event. Requirements: - the caller must have ``role``'s admin role. May emit a {RoleRevoked} event."
      },
      "supportsInterface(bytes4)": {
        "details": "See {IERC165-supportsInterface}."
      }
    },
    "version": 1
  },
  "userdoc": {
    "kind": "user",
    "methods": {},
    "version": 1
  }
}