{
  "contractName": "WVWWithdraw",
  "abi": [
    {
      "inputs": [
        {
          "internalType": "address",
          "name": "_token",
          "type": "address"
        },
        {
          "internalType": "address",
          "name": "_erc721",
          "type": "address"
        },
        {
          "internalType": "uint8",
          "name": "_fee",
          "type": "uint8"
        },
        {
          "internalType": "uint256",
          "name": "_minWithdraw",
          "type": "uint256"
        },
        {
          "internalType": "uint256",
          "name": "_maxWithdraw",
          "type": "uint256"
        },
        {
          "internalType": "address",
          "name": "_rewardWallet",
          "type": "address"
        },
        {
          "internalType": "address",
          "name": "_withdrawerWallet",
          "type": "address"
        }
      ],
      "stateMutability": "nonpayable",
      "type": "constructor"
    },
    {
      "anonymous": false,
      "inputs": [
        {
          "indexed": true,
          "internalType": "address",
          "name": "previousOwner",
          "type": "address"
        },
        {
          "indexed": true,
          "internalType": "address",
          "name": "newOwner",
          "type": "address"
        }
      ],
      "name": "OwnershipTransferred",
      "type": "event"
    },
    {
      "anonymous": false,
      "inputs": [
        {
          "indexed": false,
          "internalType": "address",
          "name": "account",
          "type": "address"
        }
      ],
      "name": "Paused",
      "type": "event"
    },
    {
      "anonymous": false,
      "inputs": [
        {
          "indexed": false,
          "internalType": "address",
          "name": "account",
          "type": "address"
        }
      ],
      "name": "Unpaused",
      "type": "event"
    },
    {
      "anonymous": false,
      "inputs": [
        {
          "indexed": true,
          "internalType": "address",
          "name": "user",
          "type": "address"
        },
        {
          "indexed": false,
          "internalType": "uint256",
          "name": "amount",
          "type": "uint256"
        },
        {
          "indexed": false,
          "internalType": "uint256",
          "name": "tokenId",
          "type": "uint256"
        }
      ],
      "name": "Withdraw",
      "type": "event"
    },
    {
      "inputs": [],
      "name": "owner",
      "outputs": [
        {
          "internalType": "address",
          "name": "",
          "type": "address"
        }
      ],
      "stateMutability": "view",
      "type": "function",
      "constant": true
    },
    {
      "inputs": [],
      "name": "paused",
      "outputs": [
        {
          "internalType": "bool",
          "name": "",
          "type": "bool"
        }
      ],
      "stateMutability": "view",
      "type": "function",
      "constant": true
    },
    {
      "inputs": [],
      "name": "renounceOwnership",
      "outputs": [],
      "stateMutability": "nonpayable",
      "type": "function"
    },
    {
      "inputs": [
        {
          "internalType": "address",
          "name": "newOwner",
          "type": "address"
        }
      ],
      "name": "transferOwnership",
      "outputs": [],
      "stateMutability": "nonpayable",
      "type": "function"
    },
    {
      "inputs": [
        {
          "internalType": "address",
          "name": "_userWallet",
          "type": "address"
        },
        {
          "internalType": "uint256",
          "name": "_amount",
          "type": "uint256"
        }
      ],
      "name": "withdrawRewards",
      "outputs": [],
      "stateMutability": "nonpayable",
      "type": "function"
    },
    {
      "inputs": [
        {
          "internalType": "address",
          "name": "_withdrawerWallet",
          "type": "address"
        }
      ],
      "name": "setWithdrawerWallet",
      "outputs": [],
      "stateMutability": "nonpayable",
      "type": "function"
    },
    {
      "inputs": [],
      "name": "getWithdrawerWallet",
      "outputs": [
        {
          "internalType": "address",
          "name": "",
          "type": "address"
        }
      ],
      "stateMutability": "view",
      "type": "function",
      "constant": true
    },
    {
      "inputs": [
        {
          "internalType": "address",
          "name": "_address",
          "type": "address"
        },
        {
          "internalType": "bool",
          "name": "_status",
          "type": "bool"
        }
      ],
      "name": "setBanAddress",
      "outputs": [],
      "stateMutability": "nonpayable",
      "type": "function"
    },
    {
      "inputs": [
        {
          "internalType": "address",
          "name": "_address",
          "type": "address"
        }
      ],
      "name": "getBanAddress",
      "outputs": [
        {
          "internalType": "bool",
          "name": "",
          "type": "bool"
        }
      ],
      "stateMutability": "view",
      "type": "function",
      "constant": true
    },
    {
      "inputs": [
        {
          "internalType": "contract IERC20",
          "name": "_token",
          "type": "address"
        }
      ],
      "name": "setToken",
      "outputs": [],
      "stateMutability": "nonpayable",
      "type": "function"
    },
    {
      "inputs": [
        {
          "internalType": "uint8",
          "name": "_fee",
          "type": "uint8"
        }
      ],
      "name": "setFee",
      "outputs": [],
      "stateMutability": "nonpayable",
      "type": "function"
    },
    {
      "inputs": [
        {
          "internalType": "uint256",
          "name": "_minWithdraw",
          "type": "uint256"
        }
      ],
      "name": "setMinWithdraw",
      "outputs": [],
      "stateMutability": "nonpayable",
      "type": "function"
    },
    {
      "inputs": [
        {
          "internalType": "uint256",
          "name": "_maxWithdraw",
          "type": "uint256"
        }
      ],
      "name": "setMaxWithdraw",
      "outputs": [],
      "stateMutability": "nonpayable",
      "type": "function"
    },
    {
      "inputs": [
        {
          "internalType": "address",
          "name": "_rewardWallet",
          "type": "address"
        }
      ],
      "name": "setRewardWallet",
      "outputs": [],
      "stateMutability": "nonpayable",
      "type": "function"
    },
    {
      "inputs": [],
      "name": "getToken",
      "outputs": [
        {
          "internalType": "contract IERC20",
          "name": "",
          "type": "address"
        }
      ],
      "stateMutability": "view",
      "type": "function",
      "constant": true
    },
    {
      "inputs": [],
      "name": "getFee",
      "outputs": [
        {
          "internalType": "uint256",
          "name": "",
          "type": "uint256"
        }
      ],
      "stateMutability": "view",
      "type": "function",
      "constant": true
    },
    {
      "inputs": [],
      "name": "getMinWithdraw",
      "outputs": [
        {
          "internalType": "uint256",
          "name": "",
          "type": "uint256"
        }
      ],
      "stateMutability": "view",
      "type": "function",
      "constant": true
    },
    {
      "inputs": [],
      "name": "getMaxWithdraw",
      "outputs": [
        {
          "internalType": "uint256",
          "name": "",
          "type": "uint256"
        }
      ],
      "stateMutability": "view",
      "type": "function",
      "constant": true
    },
    {
      "inputs": [],
      "name": "getRewardWallet",
      "outputs": [
        {
          "internalType": "address",
          "name": "",
          "type": "address"
        }
      ],
      "stateMutability": "view",
      "type": "function",
      "constant": true
    },
    {
      "inputs": [],
      "name": "pause",
      "outputs": [],
      "stateMutability": "nonpayable",
      "type": "function"
    },
    {
      "inputs": [],
      "name": "unpause",
      "outputs": [],
      "stateMutability": "nonpayable",
      "type": "function"
    }
  ],
  "bytecode": "0x60806040523480156200001157600080fd5b506040516200226d3803806200226d83398181016040528101906200003791906200035a565b620000576200004b620001ab60201b60201c565b620001b360201b60201c565b60008060146101000a81548160ff02191690831515021790555086600160006101000a81548173ffffffffffffffffffffffffffffffffffffffff021916908373ffffffffffffffffffffffffffffffffffffffff16021790555085600260006101000a81548173ffffffffffffffffffffffffffffffffffffffff021916908373ffffffffffffffffffffffffffffffffffffffff16021790555084600260146101000a81548160ff021916908360ff160217905550836003819055508260048190555081600560006101000a81548173ffffffffffffffffffffffffffffffffffffffff021916908373ffffffffffffffffffffffffffffffffffffffff16021790555080600660006101000a81548173ffffffffffffffffffffffffffffffffffffffff021916908373ffffffffffffffffffffffffffffffffffffffff160217905550505050505050506200040d565b600033905090565b60008060009054906101000a900473ffffffffffffffffffffffffffffffffffffffff169050816000806101000a81548173ffffffffffffffffffffffffffffffffffffffff021916908373ffffffffffffffffffffffffffffffffffffffff1602179055508173ffffffffffffffffffffffffffffffffffffffff168173ffffffffffffffffffffffffffffffffffffffff167f8be0079c531659141344cd1fd0a4f28419497f9722a3daafe3b4186f6b6457e060405160405180910390a35050565b600080fd5b600073ffffffffffffffffffffffffffffffffffffffff82169050919050565b6000620002a9826200027c565b9050919050565b620002bb816200029c565b8114620002c757600080fd5b50565b600081519050620002db81620002b0565b92915050565b600060ff82169050919050565b620002f981620002e1565b81146200030557600080fd5b50565b6000815190506200031981620002ee565b92915050565b6000819050919050565b62000334816200031f565b81146200034057600080fd5b50565b600081519050620003548162000329565b92915050565b600080600080600080600060e0888a0312156200037c576200037b62000277565b5b60006200038c8a828b01620002ca565b97505060206200039f8a828b01620002ca565b9650506040620003b28a828b0162000308565b9550506060620003c58a828b0162000343565b9450506080620003d88a828b0162000343565b93505060a0620003eb8a828b01620002ca565b92505060c0620003fe8a828b01620002ca565b91505092959891949750929550565b611e50806200041d6000396000f3fe608060405234801561001057600080fd5b50600436106101375760003560e01c8063715018a6116100b8578063ced72f871161007c578063ced72f87146102c8578063d67dff01146102e6578063d685da8d14610304578063d6ef7af014610322578063dcd9bb421461033e578063f2fde38b1461035a57610137565b8063715018a61461024a5780638456cb59146102545780638da5cb5b1461025e578063b9bb469b1461027c578063cb122a09146102ac57610137565b80633f4ba83a116100ff5780633f4ba83a146101cc5780633f571453146101d65780634e92a1f4146101f45780635958621e146102105780635c975abb1461022c57610137565b80630b329c621461013c578063144fa6d71461015857806321df0da7146101745780633353089e1461019257806335aa134a146101b0575b600080fd5b610156600480360381019061015191906113ae565b610376565b005b610172600480360381019061016d919061142c565b6103d9565b005b61017c610425565b60405161018991906114b8565b60405180910390f35b61019a61044f565b6040516101a791906114e2565b60405180910390f35b6101ca60048036038101906101c59190611533565b610479565b005b6101d461048b565b005b6101de61049d565b6040516101eb919061156f565b60405180910390f35b61020e6004803603810190610209919061158a565b6104a7565b005b61022a6004803603810190610225919061158a565b6104f3565b005b61023461053f565b60405161024191906115c6565b60405180910390f35b610252610555565b005b61025c610569565b005b61026661057b565b60405161027391906114e2565b60405180910390f35b6102966004803603810190610291919061158a565b6105a4565b6040516102a391906115c6565b60405180910390f35b6102c660048036038101906102c1919061161a565b6105fa565b005b6102d0610620565b6040516102dd919061156f565b60405180910390f35b6102ee61063a565b6040516102fb91906114e2565b60405180910390f35b61030c610664565b604051610319919061156f565b60405180910390f35b61033c60048036038101906103379190611647565b61066e565b005b61035860048036038101906103539190611533565b610fdc565b005b610374600480360381019061036f919061158a565b610fee565b005b61037e611071565b80600760008473ffffffffffffffffffffffffffffffffffffffff1673ffffffffffffffffffffffffffffffffffffffff16815260200190815260200160002060006101000a81548160ff0219169083151502179055505050565b6103e1611071565b80600160006101000a81548173ffffffffffffffffffffffffffffffffffffffff021916908373ffffffffffffffffffffffffffffffffffffffff16021790555050565b6000600160009054906101000a900473ffffffffffffffffffffffffffffffffffffffff16905090565b6000600660009054906101000a900473ffffffffffffffffffffffffffffffffffffffff16905090565b610481611071565b8060038190555050565b610493611071565b61049b6110ef565b565b6000600454905090565b6104af611071565b80600660006101000a81548173ffffffffffffffffffffffffffffffffffffffff021916908373ffffffffffffffffffffffffffffffffffffffff16021790555050565b6104fb611071565b80600560006101000a81548173ffffffffffffffffffffffffffffffffffffffff021916908373ffffffffffffffffffffffffffffffffffffffff16021790555050565b60008060149054906101000a900460ff16905090565b61055d611071565b6105676000611151565b565b610571611071565b610579611215565b565b60008060009054906101000a900473ffffffffffffffffffffffffffffffffffffffff16905090565b6000600760008373ffffffffffffffffffffffffffffffffffffffff1673ffffffffffffffffffffffffffffffffffffffff16815260200190815260200160002060009054906101000a900460ff169050919050565b610602611071565b80600260146101000a81548160ff021916908360ff16021790555050565b6000600260149054906101000a900460ff1660ff16905090565b6000600560009054906101000a900473ffffffffffffffffffffffffffffffffffffffff16905090565b6000600354905090565b600660009054906101000a900473ffffffffffffffffffffffffffffffffffffffff1673ffffffffffffffffffffffffffffffffffffffff163373ffffffffffffffffffffffffffffffffffffffff16146106fe576040517f08c379a00000000000000000000000000000000000000000000000000000000081526004016106f59061170a565b60405180910390fd5b610706611278565b600760008373ffffffffffffffffffffffffffffffffffffffff1673ffffffffffffffffffffffffffffffffffffffff16815260200190815260200160002060009054906101000a900460ff1615610793576040517f08c379a000000000000000000000000000000000000000000000000000000000815260040161078a90611776565b60405180910390fd5b80600160009054906101000a900473ffffffffffffffffffffffffffffffffffffffff1673ffffffffffffffffffffffffffffffffffffffff1663dd62ed3e600560009054906101000a900473ffffffffffffffffffffffffffffffffffffffff16306040518363ffffffff1660e01b8152600401610813929190611796565b602060405180830381865afa158015610830573d6000803e3d6000fd5b505050506040513d601f19601f8201168201806040525081019061085491906117d4565b1015610895576040517f08c379a000000000000000000000000000000000000000000000000000000000815260040161088c90611873565b60405180910390fd5b80600160009054906101000a900473ffffffffffffffffffffffffffffffffffffffff1673ffffffffffffffffffffffffffffffffffffffff166370a08231600560009054906101000a900473ffffffffffffffffffffffffffffffffffffffff166040518263ffffffff1660e01b815260040161091391906114e2565b602060405180830381865afa158015610930573d6000803e3d6000fd5b505050506040513d601f19601f8201168201806040525081019061095491906117d4565b11610994576040517f08c379a000000000000000000000000000000000000000000000000000000000815260040161098b906118df565b60405180910390fd5b8060035411156109d9576040517f08c379a00000000000000000000000000000000000000000000000000000000081526004016109d09061194b565b60405180910390fd5b806004541015610a1e576040517f08c379a0000000000000000000000000000000000000000000000000000000008152600401610a159061194b565b60405180910390fd5b600260009054906101000a900473ffffffffffffffffffffffffffffffffffffffff1673ffffffffffffffffffffffffffffffffffffffff1663e985e9c583306040518363ffffffff1660e01b8152600401610a7b929190611796565b602060405180830381865afa158015610a98573d6000803e3d6000fd5b505050506040513d601f19601f82011682018060405250810190610abc9190611980565b610afb576040517f08c379a0000000000000000000000000000000000000000000000000000000008152600401610af290611a1f565b60405180910390fd5b6000600260009054906101000a900473ffffffffffffffffffffffffffffffffffffffff1673ffffffffffffffffffffffffffffffffffffffff1663781834ee846040518263ffffffff1660e01b8152600401610b5891906114e2565b602060405180830381865afa158015610b75573d6000803e3d6000fd5b505050506040513d601f19601f82011682018060405250810190610b9991906117d4565b905060006064600260149054906101000a900460ff1660ff1684610bbd9190611a6e565b610bc79190611adf565b90508083610bd59190611b10565b925082600860008673ffffffffffffffffffffffffffffffffffffffff1673ffffffffffffffffffffffffffffffffffffffff1681526020019081526020016000206000016000828254610c299190611b44565b925050819055506001600860008673ffffffffffffffffffffffffffffffffffffffff1673ffffffffffffffffffffffffffffffffffffffff1681526020019081526020016000206001016000828254610c839190611b44565b9250508190555042600860008673ffffffffffffffffffffffffffffffffffffffff1673ffffffffffffffffffffffffffffffffffffffff16815260200190815260200160002060020181905550600160009054906101000a900473ffffffffffffffffffffffffffffffffffffffff1673ffffffffffffffffffffffffffffffffffffffff166323b872dd600560009054906101000a900473ffffffffffffffffffffffffffffffffffffffff1686866040518463ffffffff1660e01b8152600401610d5293929190611b78565b6020604051808303816000875af1158015610d71573d6000803e3d6000fd5b505050506040513d601f19601f82011682018060405250810190610d959190611980565b610dd4576040517f08c379a0000000000000000000000000000000000000000000000000000000008152600401610dcb90611bfb565b60405180910390fd5b600160009054906101000a900473ffffffffffffffffffffffffffffffffffffffff1673ffffffffffffffffffffffffffffffffffffffff166323b872dd600560009054906101000a900473ffffffffffffffffffffffffffffffffffffffff16600660009054906101000a900473ffffffffffffffffffffffffffffffffffffffff16846040518463ffffffff1660e01b8152600401610e7793929190611b78565b6020604051808303816000875af1158015610e96573d6000803e3d6000fd5b505050506040513d601f19601f82011682018060405250810190610eba9190611980565b610ef9576040517f08c379a0000000000000000000000000000000000000000000000000000000008152600401610ef090611bfb565b60405180910390fd5b600260009054906101000a900473ffffffffffffffffffffffffffffffffffffffff1673ffffffffffffffffffffffffffffffffffffffff166342966c68836040518263ffffffff1660e01b8152600401610f54919061156f565b600060405180830381600087803b158015610f6e57600080fd5b505af1158015610f82573d6000803e3d6000fd5b505050508373ffffffffffffffffffffffffffffffffffffffff167ff279e6a1f5e320cca91135676d9cb6e44ca8a08c0b88342bcdb1144f6511b5688484604051610fce929190611c1b565b60405180910390a250505050565b610fe4611071565b8060048190555050565b610ff6611071565b600073ffffffffffffffffffffffffffffffffffffffff168173ffffffffffffffffffffffffffffffffffffffff1603611065576040517f08c379a000000000000000000000000000000000000000000000000000000000815260040161105c90611cb6565b60405180910390fd5b61106e81611151565b50565b6110796112c2565b73ffffffffffffffffffffffffffffffffffffffff1661109761057b565b73ffffffffffffffffffffffffffffffffffffffff16146110ed576040517f08c379a00000000000000000000000000000000000000000000000000000000081526004016110e490611d22565b60405180910390fd5b565b6110f76112ca565b60008060146101000a81548160ff0219169083151502179055507f5db9ee0a495bf2e6ff9c91a7834c1ba4fdd244a5e8aa4e537bd38aeae4b073aa61113a6112c2565b60405161114791906114e2565b60405180910390a1565b60008060009054906101000a900473ffffffffffffffffffffffffffffffffffffffff169050816000806101000a81548173ffffffffffffffffffffffffffffffffffffffff021916908373ffffffffffffffffffffffffffffffffffffffff1602179055508173ffffffffffffffffffffffffffffffffffffffff168173ffffffffffffffffffffffffffffffffffffffff167f8be0079c531659141344cd1fd0a4f28419497f9722a3daafe3b4186f6b6457e060405160405180910390a35050565b61121d611278565b6001600060146101000a81548160ff0219169083151502179055507f62e78cea01bee320cd4e420270b5ea74000d11b0c9f74754ebdbfc544b05a2586112616112c2565b60405161126e91906114e2565b60405180910390a1565b61128061053f565b156112c0576040517f08c379a00000000000000000000000000000000000000000000000000000000081526004016112b790611d8e565b60405180910390fd5b565b600033905090565b6112d261053f565b611311576040517f08c379a000000000000000000000000000000000000000000000000000000000815260040161130890611dfa565b60405180910390fd5b565b600080fd5b600073ffffffffffffffffffffffffffffffffffffffff82169050919050565b600061134382611318565b9050919050565b61135381611338565b811461135e57600080fd5b50565b6000813590506113708161134a565b92915050565b60008115159050919050565b61138b81611376565b811461139657600080fd5b50565b6000813590506113a881611382565b92915050565b600080604083850312156113c5576113c4611313565b5b60006113d385828601611361565b92505060206113e485828601611399565b9150509250929050565b60006113f982611338565b9050919050565b611409816113ee565b811461141457600080fd5b50565b60008135905061142681611400565b92915050565b60006020828403121561144257611441611313565b5b600061145084828501611417565b91505092915050565b6000819050919050565b600061147e61147961147484611318565b611459565b611318565b9050919050565b600061149082611463565b9050919050565b60006114a282611485565b9050919050565b6114b281611497565b82525050565b60006020820190506114cd60008301846114a9565b92915050565b6114dc81611338565b82525050565b60006020820190506114f760008301846114d3565b92915050565b6000819050919050565b611510816114fd565b811461151b57600080fd5b50565b60008135905061152d81611507565b92915050565b60006020828403121561154957611548611313565b5b60006115578482850161151e565b91505092915050565b611569816114fd565b82525050565b60006020820190506115846000830184611560565b92915050565b6000602082840312156115a05761159f611313565b5b60006115ae84828501611361565b91505092915050565b6115c081611376565b82525050565b60006020820190506115db60008301846115b7565b92915050565b600060ff82169050919050565b6115f7816115e1565b811461160257600080fd5b50565b600081359050611614816115ee565b92915050565b6000602082840312156116305761162f611313565b5b600061163e84828501611605565b91505092915050565b6000806040838503121561165e5761165d611313565b5b600061166c85828601611361565b925050602061167d8582860161151e565b9150509250929050565b600082825260208201905092915050565b7f4f6e6c79207468652077697468647261772057616c6c65742063616e2070657260008201527f666f726d207468697320616374696f6e2e000000000000000000000000000000602082015250565b60006116f4603183611687565b91506116ff82611698565b604082019050919050565b60006020820190508181036000830152611723816116e7565b9050919050565b7f546869732077616c6c6574732069732062616e6e65642e000000000000000000600082015250565b6000611760601783611687565b915061176b8261172a565b602082019050919050565b6000602082019050818103600083015261178f81611753565b9050919050565b60006040820190506117ab60008301856114d3565b6117b860208301846114d3565b9392505050565b6000815190506117ce81611507565b92915050565b6000602082840312156117ea576117e9611313565b5b60006117f8848285016117bf565b91505092915050565b7f5468697320636f6e7472616374206e6565647320746f20696e6372656173652060008201527f69747320616c6c6f77616e63652066726f6d207265776172642077616c6c6574602082015250565b600061185d604083611687565b915061186882611801565b604082019050919050565b6000602082019050818103600083015261188c81611850565b9050919050565b7f576520617265206f7574206f662073746f636b2e000000000000000000000000600082015250565b60006118c9601483611687565b91506118d482611893565b602082019050919050565b600060208201905081810360008301526118f8816118bc565b9050919050565b7f596f752063616e277420776974686472617720746869732076616c7565000000600082015250565b6000611935601d83611687565b9150611940826118ff565b602082019050919050565b6000602082019050818103600083015261196481611928565b9050919050565b60008151905061197a81611382565b92915050565b60006020828403121561199657611995611313565b5b60006119a48482850161196b565b91505092915050565b7f55736572206e6565647320746f20617070726f766520616c6c20666f7220746860008201527f697320636f6e74726163742e0000000000000000000000000000000000000000602082015250565b6000611a09602c83611687565b9150611a14826119ad565b604082019050919050565b60006020820190508181036000830152611a38816119fc565b9050919050565b7f4e487b7100000000000000000000000000000000000000000000000000000000600052601160045260246000fd5b6000611a79826114fd565b9150611a84836114fd565b9250828202611a92816114fd565b91508282048414831517611aa957611aa8611a3f565b5b5092915050565b7f4e487b7100000000000000000000000000000000000000000000000000000000600052601260045260246000fd5b6000611aea826114fd565b9150611af5836114fd565b925082611b0557611b04611ab0565b5b828204905092915050565b6000611b1b826114fd565b9150611b26836114fd565b9250828203905081811115611b3e57611b3d611a3f565b5b92915050565b6000611b4f826114fd565b9150611b5a836114fd565b9250828201905080821115611b7257611b71611a3f565b5b92915050565b6000606082019050611b8d60008301866114d3565b611b9a60208301856114d3565b611ba76040830184611560565b949350505050565b7f4572726f7220746f207472616e7366657220746f6b656e732e00000000000000600082015250565b6000611be5601983611687565b9150611bf082611baf565b602082019050919050565b60006020820190508181036000830152611c1481611bd8565b9050919050565b6000604082019050611c306000830185611560565b611c3d6020830184611560565b9392505050565b7f4f776e61626c653a206e6577206f776e657220697320746865207a65726f206160008201527f6464726573730000000000000000000000000000000000000000000000000000602082015250565b6000611ca0602683611687565b9150611cab82611c44565b604082019050919050565b60006020820190508181036000830152611ccf81611c93565b9050919050565b7f4f776e61626c653a2063616c6c6572206973206e6f7420746865206f776e6572600082015250565b6000611d0c602083611687565b9150611d1782611cd6565b602082019050919050565b60006020820190508181036000830152611d3b81611cff565b9050919050565b7f5061757361626c653a2070617573656400000000000000000000000000000000600082015250565b6000611d78601083611687565b9150611d8382611d42565b602082019050919050565b60006020820190508181036000830152611da781611d6b565b9050919050565b7f5061757361626c653a206e6f7420706175736564000000000000000000000000600082015250565b6000611de4601483611687565b9150611def82611dae565b602082019050919050565b60006020820190508181036000830152611e1381611dd7565b905091905056fea26469706673582212204b83d1dc8c86e506752251a6880f4f90f9689c5a4ffb23bebcf29312a21419aa64736f6c63430008110033",
  "immutableReferences": {},
  "source": "// SPDX-License-Identifier: MIT\r\npragma solidity ^0.8.9;\r\n\r\nimport \"@openzeppelin/contracts/token/ERC20/IERC20.sol\";\r\nimport \"@openzeppelin/contracts/access/Ownable.sol\";\r\nimport \"@openzeppelin/contracts/security/Pausable.sol\";\r\n\r\nimport \"./interfaces/IERC721WVW.sol\";\r\n\r\n\r\ncontract WVWWithdraw is Ownable, Pausable {\r\n    struct WithdrawStatus {\r\n        uint256 amount;\r\n        uint256 times;\r\n        uint256 lastWithdraw;\r\n    }\r\n\r\n    IERC20 private token;\r\n    IERC721WVW private erc721;\r\n\r\n    uint8 private fee;\r\n    uint256 private minWithdraw;\r\n    uint256 private maxWithdraw;\r\n    address private rewardWallet;\r\n    address private withdrawerWallet;\r\n\r\n    mapping(address => bool) banList;\r\n    mapping(address => WithdrawStatus) withdrawStatus;\r\n\r\n    event Withdraw(address indexed user, uint256 amount, uint256 tokenId);\r\n\r\n    constructor(\r\n        address _token,\r\n        address _erc721,\r\n        uint8 _fee,\r\n        uint256 _minWithdraw,\r\n        uint256 _maxWithdraw,\r\n        address _rewardWallet,\r\n        address _withdrawerWallet\r\n    ) {\r\n        token = IERC20(_token);\r\n        erc721 = IERC721WVW(_erc721);\r\n        fee = _fee;\r\n        minWithdraw = _minWithdraw;\r\n        maxWithdraw = _maxWithdraw;\r\n        rewardWallet= _rewardWallet;\r\n        withdrawerWallet = _withdrawerWallet;  \r\n    }\r\n\r\n    modifier onlyWithdrawer() {\r\n        require(\r\n            msg.sender == withdrawerWallet,\r\n            \"Only the withdraw Wallet can perform this action.\"\r\n        );\r\n        _;\r\n    }\r\n\r\n    function withdrawRewards(address _userWallet, uint256 _amount)\r\n        external\r\n        onlyWithdrawer\r\n        whenNotPaused\r\n    {\r\n        require(!banList[_userWallet], \"This wallets is banned.\");\r\n        require(token.allowance(rewardWallet, address(this)) >= _amount, \"This contract needs to increase its allowance from reward wallet\");\r\n        require(\r\n            token.balanceOf(rewardWallet) > _amount,\r\n            \"We are out of stock.\"\r\n        );\r\n        require(minWithdraw <= _amount, \"You can't withdraw this value\");\r\n        require(maxWithdraw >= _amount, \"You can't withdraw this value\");\r\n\r\n        // User needs to approveForAll for withdraw contract\r\n        require(erc721.isApprovedForAll(_userWallet, address(this)), \"User needs to approve all for this contract.\");\r\n        \r\n        // This will revert if address doesn't have any Ticket.\r\n        uint256 tokenId = erc721.getNFTByAddress(_userWallet);\r\n\r\n        uint256 _feeAmount = (_amount * fee) / 100;\r\n        _amount -= _feeAmount;\r\n\r\n        withdrawStatus[_userWallet].amount += _amount;\r\n        withdrawStatus[_userWallet].times += 1;\r\n        withdrawStatus[_userWallet].lastWithdraw = block.timestamp;\r\n\r\n        require(\r\n            token.transferFrom(rewardWallet, _userWallet, _amount),\r\n            \"Error to transfer tokens.\"\r\n        );\r\n        require(\r\n            token.transferFrom(rewardWallet, withdrawerWallet, _feeAmount),\r\n            \"Error to transfer tokens.\"\r\n        );\r\n\r\n        erc721.burn(tokenId);\r\n        emit Withdraw(_userWallet, _amount, tokenId);\r\n    }\r\n\r\n    function setWithdrawerWallet(address _withdrawerWallet) external onlyOwner {\r\n        withdrawerWallet = _withdrawerWallet;\r\n    }\r\n\r\n    function getWithdrawerWallet() external view returns (address) {\r\n        return withdrawerWallet;\r\n    }\r\n\r\n    function setBanAddress(address _address, bool _status) external onlyOwner {\r\n        banList[_address] = _status;\r\n    }\r\n\r\n    function getBanAddress(address _address) external view returns (bool) {\r\n        return banList[_address];\r\n    }\r\n\r\n    function setToken(IERC20 _token) external onlyOwner {\r\n        token = _token;\r\n    }\r\n\r\n    function setFee(uint8 _fee) external onlyOwner {\r\n        fee = _fee;\r\n    }\r\n\r\n    function setMinWithdraw(uint256 _minWithdraw) external onlyOwner {\r\n        minWithdraw = _minWithdraw;\r\n    }\r\n\r\n    function setMaxWithdraw(uint256 _maxWithdraw) external onlyOwner {\r\n        maxWithdraw = _maxWithdraw;\r\n    }\r\n\r\n    function setRewardWallet(address _rewardWallet) external onlyOwner {\r\n        rewardWallet = _rewardWallet;\r\n    }\r\n\r\n    function getToken() external view returns (IERC20) {\r\n        return token;\r\n    }\r\n\r\n    function getFee() external view returns (uint256) {\r\n        return fee;\r\n    }\r\n\r\n    function getMinWithdraw() external view returns (uint256) {\r\n        return minWithdraw;\r\n    }\r\n\r\n    function getMaxWithdraw() external view returns (uint256) {\r\n        return maxWithdraw;\r\n    }\r\n\r\n    function getRewardWallet() external view returns (address) {\r\n        return rewardWallet;\r\n    }\r\n\r\n    function pause() public onlyOwner {\r\n        _pause();\r\n    }\r\n\r\n    function unpause() public onlyOwner {\r\n        _unpause();\r\n    }\r\n}\r\n",
  "sourcePath": "C:\\lucas_blockchain\\freela\\YF_CONSULTORIA\\wvw\\Truffle\\contracts\\WVWWithdraw.sol",
  "compiler": {
    "name": "solc",
    "version": "0.8.17+commit.8df45f5f.Emscripten.clang"
  },
  "schemaVersion": "3.4.11",
  "updatedAt": "2023-03-01T17:39:13.334Z",
  "networkType": "ethereum",
  "devdoc": {
    "kind": "dev",
    "methods": {
      "owner()": {
        "details": "Returns the address of the current owner."
      },
      "paused()": {
        "details": "Returns true if the contract is paused, and false otherwise."
      },
      "renounceOwnership()": {
        "details": "Leaves the contract without owner. It will not be possible to call `onlyOwner` functions anymore. Can only be called by the current owner. NOTE: Renouncing ownership will leave the contract without an owner, thereby removing any functionality that is only available to the owner."
      },
      "transferOwnership(address)": {
        "details": "Transfers ownership of the contract to a new account (`newOwner`). Can only be called by the current owner."
      }
    },
    "version": 1
  },
  "userdoc": {
    "kind": "user",
    "methods": {},
    "version": 1
  }
}